:10400000FC7F00202DEE00009D670000B5670000DA
:1040100000000000000000000000000000000000A0
:1040200000000000000000000000000015EE00008D
:10403000000000000000000015EE000081EE00000E
:1040400015EE000015EE000015EE000015EE000064
:1040500015EE000015EE0000C962000019EE000028
:1040600015EE00003DE6000015EE000015EE000024
:1040700015EE000015EE00004DE6000015EE000004
:1040800015EE000015EE000015EE000015EE000024
:10409000ADDC000015EE000015EE000015EE00008E
:1040A00015EE000015EE000015EE000015EE000004
:1040B0000000000010B5064C2378002B07D1054BFB
:1040C000002B02D0044800E000BF0123237010BD84
:1040D0009001002000000000E0260100044B10B514
:1040E000002B03D00349044800E000BF10BDC046C8
:1040F0000000000094010020E0260100027C002363
:10410000120704D5C36A406A1B1A00D5014B180078
:104110007047C046FFFFFF7F10B50400024B0360ED
:1041200006F048FA200010BDD80F010010B50400B9
:10413000FFF7F2FF20000AF05FFF200010BD10B56E
:10414000103008F077F810BD10B5103007F092FF6E
:1041500010BD13B56B46DC1D10300122210007F0A5
:10416000D1FE012801D1207816BD01204042FBE795
:1041700010B5103008F00CFA10BD07B56B46D971B8
:10418000073310300122190008F002FA0EBD0000BA
:1041900073B50400103000F09BFC20001F221E218C
:1041A000483002F0E9FB012520000195009500232D
:1041B000042202217C3006F055FC22000023260058
:1041C000FA201C49B0321380D436103A80001160B6
:1041D000536090603370737053645C321380103A94
:1041E000116021002131FF31536090600B704B70E2
:1041F00053643C22FF32A35422003C32FF32D5707C
:10420000537093701371537152222000FF32A354E4
:104210005219A35455302D3A5233FF3A0821FF303A
:1042200001F07EFFB82301225B0052422000E252DF
:1042300076BDC046B80F010010B50A4C200000F052
:104240005BFB0949094805F051FC094A094920006E
:1042500000F08AFB200000F0B0FCBF2300225B00CE
:10426000E25410BDB00100201A1B0100C001002063
:1042700039100100D6250100F0B50725424C8BB05E
:104280004249200005F032FC414B029304260027EE
:104290002BB203936A463F4B92891A803E4B029A97
:1042A0001E80FB00D15E002903DD0A2220000AF0F7
:1042B000B2FA0936B6B20137282EEBD1029B12357D
:1042C0000233ADB202934F2DE0D101274D3D043EA4
:1042D0002AB2482305212000009704F018FB69004A
:1042E0000131093509B20096012302222000ADB246
:1042F00004F00DFB2F2DEBD10523264A264D13800C
:104300002649233307A82B800AF02CFD244B0A22D0
:10431000196804A80AF045FD04A907A80AF06CFD75
:10432000010020000AF011FA04A80AF0D3FC07A843
:104330000AF0D0FC1B4B1B78002B23D01A4A00211B
:10434000200005F0ADFB0E230D2200930221423325
:10435000200004F0DCFA00221349200005F0A0FB45
:104360001249200005F0C2FB13230A4A10491380AA
:104370002000033B2B800AF0EFF90B4A00212000BC
:1043800005F08EFB0BB0F0BDC001002078180100D5
:1043900004000020720B0020740B00202810010084
:1043A000240000205E030020FFFF00001A1B010014
:1043B00030100100F0B587B0032800D9BCE09F4B56
:1043C0000CF06CFA026C254600229C461D000193FD
:1043D000110002200C3149000491411C019BCC00CA
:1043E0001E5F002E00D08BE04CB2032C00D17BE08E
:1043F0000131F3E76B4601398E00B6181B89760050
:104400007353884200D18DE0002363538AE0002279
:104410009C46019301205100884D0491411E019B4F
:10442000CC001C5F002C00D094E04EB2002E00D1D6
:1044300084E00139F3E76B4601318E00B6181B8921
:1044400076007353884200D196E00023635393E0D3
:1044500004230322794C0293784B032019009C46D5
:1044600018310191029B032A00D1AEE0019D590051
:104470006E5E002E00D095E059B2032900D187E08E
:104480000133F3E76E46013BC918368A49000E53E3
:104490009A4200D199E000232B5396E00123002299
:1044A0005B42664C0293654B19001831039103215E
:1044B0009C460191029B002A00D1AFE0039D590068
:1044C000695E002900D098E05DB2002D00D189E03E
:1044D000013BF3E70133C918490008539A4200D160
:1044E0009CE000232B5399E08400A41863000293FE
:1044F0006346029CE75E6346049CE752029CE652D8
:104500008E008400B618A4187300640003935F5FE4
:10451000635F02939F4200D06CE7039B7F005F5371
:1045200000236353013800D357E7019B0132023364
:104530000193042A00D04BE707B0F0BD8400A41813
:10454000630002936346029CE75E6346049CE75265
:10455000029CE6528E008400B618A4187300640012
:1045600003935F5F635F02939F4200D063E7039B07
:104570007F005F53002363530130042800D04DE7D0
:10458000019B013202330193042A00D042E7D3E7B2
:1045900065468100891849004F5FC5006544EF807A
:1045A00065464E538100CE18750005952E5F8D1817
:1045B00003966D002E5F039F0496B74200D061E71B
:1045C000059B7F001F5300232B53019B083B019346
:1045D000013800D346E7029B013B0293013A00D326
:1045E0003AE7A9E7604601998900891849000F5EFA
:1045F0000198C600604637520D5201998900CE18C5
:104600008D1870006D000490075F285F874200D00E
:1046100060E7049B7F001F5300232B53039B083B41
:104620000393019B013B019300D343E7029B0132BB
:1046300001330293042A00D035E77DE7040000200F
:10464000F7B5254D00242B002E0008330027FA0073
:10465000B25E002A01D1013464B20137042FF6D1D1
:1046600002369E42F2D1002C34D01C4B2100187827
:104670000CF098FA081921000CF094FA184B49B282
:104680001A780223002A00D13B1C1BB20193154B60
:104690001B68009300239C460023DF00E85F00288E
:1046A0000CD1002908D16A469088009AE8530198F5
:1046B0001218012084460092013949B20133042BBB
:1046C000EBD10235B542E7D16346002B02D0054B52
:1046D000009A1A602000FEBD040000205C03002048
:1046E0005D03002024000020084B094A190008310E
:1046F000188802331080D8880232D080D889D081BF
:10470000D88AD0828B42F3D17047C0460400002083
:104710003C0300200B4A00239446F0B50A4861464A
:104720000022CC18C518A75EAE5EB74207D108328A
:10473000202AF8D10233082BF1D10120F0BD00204E
:10474000FCE7C0463C030020040000200A4B802008
:10475000190030B5083180010022D4001C5F84426A
:1047600007DC0132042AF8D102338B42F4D1002055
:1047700030BD0120FCE7C0460400002000220221D9
:10478000084B1A801A8119821A835A805A815982D9
:104790005A839A809A819A829A83DA80DA81DA82BD
:1047A000DA83704704000020F8B5364A364C137897
:1047B0002078013301301370C0B20A210CF0F2F9F5
:1047C0000A3108000A210CF0EDF921700AF066FBAD
:1047D0002E4F2F4C3B6898424CD92E4B1E78002E02
:1047E00048D1FFF781FF3100200002F045F8051E97
:1047F00002D03000FFF7DEFD0321200002F03CF87C
:10480000061E03D00220FFF7D5FD35000121200050
:1048100002F032F8061E03D00120FFF7CBFD350071
:104820000221200002F028F8061E03D00320FFF723
:10483000C1FD35000521200002F01EF8002806D039
:10484000154A1649200000F08FF8FFF797FF002D5A
:1048500010D0FFF77BFF0F4B18700AF01FFB64307E
:1048600038600F4809F0ACF9FFF754FF002801D178
:10487000FFF7E6FE200000F04FF8002801D0FFF718
:10488000FBFCF8BD5C0300205D030020AC010020B0
:10489000B00100205E03002039100100D625010080
:1048A000E401002010B5054C2000FFF771FC044A1C
:1048B000044920000CF07CF910BDC046B001002076
:1048C00000000020C948000010B504005530FF303A
:1048D00001F02EFB20007C3005F06CFE2000054B23
:1048E0004830A36404F098FB20001030FFF714FC5C
:1048F000200010BD6C16010010B5040001F06CF929
:1049000080210448C90009F05BFE2000343000F02B
:10491000FFF810BD6014002070B5040000F07CFFAB
:10492000051E0CD02600313423781036002B02D11E
:10493000300000F0E1F80021300005F07BF828009D
:1049400070BD000010B5054C2000FFF721FC044AA3
:10495000044920000CF02CF910BDC0466003002073
:1049600000000020C9480000F0B591B00392012278
:10497000534B05001A7003000022313305911A7061
:10498000504907A806F054F82800FFF7C5FF002893
:10499000FAD02C001034200000F0AEF800212000E6
:1049A00005F048F80221484B00224942200005F05A
:1049B000D3FC039B002B19D01B7820000493039B8E
:1049C0005F7805F03BF90600200005F049F9049BEB
:1049D000C71BF61AFA0FF10FD21989195210491094
:1049E00052B249B2039B200005F0B6FC2E000C2108
:1049F000002005F071F80599200009F0A2FE0722B9
:104A0000FC36B36C1340032B11D93049200005F05C
:104A100011F8200005F012F90700200005F020F938
:104A2000002200903B001100200003F025FF072228
:104A3000B36C1340032B3DD9012107A805F05EFF9D
:104A4000200005F0FBF850380600701E864107A8CC
:104A500005F0F4F801367043C3B207A8049305F0DB
:104A6000FFF84643200005F0E9F8049BF6B2C71AA8
:104A7000200005F0F5F8821B684636B20196102634
:104A8000805F2B690090FFB239B29E6B2000D2B2DA
:104A900007ABB0470421280001F0EEFE002800D14A
:104AA00072E72800343009F081F807A805F082FD8C
:104AB00011B0F0BD002107A805F020FFC0E7C046F7
:104AC0007C0B00202C110100BB10010068CC000001
:104AD000012313B5402204000193009350210023C9
:104AE00005F0C0FF0022034B20002360A31CDA77EF
:104AF00016BDC046D80F010010B5044904F05EFF92
:104B00000021080004F0E8FF10BDC046FFFF0000D0
:104B100010B5040009F084FA22000023211D13704F
:104B200013711372137301328A42F8D123746374C0
:104B3000A37410BD10B5C9B209F0A8F810BD10B526
:104B400009F0AEF810BD10B5002304008AB001A82A
:104B50000A000380210007F0BEFB0AB010BD03006D
:104B60000A0070B51033103270CA70C370CA70C3B7
:104B700070CA70C34B6843608B688360CB68C36046
:104B80000B0034331A78030034331A700B003533BA
:104B90001A78030035331A708B6B8363CB6BC36356
:104BA0008B1CDA8F831CDA870B1DDA8F031DDA87E3
:104BB0004B6C43648B6C836470BD70B50AF074F900
:104BC00004000AF071F9444301200AF085FB050056
:104BD00002200AF081FB684360400AF075F870BD5E
:104BE00070470000F0B54B4D4B4C9FB000900191C9
:104BF000200029000292FFF7A6FF031E06D111A88C
:104C000003802A000133210007F024FC0023FA2747
:104C100004AA414E13820593404BBF004049300027
:104C200006970493FFF78FFF041E25D111AD3B4B70
:104C30002882139715AF3A4A310012901193380029
:104C4000384B07F048FB08AB07CF07C307CF07C3B4
:104C500007CF07C3129B21000593AB6808A80693F2
:104C6000EB680393079307F035FA200004A906F0D8
:104C700085FC08A807F028FBFA23002511AE9B004D
:104C800035821393254B15AC254A234911932000F7
:104C9000244B129507F01FFB08AB07CC07C307CCCA
:104CA00007C307CC07C3129B29000593B36808A864
:104CB0000693F3680393079307F00CFA04A806F031
:104CC00055FC0199431C029A009806F0F9FB040078
:104CD000290008A807F0FEF9631C12D104A92800D6
:104CE00006F04CFC2B00029A0199009806F0E8FBB4
:104CF0000400431C05D108A807F0E6FA28001FB0FD
:104D0000F0BD04A9200006F039FC08A807F0DCFA81
:104D10000120F4E7A012010028090020B80F0100CB
:104D2000A41201000242000010B504000021483026
:104D300004F044FE20003A30FF3001F013FD10BDB6
:104D400000226420074B0849DA715A522431585422
:104D5000064907485A540749585007495A540139D7
:104D60005A547047EC0400203C0400006A04000020
:104D700000093D006C0400007104000073B50500DB
:104D800048350400280004F059FF0600280004F00C
:104D900067FF0022230001900096280010331100C5
:104DA00002F024FA73BD0000F0B58DB01E0012AB06
:104DB0001F7801230C000193009315004E210A2255
:104DC00003A805F04FFE03A804F033FF022103A857
:104DD0000C4B0022494205F0BFFA0A23B8B2434304
:104DE0003200019329004E23424341435843256832
:104DF000009003AB2000AD6BA84703A805F0DAFBD9
:104E00000DB0F0BD161301000300F0B507003433F8
:104E10009BB01800039308F02DFFA94B3C00002223
:104E20009B5E48340993A74B200000229B5E00251F
:104E30000A93A54B1B880B93A44B1B880C93A44B84
:104E40001B780D93A34B1B780E93A34B1B680F93FA
:104E5000A24B1B781093A24B1B78119302F0F8F829
:104E600003211490200002F0C5F8200004F016FF82
:104E70009C491290200004F00BFF3B005533FF3398
:104E80001800069301F0B4F9069801F0B5F8EBB2FA
:104E90000698059301F0A8F9934BEB5C834203D28B
:104EA0000135052DF3D105959049200004F0C2FD90
:104EB00020233422009300218033200001F0D0FF12
:104EC0008B49200004F0B6FD022320000093382215
:104ED000884B002103F042FD0398FFF730FE0028C5
:104EE00047D18249200004F0A5FD10233C22009305
:104EF0003221063B200001F0B3FF0021200004F026
:104F000099FD1C25002202261100A02320000095F7
:104F100001F0A6FF7649200004F08CFD002120005E
:104F20000096754B042203F019FD7049200004F02F
:104F300081FD200004F082FE2AB2030000960021C9
:104F40002000043501F08CFF342DF2D102262235E9
:104F5000200004F085FEA84211DD200004F06EFE62
:104F60002AB2030000960021200001F079FF0435E9
:104F7000EEE7039808F078FE0028B2D1BDE70023E1
:104F80000125089313930233049309F087FF139BC1
:104F9000C01A2828F9D9039808F01CFE09F07EFFF2
:104FA0001390380001F022FC089B06980133089307
:104FB00001F01EF90721380001F066FC002800D03E
:104FC000CBE20521380001F05FFC002800D0C4E2EC
:104FD0000621380001F058FC002800D0BDE2042270
:104FE0000221380001F062FC002819D104220121BD
:104FF000380001F05BFC002806D0049B002B03DD89
:105000000500013B5BB20493049B042B00D9D0E064
:1050100018000BF04DFC0D0073009F01AA01FD016B
:10502000049B032BE2DC01335BB204930500DDE754
:1050300004220321380001F039FC002806D0059B2A
:10504000032B03D805000133DBB2059304220021B2
:10505000380001F02BFC002806D0059B002B03D064
:105060000500013BDBB205930421380001F00CFC84
:10507000002812D0059B5A4253419B0005931A4BBE
:10508000059A0698995C01F087F83800059A042182
:10509000EC3006F0F7FD012501E0002DEFD10026F0
:1050A000069801F076F8864200DB82E0FF23B1B279
:1050B00000931A000698013601F048F8F6B2EFE7BF
:1050C000720B0020740B00206C0B0020700B002072
:1050D0007C0B002047000020680B00207E0B002086
:1050E000640B0020481701006015010068520000A1
:1050F000FFFF0000651501001613010004213800B0
:1051000001F0C2FB079000281FD0039808F0ACFD07
:105110003E000500EC360398002D00D1D6E008F0E3
:105120009DFD00220121300006F0ACFD0398FFF741
:1051300006FD0790002808D106210398FFF7FAFC26
:1051400006220799300006F09DFD04220321380055
:1051500001F0ACFB061E21D00398FFF7F0FC0728F6
:105160001CD803983D0008F07FFDEC35002800D1E5
:10517000C5E0039808F072FD01210022280006F026
:1051800081FD01210398FFF7D5FC0398FFF7D7FCB9
:1051900000210200280006F075FD350004220021E0
:1051A000380001F083FB002800D0B1E0002D00D0D2
:1051B000CBE00723089A1340032B00DD0DE2BE4924
:1051C000200004F037FC049B1E2659018BB2079384
:1051D0006B461C21595E202334220093200003F0EB
:1051E0004BFB079B0096591C09B233003522200067
:1051F00003F042FB002D00D104E2AF49200004F08F
:1052000019FC04220121380001F050FB002812D0C3
:10521000049B34225D1C20236D01ADB229B20093A2
:105220002000013503F028FB29B200963300352217
:10523000200003F021FB04220221380001F036FB9C
:10524000002812D0049B34225D1E20236D01ADB2D4
:1052500029B20093200003F00FFB1E23013529B271
:1052600000933522200003F007FB049B012B00D0A4
:10527000E9E10398FFF763FC002800D0AFE18E4915
:10528000200004F0D7FB10233C2200933221063B80
:10529000200001F0E5FD0398FFF751FC002800D144
:1052A000C8E18649200004F0C5FB0398FFF747FCDE
:1052B000542207998000121A1E3100B2009012B2D7
:1052C00009B20223200003F0D7FAB3E1FFF737FC5D
:1052D000002809D0039808F0BBFC0122300011001F
:1052E00006F0D0FC079D30E706210398FFF722FC6B
:1052F00029000622300006F0C5FC079D25E703982B
:10530000FFF71DFC013041B20398FFF713FC3CE7A7
:105310000398FFF714FC002800D147E7039808F032
:10532000A3FC061E00D041E70398FFF708FC0138F4
:1053300041B20398FFF7FEFB0398FFF700FC020061
:1053400038003100EC3006F09DFC039808F02EFC8C
:1053500001252EE70421380001F08EFA002800D143
:1053600027E73800FFF7E0FC23E70421380001F0CD
:105370008BFA0790002800D11BE75049200004F069
:1053800059FB2023342200936021200003F074FA9B
:105390001E23352200936121200016AD03F06CFA24
:1053A0000E22474928000BF06AFC05220421280040
:1053B0005226FFF717FCFF3600281AD1B85541498D
:1053C000200004F037FB20233422009360212000CA
:1053D00003F052FA1E23352200936121200003F0CE
:1053E0004BFAC820400009F08FFD0123079DBB55F3
:1053F000DFE642233800AB7229000E3310302B73E6
:1054000005F014FA0023BB559842D8D02E49D7E7AF
:105410000421380001F038FA002844D02749200040
:1054200004F008FB2023342200938021200003F0A5
:1054300023FA1E23352200938121200016AD03F0AC
:105440001BFA0E221E4928000BF019FC052204212C
:105450002800FFF7C7FB192207900421380001F04C
:105460001DFA5226079B1590FF36002B2ED16B4656
:105470001B7FBB551349200004F0DCFA20233422A3
:1054800000938021200003F0F7F91E2335220093BA
:105490008121200003F0F0F9C8200125400009F027
:1054A00033FDBD5585E619220421380001F0F6F9D7
:1054B0000028B3D17DE6C04668520000FFFF00001F
:1054C000F6120100E4D8000068860000159B002B4E
:1054D00000D07CE0FA204233AB720E332B731933C9
:1054E000FF33F95C80000BF077FA032358436E33E7
:1054F000FF33F852380016A9103005F084F9002364
:10550000BB559842B6D00122514B1A70159B002B07
:105510000BD00A2009F0F8FC380001F067F90421EB
:10552000380001F0B1F90028F3D04A49200004F016
:1055300081FA2023342200938021200003F09CF97B
:105540001E23352200938121200003F095F9C82005
:10555000400009F0D9FC0123BB55039808F090FBEB
:105560006A463D4B928C34211A806A463B4B128D21
:1055700020001A806A463A4B928D1A806A46394B4F
:10558000128E1A806A465218374B127804311A70FC
:105590006A465218354B127808311A700F9A344BFC
:1055A0001A606A465218334B127804311A706A46F0
:1055B0005218314B127814991A7001F01BFD129990
:1055C000200004F05FFBFFF70BFB1BB0F0BDB8231E
:1055D00001225B005242FA528CE72849F0E5039819
:1055E00008F042FB002800D049E62000244904F0DE
:1055F00021FA0223382200933021224B200003F0AD
:10560000ADF948E6049B002B19D1059B002B11D066
:105610001B49200004F00EFA5422059B0799DB0079
:10562000D21A1E311BB2009312B209B2022320001B
:1056300003F022F9069800F0DFFC0025A5E4049BA6
:10564000012BF7D127E6049B002BDED0F2E7C04602
:105650006409002068860000720B0020740B002093
:105660006C0B0020700B00207C0B002047000020FA
:10567000680B00207E0B0020640B002068CC00002B
:10568000FFFF00007C130100F0B5B8256D00435FFB
:105690008FB004005A1C01D0013B43530721200066
:1056A00001F0F2F8002808D1635F002B00D099E0E8
:1056B0004D4B1B78002B00D194E04B4B1B78002BFB
:1056C00000D18CE0494B260000229B5E48360293B5
:1056D000474B300000229B5E25000393454B343539
:1056E0001B8827000493444B55371B88FF370593CD
:1056F000424B1B780693424B1B780793414B1B6828
:105700000893414B1B780993404B1B780A9301F097
:105710009FFC03210C90300001F06CFC300004F081
:10572000BDFA3B490B90300004F0B2FA280008F0B3
:10573000A1FA280008F098FA0D90280008F088FADD
:105740002300103318003349019304F0CFF93800D7
:1057500000F04EFD380000F04FFC0121019805F0EB
:105760005DF80023204A20001370FFF707FB0D9B14
:10577000002B02D1280008F071FA280008F080FA06
:105780006A461A4B128924211A806A46184B92895C
:1057900030001A806A46174B128A1A806A46164BE6
:1057A000928A1A806A46154B127E1A706A46144B0A
:1057B000127F1A70134B089A1A606A465218124BDD
:1057C000127804311A706A465218104B12780C99EC
:1057D0001A7001F00FFC0B99300004F053FA20000E
:1057E000FFF712FB0FB0F0BD64090020720B002020
:1057F000740B00206C0B0020700B00207C0B002031
:1058000047000020680B00207E0B0020640B002066
:105810004817010078180100F0B505008BB0FC3581
:105820002E6F040009F03AFBB427301AA8267F0037
:10583000E35D760098421BD9A35D0393002B17D03C
:1058400009F02CFBE35D1818AB6C28670133AB64DF
:105850000023A35509F028FB2865200000F0C6FFAF
:1058600020003C30FF3005F083FB03980BB0F0BD07
:10587000A35D0393002B7AD12000FFF705FF2000E2
:105880003C30FF3005F0D8FC20003B30FF3005F005
:10589000D7FA20002700343008F09CF97C3720002C
:1058A000FFF76CFA380004F0DBF9C3B23800069356
:1058B00004F0C4F9C3B205932E4B039E0493069AD9
:1058C000F3B29A4228D9002523005533FF33059AB5
:1058D0000793EBB29A4218D929B232B2380004F0D9
:1058E000B9FF05F024FE0304010209AA090E1B0EEC
:1058F000107091705370C2B20498405D0091010025
:10590000079800F023FC0135DEE7059A049B9446D6
:10591000634401360493D2E726002500164B553622
:105920001B78FF36FC35002B0FD0A86C0A210BF03A
:105930004FF80023042218008A4258414242D2B252
:1059400000930721300000F001FC300000F054FB10
:10595000300000F04DFC09F0A7FA2B6DC01AE86486
:1059600002F074FFA82301225B00E2547DE70023CC
:1059700003937AE7DF15010064090020F0B5040005
:105980008FB0214905A805F053F82000FFF744FF28
:105990002000002234301D4908F0BCF8182303937E
:1059A0002000FFF739FF0028FAD06B4627001E7B46
:1059B0001037751EEDB26BB238000393FFF79CF8F9
:1059C0000122134B1A7000230A2D01D80B3E73B22B
:1059D000012239000092200092182600FFF7E4F916
:1059E00000227C3605AB1100300005F07DF9002D5A
:1059F000D6D1300004F01DF92000FFF70DFF05A8F7
:105A000004F0D8FD0FB0F0BD8A13010004130100AB
:105A10007C0B00200B4B10B51868002810D05223C7
:105A2000FF33C35C002B0BD0A8235B00C35C002BAF
:105A300004D10300FC331B6D002B01D0FFF7ECFEFB
:105A400010BDC04668090020F0B505000127837E1F
:105A500093B00793838B5A4E0493C38B3100059305
:105A6000584B59481F702C00FFF76DF81034039005
:105A7000002806D000973300059A0499200004F00E
:105A800053FE524909A804F0D3FF2800FFF7C4FED3
:105A90000028FAD0039B2000002B67D004F0F8FE0A
:105AA0002B000722FC339B6C00211340032B00D9F1
:105AB0004749200003F0BEFF200004F0BFF80600B5
:105AC000200004F0CDF800220090330011002000E7
:105AD00002F0D2FE2B000722FC339B6C1340032BF9
:105AE00068D9012109A804F009FF200004F0A6F8F4
:105AF00050380600701E864109A804F09FF8013650
:105B00007043C3B209A8069304F0AAF846432000E4
:105B100004F094F8069BF6B2C71A200004F0A0F82F
:105B20006B46821B36B201961820185EFFB239B25E
:105B30000090D2B2200009AB03F038F8042128000D
:105B400000F09AFE0028A0D02800343008F02EF88B
:105B50000123059A019300930499079B200004F008
:105B6000E5FE09A804F026FD13B0F0BDFEF7C4FF62
:105B70002000174903F05EFF092150230F22114E28
:105B8000307841434343424300912000039902F09F
:105B9000BEFE20000F4903F04DFF11213078414334
:105BA000400003F099FF29007331FF31200008F015
:105BB000E5FD75E7002109A804F0A0FE95E7C046C1
:105BC000280000207C0B0020280900202C11010057
:105BD00068CC0000FFFF0000F0B50226BC4A9FB071
:105BE00013780400B3431370BA4BBB491860030029
:105BF0007333FF330C22180003930BF040F8BF23DC
:105C0000002728225B00E754163BE254183B273A52
:105C1000E254FE320E3BE25423005533FF331800AA
:105C2000049300F095F9049800F0E2FA200000F0E7
:105C3000CDFD200000F0DAFD3A000521200000F043
:105C400035FE2300250048330690079018001035D4
:105C5000059300F0DBFF0321059801F0CBF9390033
:105C6000280003F0ABFE01229C4B9D4928001A70CE
:105C700003F0E0FE994B32001B78290000932000CE
:105C80003300FFF791F83A009649280003F008FF27
:105C9000280003F0E5FF0600280003F0D3FB8F4B3C
:105CA00019784143711A380009B203F015FF8E4983
:105CB000280008F051FD2000FFF760F809AA1771CD
:105CC00057710A9A894F8A4B00928A491A223800E2
:105CD000099307F04CFB002800D1CFE0864E87489F
:105CE000376006F0F1FA0121300007F0C9F9011E12
:105CF00000D1BDE0804F814E3900300006F0E8F859
:105D0000002800D1BAE07E4BFA5C70231A4200D121
:105D1000B4E07C4B01221E60A9235B00E2547A4967
:105D20000022280003F0BCFE7849280008F026FD78
:105D30002000FFF723F8200000F058FD069B002B01
:105D400005D11A000521200000F0B0FD07900022C7
:105D50006349280003F0A4FE0021280003F02EFE72
:105D6000664F03993800FEF7EEFE031E06D10BA81E
:105D70000380039A0133390006F06CFB00230BAE5D
:105D800033807333FF33E35C2F2B00D089E074231F
:105D9000FF33E35C002B00D083E0380006F094FA78
:105DA0005549380006F094F8039A59490BA805F0B4
:105DB000F9FB2000260027000BA9A030FEF7CFFE3C
:105DC000EC36544A54490BA805F0ECFB0BA9300003
:105DD000FEF7C5FE343720210623504A300005F077
:105DE000F9FB3800FEF794FE0121300005F0B8FE03
:105DF000002802D0380007F02BFF0021300005F00A
:105E0000AFFE41B23800FEF795FE079B002B07D08E
:105E100001223000110005F035FF380007F018FFAF
:105E20000321300005F09CFE05F09CF804213000B1
:105E300005F096FE3A4B195C049800F0ADF9059810
:105E400002F014FD374B1B78DB0705D52000FFF768
:105E500095FD2000FFF7F8FD2000FEF7AEFE2800BC
:105E6000FEF74AFE52230122FF33E2541FB0F0BD79
:105E7000300007F005F9002800D03BE7A9230022F5
:105E80005B00E2542800284903F00AFE2749280055
:105E900008F074FC2000FEF771FF642009F034F86C
:105EA00049E7164F0023039A3900300006F013FA31
:105EB000002800D178E7702332781A4200D173E7C6
:105EC0003B0007CE07C307CE07C307CE07C36BE768
:105ED0000010004068090020B21201007C0B002075
:105EE000FFFF000068CC0000C21201004C09002036
:105EF000001BB70058090020EC04002028090020EE
:105F00003C040000940B002068860000CE120100C3
:105F1000DA120100E3120100E81201001815010075
:105F20006015010038040040E4D80000D2120100DE
:105F300010B504008068002801D00AF087FE062012
:105F40002056002802DB002109F01EFB200010BDB6
:105F500010B5040006202056002807DB012109F0B7
:105F600013FB06200021205609F05AFB0123637021
:105F700010BD70B5050080680E00002801D00AF041
:105F800065FE2B7BEC7BE41A631E9C410334744357
:105F9000A4B2AC8020000AF04FFEA860002805D013
:105FA000220000210AF074FE6E8070BDA880688017
:105FB000FBE70322F8B58B110D118E10164013402C
:105FC00015400A40467382730026FF228A427641BA
:105FD0008268C47B077BC37305730670002A0AD0EE
:105FE000E21B5B1B51424A4159424B419A4202D04B
:105FF0004188FFF7BEFFF8BDF8B583680400002BA9
:1060000000D16BE008F050FF2369C01A3128F9D99C
:1060100072B6062318220121E356314F5343FA1872
:106020005268A5889140A2685519501C1678DA5D0F
:106030002C4BD2019C462C4B9444D21880236746AB
:106040003960C046C046C046C046C046C046C0468D
:10605000C046334221D0C046C046C046C046C046B6
:10606000C046C046C046C046C046C046C046C04600
:10607000C046C046C046C046C046C046C046116085
:106080005B1020D0DBB2C046C046C046C046C0460A
:10609000C046C046C046C046D1E71160C046C046B3
:1060A000C046C046C046C046C046C046C046C046C0
:1060B000C046C046C046C046C046C046C046C046B0
:1060C000C046C046DCE762B672B6A84202D2067885
:1060D0000130B3E762B608F0E7FE2061F8BDC046C4
:1060E000B4210100184400411444004170B54378C4
:1060F00004000D00002B06D006202056002802DBED
:10610000002109F041FA6378A571002B07D0012125
:10611000280009F039FA0021280009F081FA70BD41
:1061200070B51500002204000E004270C27182603A
:1061300002611900FFF73DFF31002000FFF719FF52
:1061400029002000FFF7D2FF200070BDF0B505AC9C
:10615000257844888C4216D9C479002C05D0624336
:1061600063436543120A1B0A2D0AC47B077B8668BA
:10617000A74209D1032461437118047B0A55427B6D
:106180008B54837BCD54F0BD8900711800260E55C9
:10619000F3E740887047000070B5866805000A0084
:1061A000002E1ED04C1CC379E4B2A34219D00020AB
:1061B000013BD9B2814205D0FF2A0ED109480AF02D
:1061C0000BFC80B20023A9889AB2914208D9F25CF4
:1061D00042431212F2540133F5E720020138EEE790
:1061E000EC7170BDFFFF0000C0790138C0B270478C
:1061F000836810B5002B04D08288002118000AF0B3
:1062000047FD10BD094B1868002809D1EFF3108233
:106210000749002A08D172B6BFF35F8F01320A70B6
:106220001A6801321A6070470870F9E7F80A00200E
:10623000F40A0020084B1A68002A0CD01A68013AA8
:106240001A601B68002B06D1044B1B78002B02D070
:10625000BFF35F8F62B67047F80A0020F40A00208F
:10626000FF23002110B504000370FC3B41708170D6
:10627000C170017143710C2208300AF009FD200041
:1062800010BD000001220B0010B5134008D00D4BCB
:106290001A70042343708368002B00D0984710BD08
:1062A0000222114204D007490A704370C368F3E721
:1062B00004231942F3D0034A137003334370036974
:1062C000EAE7C0464E48004110B5FFF79BFF0C4B74
:1062D0001B8C1B071B0F0B2B0FD80A4A99008858E1
:1062E00000280AD00F2408490A78A24313430B70F0
:1062F000064B1978C9B2FFF7C5FFFFF79BFF10BD2A
:1063000000480041FC0A00203F4800414E4800413F
:10631000F8B500230278050018000B2A77D93C4E07
:106320002B702B780B2B07D801229A403168114231
:1063300004D001332B70F4E7012068E0FFF762FF1F
:106340003768344C002F2BD12022334B3348596906
:106350000A435A611022D9690A43DA61022223886A
:106360003900934323802388013A134323802C4B25
:106370006063BF32A3630AF08BFCC0223900284857
:106380000AF086FC4022C120264B80002380264B49
:1063900026491A601A581140C02212040A431A50A2
:1063A00001231A00297830688A40024332600F26A0
:1063B0001F4A880085501F4831400278B2430A4383
:1063C000027002201C4A1178814311701178194320
:1063D0001170297822698B409A43226160223F2103
:1063E000636C934363642A79636C0A401349120215
:1063F0000B400321134363646A79636C0A401049BC
:1064000092050B4013436364FFF714FF0020F8BDAF
:10641000F00A00200048004100040040300A00203B
:1064200070090020020F000000E100E0FFFF00FF04
:10643000FC0A00203F48004140480041FFC0FFFFE8
:10644000FFFF3FFF70B50400FFF7DCFE63785BB22F
:106450001D00062B30D0217802250B292CD8A378DB
:106460000135002B28D0164B0A019B185B88002BA6
:1064700022D0A3685A1E9341E268DBB2002A01D001
:10648000022213432269002A01D004221343062268
:1064900062700F240B48214002780025A2430A4372
:1064A0000270094A137007225340084A13700223EE
:1064B000074A11780B431370FFF7BCFE280070BD2C
:1064C000300A00203F4800414D4800414C480041FF
:1064D00040480041023292001150704770B50500EB
:1064E000297103780C000B2B14D8FFF78BFE297849
:1064F0000F25094829400378084AAB430B433F2145
:106500000370536C0C40064924020B401C43546436
:10651000FFF790FE70BDC0463F4800410048004173
:10652000FFC0FFFF70B50500697103780C000B2BED
:1065300014D8FFF767FE29780F250948294003780A
:10654000084AAB430B4303210370536C0C400649CC
:10655000A4050B401C435464FFF76CFE70BDC0469D
:106560003F48004100480041FFFF3FFFF0B587B0C2
:1065700001930CAB1E780DAB1B78050002930EAB9C
:106580001B780078039310AB049105921F780B28B9
:1065900002D9002007B0F0BD6B78062BF9D0AB789C
:1065A000002B00D178E0102108000AF03BFB002806
:1065B000EFD02B783A4A1B019B181A00D1680029AA
:1065C00004D0D1688B4201D0D268F7E7D0600123B4
:1065D0000221AB709E4203D04918022E00D0190050
:1065E000062402881A4302800288A243028002889D
:1065F0001234A2430280153C02882640294C360200
:10660000224016430680029E0288274C1E402240EC
:10661000B60216430680039E0288244C1E40224088
:10662000F602164306800288214E3B4032401B038F
:106630001343072203800F9B1A4003885203DB0495
:10664000DB0C134303806B469B884380049B4360B1
:10665000029B002B08D0019B42684B43002F01D0C6
:106660000F9CA340D3184360059B8360039B002BC2
:1066700008D0019C4C438168002F01D10F9B9C40A6
:106680000C1984600023EA789A4203D02B78044ADC
:106690001B019B18C3607DE7014B0001C01896E702
:1066A000300A0020FFFCFFFFFFFBFFFFFFF7FFFFAB
:1066B000FFEFFFFF30B50C880220A405A40F012CCA
:1066C00003D00018022C00D00338039C002C01D00A
:1066D000A4B24C80002A0ED04A600A8852050AD51E
:1066E0000A88D20419D54A880C884243640BA24018
:1066F0004D6852194A60002B0ED08B600B881B0529
:106700000AD50B88DB040DD44B880A885843520BFA
:1067100090408C680019886030BD4A884C684243BC
:106720001219E7E74A888B685043C018F3E7000066
:106730008378C170002B11D00378094A1B019B1884
:106740001A00D068002804D0D068834201D0D268F3
:10675000F7E70020814200D01800D0607047C046A3
:10676000300A002010B5024B1B68984710BDC04688
:10677000F43F0000064A074B126810B59A4202D84F
:10678000FFF7F0FF10BD044B08001B689847F9E7BE
:10679000FC3F000001000100E83F0000044B10B581
:1067A000186801213A30FF30FFF7E4FF10BDC04602
:1067B00068090020044B10B5186802213A30FF30F8
:1067C000FFF7D8FF10BDC0466809002010B5064885
:1067D00007F068FE0121192008F0D6FE01211920DA
:1067E00008F01EFF10BDC04648140020F7B5002673
:1067F0006B461D4F5E711E71019A04001B493800E3
:1068000007F078FE3100192008F00AFF1023013B41
:10681000FDD10121380007F09DFE0121050019205E
:1068200008F0FEFE380007F081FE01203100104E16
:106830002F000F414A00A35A07420CD10D4FBB4213
:1068400002D80133A35202E0B34200D1A052013179
:106850000829EDD1F7BD002BF9D0B34201D10023B7
:10686000F0E701235B42EDE748140020001BB7006E
:10687000FFFF0000FDFF00004900085A01384342B5
:106880005841C0B2704700004900034B085AC01875
:1068900043425841C0B270470100FFFF49000B5A04
:1068A00001329A1A50425041C0B27047490010B5A7
:1068B000085A012A08D800230138094A80B28242C6
:1068C0005B41DBB2180010BD064900238842F9D0B5
:1068D00011000AF07DF88BB2013B59424B41F0E7C1
:1068E000FDFF0000FFFF0000024A1368022BFCD9E5
:1068F0007047C0463C00002010B50400034B08332D
:10690000036002F089FB200010BDC0466416010040
:1069100010B50400FFF7F0FF200008F06DFB200029
:1069200010BD0000064B1A6801321A601B68012B6B
:1069300005D88023034A9B04516C0B435364704772
:106940003C0000200048004110B50100014807F05C
:1069500001FE10BD48140020054B1B68022B05D812
:106960008023044A9B04516C0B4353647047C04618
:106970003C0000200048004170B504000E001500E6
:106980008021A02203F0CAF8044BE662083323609A
:10699000002325632000237470BDC04664160100E7
:1069A000104B10B5C3610362802380221B04036374
:1069B000D2030D4BC262D96F04000A43DA67016B40
:1069C000DA6F0A480A43DA6707F06CFD084B094A98
:1069D000E16A1A6000221A715A71E26913688B43E6
:1069E000136010BD9044004104440041481400204D
:1069F0003C0B002000366E0173B5174C2368002B4A
:106A0000FCD0164E164D5200009200230A002800BA
:106A10003168FFF74FFEFFF7F5FB23681148013B94
:106A200023600F2403782A78A34322401343037082
:106A300080230D499B044A6C13434B640B4B1C7819
:106A4000FFF7F8FB3368A407DB68E40F336002D17B
:106A50002800FFF7F7FC73BD3C000020380B002036
:106A6000440B00203F48004100480041404800419D
:106A7000026A016B13680B431360C269C16A136831
:106A80008B4313607047026A016B13688B4313607A
:106A9000C269C16A13688B4313607047C269C16AD7
:106AA00013680B431360704770B505000E00094C66
:106AB000094B200006CB07F01DFD2800FFF7E3FF80
:106AC0003000FFF741FF2800FFF7E8FF200007F044
:106AD0002DFD70BD481400203C0B00204B1E994139
:106AE00010B52031FFF7E0FF10BD000070B50500C4
:106AF0000E00094C094B200006CB07F0FBFC2800D8
:106B0000FFF7B6FF3000FFF71FFF2800FFF7C6FFB3
:106B1000200007F00BFD70BD481400203C0B002046
:106B2000F7B504000F001E002A2108AB1D78019262
:106B3000FFF7BAFF20000021FFF7D8FF390020003F
:106B4000FFF7D4FF20000021FFF7D0FF3100200025
:106B5000FFF7CCFF20002B21FFF7A6FF200000212C
:106B6000FFF7C4FF01992000FFF7C0FF20000021BC
:106B7000FFF7BCFF29002000FFF7B8FF2C21200001
:106B8000FFF792FFF7BD00000023F0B50D0085B0C0
:106B900002AA1C49537113710600039A1A48029104
:106BA00007F0A8FC2F786C1C013FFFB23000FF2FCC
:106BB00020D0FFF768FF2078FFF7C6FEA51C63789A
:106BC0007F2430000193FFF753FF019B1C402C19D9
:106BD000A54204D02878FFF7B7FE0135F8E76B46E9
:106BE0001B792C005BB2002BDEDA2878013408F028
:106BF0008BF9D9E7FFF752FF034807F097FC05B080
:106C0000F0BDC046001BB70048140020F0B587B0A7
:106C10000400FFF7C5FE2B4B1B785B0603D42A4903
:106C20002000FFF7B1FF20002849FFF7ADFF20004B
:106C30003621FFF739FF012620000024C021FFF78D
:106C400055FF234D0A212800FFF748FC28000221A8
:106C5000FFF768FC01212800FFF76AFD2800FFF715
:106C600057FB23002100049403940294019600949E
:106C7000184A2800FFF77AFC1822174F21003860C5
:106C8000038813430380134A23000494039402945B
:106C9000019600942800FFF769FC182278600388A9
:106CA0000E49134303803A680D4B28001A603200E6
:106CB000FFF710FC02220B492800FFF70BFC07B07E
:106CC000F0BDC046380400405C160100F315010019
:106CD000440B0020281800422C0B002025690000DE
:106CE000380B002059690000F0B585B002AF3D8C2B
:106CF00094466E003200040068460832D208D20082
:106D0000821A954602AA7A6000223B60B24206D0FF
:106D10003B68985A7B6840BA98520232F6E763465D
:106D2000C9B2DAB2501C4B1E5B19C0B20090DBB284
:106D30002000FFF7F5FE0C4E0C4B300006CB07F0A1
:106D4000D9FB2000FFF794FE2A0079682000FFF7A6
:106D500053FEFFF7C9FD2000FFF7A0FE300007F04B
:106D6000E5FBBD46F7BDC046481400203C0B0020A3
:106D700073B5040000292ADB0C20235E8B4226DD3C
:106D8000002A24DB0E20235E934220DDD2B2C9B25A
:106D9000501C4B1CC0B2DBB200902000FFF7C0FEBD
:106DA0000B4D0C4B280006CB07F0A4FB2000FFF78F
:106DB0005FFE094E3088000AFFF7C6FD3078FFF706
:106DC000C3FD2000FFF76AFE280007F0AFFB73BD8C
:106DD000481400203C0B00206C0B0020F0B505008F
:106DE0001C000C202B5E85B08B4231DD0E202B5E0B
:106DF00093422DDD1019984201DD9C1A24B2D2B2C3
:106E0000531E1B19C9B2DBB2009328000B00FFF719
:106E100087FE104B104E1B8830001F0ADBB2039315
:106E20000E4B06CB07F066FB2800FFF721FE013C66
:106E300024B2631C06D03800FFF786FD0398FFF7E5
:106E400083FDF4E72800FFF729FE300007F06EFB12
:106E500005B0F0BD6C0B0020481400203C0B002056
:106E6000F0B585B01F000AAB050000241C5F0C23A1
:106E7000C05E88423EDD0E26AB5F93423ADDCE19FE
:106E8000864201DD471A3FB21019984201DD9C1A73
:106E900024B2D2B2C9B2501E4B1E0019C0B2DB19C7
:106EA000DBB200902800FFF73BFE134B13481B8812
:106EB0001A0ADBB20393124B029206CB07F01AFBBD
:106EC0002800FFF7D5FD002C0EDD3E00002E08DD6A
:106ED0000298FFF739FD013E0398FFF735FD36B202
:106EE000F4E7013C24B2EEE72800FFF7D7FD0348A2
:106EF00007F01CFB05B0F0BD6C0B0020481400200F
:106F00003C0B0020F0B505001C000C202B5E85B06A
:106F10008B4230DD0E26A85F90422CDD0819984286
:106F200001DD5C1A24B2C9B24B1ED2B21B19DBB20E
:106F300000922800FFF7F4FD104B114E1B88300023
:106F40001F0ADBB203930F4B06CB07F0D3FA2800DE
:106F5000FFF78EFD013C24B2631C06D03800FFF71A
:106F6000F3FC0398FFF7F0FCF4E72800FFF796FD29
:106F7000300007F0DBFA05B0F0BDC0466C0B002016
:106F8000481400203C0B00205343F0B503251C009F
:106F9000DB172B401B19164C0F26256800249B106D
:106FA0005B0092B29208C918A3B29A421FD963003B
:106FB000CB5A01341F1137407F007F5B7FBA0780B7
:106FC00047801F0037407F007F5B7FBA8780C78084
:106FD0001F0B1B1233407F005B007F5B5B5B7FBA44
:106FE0005BBA078147818381C3811030DCE7F0BD44
:106FF0004000002070B504000D003621FFF754FD5D
:107000006574032D0AD8280009F048FC02091017FE
:10701000C0212000FFF76AFD0B4BE36070BDA0218B
:107020002000FFF763FD094BE360F7E70021200034
:10703000FFF75CFD044BE360F0E760212000FFF701
:1070400055FD024BE360E9E78000A000A00080004E
:10705000407C704710B50548FFF702F9044B054A1C
:107060001A6000225A711A7110BDC046440B0020EC
:107070003C0B002000093D00F0B51E008DB002AFB2
:10708000040018003A620D0003F002FC0C22B35E0B
:10709000002B00D197E00E21725EBA61002A00D168
:1070A00091E0B27A012A00D090E00C21625E7A620F
:1070B0009A4200D08AE00E22A35EBA69934200D0C1
:1070C00084E06B466A46BB607B6A00255B00083340
:1070D000DB08DB00D21A954602AA3A626A46D31A46
:1070E0009D46BA6902AB013AD2B27B617B6A0092DB
:1070F0000022013BDBB211002000FFF711FD374BEE
:10710000374806CB07F0F6F92000FFF7B1FCBB8C3F
:107110003B619B08FB60BB699D424ADA032100206A
:107120007A6A6A43D3170B409B182E4A9B10126849
:1071300031695B009446CB183A6A7B60F96883B288
:10714000994226D979684300CB5A0130FB61191165
:107150000F23194063464900C95AFB6949BA118097
:107160000F21194063464900C95AFB6949BA518049
:10717000190B63464900C95AFB6949BA91800F212E
:107180001B120B4061465B005B5A5BBAD38008322E
:10719000D4E73A69396A2000FFF72EFC124A1368D7
:1071A000012BFCD93B6A7A690135ADB23A627B6149
:1071B000B1E7FFF799FB2000FFF770FC084807F0E4
:1071C000B5F9BB689D46BD460BB0F0BD33003A6AC9
:1071D0002900200002F04CF8F5E7C0463C0B0020E7
:1071E00048140020400000203C000020F0B50400BE
:1071F0008BB002AF7A60FB613823FE5E3C22BB5E3F
:10720000F8697B61B96003F043FB0C22A35EBA68A6
:10721000934230DBF11772184A40B968CA422AD447
:107220000E22A15E7A68914225DB7A69D017121886
:1072300042407868C2421ED4002E1CD07A69002ACF
:1072400019D0FA690C20125EBA61002A13D0FA69CB
:107250000E20125E3A61002A0DD0BA6996420DD115
:107260007A693869824209D123687A685D6BB968A6
:10727000FB692000A847BD4609B0F0BDBA695200BD
:10728000964200D08CE03A6978695200904200D072
:1072900086E0B34200D083E0814200D080E06A46BD
:1072A00068463A60BA69013992000832D208D200C1
:1072B000801A8546821A02AD954602AAFA6000221B
:1072C000C9B2013BDBB2009120001100FFF728FC9E
:1072D000384B394806CB07F00DF92000FFF7C8FB03
:1072E000FB699B7A002B38D11E003B69B34229DD34
:1072F0000023B86970437861BA699A420EDD7A69F1
:10730000F8699A1800695200125A990052BAB86086
:107310000133681842809BB26A52EDE7A2892900C6
:107320002000FFF769FBA28929002000FFF764FB1A
:10733000224A1368002BFCD02B000136FD68B6B240
:10734000FB60D2E7FFF7D0FA2000FFF7A7FB1A484F
:1073500007F0ECF83B689D468DE7012B1ED1002617
:107360003B69B342EEDDF9693300BA690969280067
:10737000FFF70AFEA28929002000FFF73DFBA28942
:1073800029002000FFF738FB0C4A1368002BFCD0C3
:107390002B000136FD68B6B2FB60E1E73B689D4615
:1073A0007B6900960193FB697A68B968200001F057
:1073B000FDFB60E73C0B0020481400203C0000204F
:1073C00010B54369C91804F085FE10BD37B50C002F
:1073D00004F0ADF8030401AD1B0E28706B700002C1
:1073E0002368010EA9701B682000984723686978FC
:1073F0001B6820009847236829781B68200098475D
:1074000037BD8B7A012B09D1033303708B8903813C
:10741000CB89828143810023437070470B89002B05
:1074200002D118330370F1E720230370EEE7000068
:107430000023F0B583700B000C00103389B00021DD
:10744000070018000193160004F044FE200004F029
:1074500083F8684B984242D104210198FFF7B0FFAE
:10746000200004F083F87860200004F07FF8F870C2
:10747000200004F07BF80290200004F077F83881B7
:10748000B081200004F072F8051E2BDB00237B7016
:10749000200004F061F8012821D1200004F05CF8FC
:1074A000C0B23870042803D0F7231838184216D118
:1074B0000E22B35E002B19D07B810E23F15E2800D3
:1074C00009F08AFA80B2B881B082200004F04EF848
:1074D0003B78202B4CD1002843D0032817D038000C
:1074E00009B0F0BD012345427B70D1E701237D81C6
:1074F000F581BB81B382E8E70123B3720023737285
:10750000F978019804F0E6FD0123BB70E7E7142148
:107510000198FFF755FF3B003D0012330E350293F3
:10752000200004F023F8FF23184213D1FF231B028D
:10753000184212D1FF231B04184210D1000E03235E
:10754000002808D1029B01359D42E9D10023B37286
:107550003381D5E700232B70F4E70123FBE70223F7
:10756000F9E781235B00FB81FF33FF333B82EDE7CB
:107570000028B4D1042BF4D10C210198FFF720FF8F
:10758000200003F0F3FF0299C5B20E31019804F018
:10759000A1FD02972B1C102D00D91023DBB2FB1884
:1075A0000593059B029A9342A6D023682000DB68CE
:1075B000984723680390DB6820009847236804906D
:1075C000DB682000984723680500DB6820009847A7
:1075D0006A46127C07AB5A706A46127B1D709A701D
:1075E000079803F095FF01F0CBFC029B98730133E1
:1075F0000293D6E7424D000080787047406870479C
:10760000100070B50D0014000621103004F062FD6A
:107610002800210003F0B2FF70BD027803899800B2
:10762000042A03D11F30401180007047182AFCD172
:10763000581C032358439843F7E70000F0B54389EB
:10764000828985B05A43037805000C000292042B0E
:1076500000D191E00026202B00D091E05C33009314
:10766000009BB700FF180E37FFB2EF702800FFF73E
:10767000D4FF029B002143430193FB1827001037DE
:107680003800039304F026FD02224249380004F03A
:107690007FFF2100039803F071FF2100002003F019
:1076A0006DFFE878210003F069FF2100009803F0E6
:1076B00065FF2889210003F061FF2100029803F093
:1076C0005DFF2100012003F062FF2100287803F014
:1076D0005EFF2B782100202B55D1032003F04EFFB5
:1076E0002100019803F04AFF2100002003F046FF2B
:1076F0002100002003F042FF2100300003F03EFF94
:107700002100301E43D003F039FF0027224B7A00BE
:107710001B682100D05AFFF759FE236800211B681F
:10772000200001379847FBB2B342EFD32B78202BD0
:107730001FD1FF202100000403F020FFFF202100C3
:10774000000203F01BFF2100FF2003F017FFFF20C2
:107750002100000603F012FF2100104803F00EFF85
:107760001025013D21000020EDB203F007FF002DA0
:10777000F7D1019805B0F0BD2823102600936FE7DC
:10778000282300936CE7002003F0F8FEA8E703F03D
:10779000F5FECBE7BC1601004000002042475273C3
:1077A000F0B58BB01700040003910193FFF735FF8C
:1077B000109D06002B00103318003900049304F0CC
:1077C00089FC2278F6B22389042A3AD101335B106E
:1077D000F31A0026DBB205936289B24274D9238979
:1077E000617801335B1000291DD07343039AD318CD
:1077F00002930027238901335B109F421ADA2B681A
:107800002800DB6898470F220F2302400011184020
:107810002018837BA218927B1B011343029AD35535
:107820000137BFB2E6E7013A921B5343039AD318DC
:107830000293DEE7059904980136FFF7C1FDB6B261
:10784000CAE7032200275343F31ADBB20793628986
:10785000BA4239D961782389002938D07B43039A09
:107860005B00D318059300230293228902992378A1
:107870008A425BD9182B32D12B682800DB689847E5
:107880002B6809AEB070DB68280098472B687070D1
:10789000DB6828009847FF233070F37009ABDA7873
:1078A000802A36D91A7808A90A705A784A709B78C3
:1078B0008B70089803F02CFE019B002B20D0834294
:1078C0001ED101339BB2019301980BB0F0BD013A78
:1078D000D21B5343039A5B00D3180593C3E72300DD
:1078E000260012330E3606932B682800DB68984773
:1078F000337809AAD054069B0136B342F4D1CDE7C0
:10790000029B059A5B009852029B01339BB2029343
:10791000ABE7019B002B06D06946029B059A89883C
:107920005B009952F0E701230193CDE7202B03D0B0
:1079300007990498FFF744FD0137BFB287E7F7B511
:10794000040015001E000F00FFF767FE62896378D0
:107950004243002B0AD07A43E078089B82180093B8
:10796000290033002000FFF71BFFFEBDA089C71BC5
:10797000013FF0E7F0B5060087B01C0002910592C8
:10798000FFF74BFE73893589013BDBB201936B46F0
:107990001B79C0B25BB200933378042B31D101352F
:1079A0006D10401BC3B203932A00FF23009E1A40B0
:1079B00056430192029A04939619009B002B61DBB7
:1079C0003700049B2B409B190293029B9F4206D0D9
:1079D000236839781B68200098470137F5E7039F33
:1079E000013FFFB2FF2F05D0236800211B68200054
:1079F0009847F5E7009B013B5BB20093019BF61AA9
:107A0000DBE7032300275D43401BC3B20493019BC4
:107A1000DB1B1B0636D40025009B3289DB1B53433E
:107A20005B000393338932789D421CDA02996B0024
:107A3000CB180399585A182A05D12100FFF7C6FC24
:107A40000135EDB2EEE7059B2100984203D10020FD
:107A500003F094FDF4E7FFF7B9FC2368FF211B68EE
:107A600020009847ECE7182A0AD1049D013DEDB2A9
:107A7000FF2D05D0236800211B6820009847F5E7FB
:107A80000137C4E707B0F0BDF8B504000F001500DA
:107A90001E00FFF7C2FDA189CF1B6189013F794319
:107AA0004143E07809180698103004F013FB3200C7
:107AB0002900069B2000FFF75DFFF8BD13B56B465C
:107AC000DC1D0122210004F01DFA012801D12078DB
:107AD00016BD01204042FBE7002303824360FA23E6
:107AE0009B008360014B03607047C046B80F0100E4
:107AF00010B50400FFF7F0FF230000223833200008
:107B00001A7010BD70B504000D00FFF7E5FF656346
:107B1000200070BD383000787047406B401A4142F9
:107B20004841C0B27047000070B506000C00150057
:107B3000012B05D980211943236820001B68984731
:107B4000736B22681B891268002B05D0AB4203D1EE
:107B50007F212000904770BD0A4B186800235E000B
:107B6000865BD9B2AE4202D120009047F3E70133E1
:107B7000102BF4D18021200090472100280003F031
:107B800006FDE8E740000020F8B50E000C000500F7
:107B900010360021300004F09DFA2100254803F042
:107BA000F6FC2100002003F0F2FC236800211B6892
:107BB000200098476B6B2100988903F0E8FC6B6B01
:107BC0002100D88903F0E3FC6B6B2100988A03F055
:107BD000DEFC6B6B20009F7A791E4B425941236873
:107BE000C9B21B6898476B6B012F1DD1197A2368A6
:107BF00020001B6898476B6B2000597A23681B682C
:107C000098470E2330006B87022104F063FA688FD7
:107C1000210003F0BCFC236820005B699847698F52
:107C2000300004F057FAF8BD1889210003F0AFFCCA
:107C3000E7E7C0464756000010B50100FFF7A4FF74
:107C400010BD0000F0B591B000AF050008000E00B7
:107C500009F05CF984B223006A460833DB08DB00D4
:107C6000D31A9D46310068467B6009F047F923002E
:107C70002E216B441A1F1170DA1E193111709A1ED1
:107C8000063111705622013B1A7000237A681B4E90
:107C9000135569463000FCF756FF002823D10C230A
:107CA000F818FFF719FF08221423BA18D418310066
:107CB0007A68134B200004F00EFB2B00103307CC26
:107CC00007C307CC07C307CC07C33B696B607B695D
:107CD000AB60BB69EB602B7C002B0AD02800FFF760
:107CE000ABFF012006E06946300004F045FB0028A8
:107CF000D5D10020BD4611B0F0BDC04628090020F6
:107D000002420000F7B50700406B0E00847A056957
:107D1000012C2BD102F03EFD2F7821000190641B35
:107D20006319019A9BB29A4215D96B78BB4205D16F
:107D3000FE2903D8013189B20135F1E73368C9B2B0
:107D40001B6830009847336839001B68300098473B
:107D50006F780121F0E73368C9B21B68300098479B
:107D6000336839001B6830009847F7BD02F012FDF8
:107D70000130401083B2019301231C002A88023590
:107D800001998C4212D22988914207D17E2B05D8C5
:107D900001339BB20134A4B20235F1E7DBB231000A
:107DA0003800FFF7C1FE2A880123F3E7DBB2310078
:107DB0003800FFF7B9FED8E7F0B5170093B004001C
:107DC000406B039102F03DFD2E4D39002800FCF779
:107DD000BAFE002834D105AE3000FFF77DFE2A4BF5
:107DE0003A00290009A804F076FA337C002B2DD044
:107DF00031002000FFF7C8FE0027618F09A804F0BA
:107E000069F90025626B938AAB4225D900943B0047
:107E1000126929000398FFF792FDB84201D00028AB
:107E200016D1636B9A7A002A03D118498F4211D078
:107E30001F81310020000135FFF764FFADB2E1E79B
:107E40003900280004F098FA0028C4D113B0F0BD1E
:107E50000700D2E71A81ECE7937A002B08D10C21B6
:107E600009A804F037F9636B3100188903F08FFB20
:107E7000A121039822000906FFF7C2FB09A804F01C
:107E800023FAE3E72809002002420000FFFF000078
:107E9000F0B504009BB000AF0E001500FFF71CFE0C
:107EA0002300002238331A7001236663B382102640
:107EB0002333BA19D018FFF70FFE3423BA19D61896
:107EC00073492A00734B300004F005FA2300103385
:107ED00007CE07C307CE07C307CE07C32600BB6B79
:107EE00010366360FB6BFB60A3603B6CE360237C3C
:107EF000002B05D1626B93822000BD461BB0F0BD04
:107F00000021300004F0E6F8200003F025FB624B6E
:107F100098426FD16B467B601423626BF818210086
:107F2000FFF786FA1423F818FFF766FB002805D13F
:107F3000300004F0C9F97B689D46DDE7280008F0B1
:107F4000E5FF6A4683B2BB600833DB08DB00D31A67
:107F50009D4629006846FB6008F0D0FF2E21BB68D3
:107F60006B441A1F1170DA1E193111709A1E0631F6
:107F7000117056220021013B1A70FB68BA689954AF
:107F80001423F818FFF73AFB000EA1286FD0142332
:107F9000FA68F9182000FFF70FFF1025300004F0F1
:107FA00093F924237A19D018FFF796FD34237A1910
:107FB000D5183749FA68374B280004F08CF92300AC
:107FC000103307CD07C307CD07C307CD07C3BB6B6E
:107FD0006360FB6BFB60A3603B6CE360237C002B66
:107FE000A9D00021300004F075F8200003F0B4FAA5
:107FF0007B689D46294B984200D07DE7200003F026
:10800000ABFA636A6087591C300004F063F8200003
:1080100003F0A2FA636B9881200003F09DFA656B70
:10802000E881200003F098FAA8823000FFF746FDAF
:108030000123656B1840A87220D03000FFF73EFD89
:10804000636B18723000FFF739FD431E9841636B74
:108050005872618F300004F03DF8606B02F0F1FB64
:10806000626B0123116900290DD1938244E76946AF
:108070000748FCF768FD002889D08EE7200003F050
:108080006BFA2881E5E722003832137034E7C046E6
:108090002809002002420000424D0000475600001F
:1080A00010B50100FFF72EFE10BD0000F0B507006F
:1080B000406B87B003690093837A012B1CD102F0D7
:1080C00069FB002401903E0010363000FFF7F6FCFB
:1080D00005003000FFF7F2FCEDB26519C0B2ADB299
:1080E000A54204D0009B18550134A4B2F8E7019BC7
:1080F0009C42E8D307B0F0BD02F04CFB01304310C6
:1081000001936B4600249B880393334B1B680293B7
:1081100004ABDC803D0010352800FFF7CFFC03B234
:108120000133E7D0C6B2802E10D104AB9E1D0222CF
:108130003100280003F0E6FE328800996300013424
:108140005A52A4B2039B9C42E4D3D3E7030614D44F
:10815000009B62009A187F2E05D17B6B1B891380D0
:108160000134A4B2EEE7331C0F2E00D90F23DBB28B
:1081700002995B005B5A1380F2E77F2328001E40C0
:10818000FFF79CFC04ABC0B2991D802813D10222DA
:10819000280003F0B7FE019BA619B342AADB04AB8B
:1081A000B6B2991DB442CDD00A880098630001345C
:1081B0001A52A4B2F6E77F2803D17B6B1B890B8090
:1081C000E9E7031C0F2800D90F23DBB2029A5B00FA
:1081D0009A5A04ABDA80DEE74000002070B50E004A
:1081E0000500418F103003F075FF002E07D00024EA
:1081F00001342800A4B2FFF759FFA642F8D170BDA0
:10820000F0B5A1B007000E0004920393269C002B4A
:1082100038D0AE49200001F00DFC236820005D6AD3
:1082200001F00CFD0590200001F01AFD00220090E5
:108230001100059B2000A847236820005B6A059376
:1082400001F0FCFC0500200001F00AFD01220238CB
:10825000023D00B22BB211000090059D2000A847FE
:108260009A4A9B49200001F01BFC0022994B9A4935
:108270001A809A4B01321A80994B013220001A70F1
:1082800006F07CFA3B00103309211800059303F037
:1082900021FF0498390003F07AF90598002E02D1E5
:1082A00004F012F815E013AD03F0C4FF2800FFF747
:1082B00013FC8C4B32008C4917A804F00CF82B7C73
:1082C000002B08D1039B002B03D08849200006F027
:1082D00055FA21B0F0BD049A796B0BA8FFF791F81D
:1082E00029000BA8FFF7AAF9039B0890002B17D0D1
:1082F0007F49200006F030FA764B7E491B7820003B
:108300000693764B1B78079306F026FA089B0A2201
:10831000990A200006F083FA7749200006F02EFA29
:108320000025089B9D4239D213A9002003F026F9AD
:10833000ABB20993002B2FD1039B002B2CD06A46A4
:10834000644B128B62491A806A46644B928B200000
:108350001A805E4A01F0A4FB0A22A90A200006F056
:108360006AFA5A49200001F065FB236820009B6AE5
:10837000099301F075FC0600200001F05FFC0899EC
:10838000684308F09FFA08210A3E03B232B2009116
:108390002000A9B2099EB0470435C2E7039B002B19
:1083A00034D0236820009E6A01F05AFC05002000AA
:1083B00001F044FC08210A3D03002AB2009120008C
:1083C0000021B047414A4249200001F069FB6B4659
:1083D000404E1B8B414D33806B469B8B0A222B807A
:1083E000089B2000990A06F026FA4449200006F06E
:1083F000B3F933783F4906932B782000079306F0B2
:10840000ABF90A220499200006F005FA0021380091
:10841000FFF7E4FE0025ABB20993049B9D4235D0E3
:10842000039B002B24D06A462A4B128B691C1A80AE
:108430006A462A4B928B20001A800A2206F0EBF93A
:10844000236820009B6A089301F00AFC06002000C4
:1084500001F0F4FB0499684308F0BEFA32000821E9
:10846000083A03B2009112B200212000089EB047E2
:108470003800FFF71BFE7A6B13A91389009112696C
:1084800009990BA8FFF700FB0135C4E7039B002BFC
:1084900011D0236820009E6A01F0E2FB0500200055
:1084A00001F0CCFB2A000821083A0300009112B227
:1084B00000212000B047A12113AA09060BA8FFF74D
:1084C0009FF817A803F000FF0598E9E668CC0000C4
:1084D000FFFF0000720B0020BF160100740B00208C
:1084E0007C0B00200242000028090020CF1601006A
:1084F000E4160100F6160100FE1601000117010046
:1085000010B5094B04000833036043689B8A002BB5
:1085100004D00069002801D006F06EFD200002F0B2
:1085200081F8200010BDC0461817010010B50400E6
:10853000FFF7E6FF200006F05FFD200010BD000001
:1085400010B5040002F062F8034B200008332360EA
:108550000023236110BDC0461817010070B5040048
:108560003C200E0006F044FD050032006168FFF774
:108570008FFC25612800FFF7CDFA63689B8A0028ED
:1085800006D1002B03D1206906F036FD266170BDAF
:10859000012BFCD12069FFF789FD206906F02CFD35
:1085A00000232361F3E770B5436804009B8A002B26
:1085B0000ED10169FFF7D2FF2069FFF7ABFA051E64
:1085C00006D1206906F018FD0122636825619A82B0
:1085D00070BD10B50400FFF7E6FF2069002801D048
:1085E000FFF764FD10BD70B504000D00FFF7DBFF61
:1085F0002069002805D02900FFF7F0FD2069FFF76A
:1086000055FD70BD70B50D0004000430FFF770FA21
:108610002A0023001032143343CA43C343CA43C35E
:1086200043CA43C36B682000A360AB68E360EB6898
:1086300023616B6BA3632B0038331A7823003C3320
:108640001A706B8FA21CE3870023D387236070BD51
:1086500010B504000068002801D008F0F7FA2000E7
:1086600010BD10B5040004300234FFF719FDE38F8C
:108670000133E38710BD000013B50B000549821CD0
:108680000968D28F041D009101682000FFF7B8FD32
:1086900013BDC046600B002070B505008EB0080009
:1086A0000C0008F033FC013008F0C6FA2100286005
:1086B000060008F023FCFA2300259B0003930A4BD5
:1086C00001AC320001932582084B094905A80295A7
:1086D00003F001FE29002000FBF74FFD05A803F081
:1086E000F3FD0EB070BDC046B80F0100024200009D
:1086F00028090020F0B51F4D93B02B6806000C0030
:10870000002B08D06B68002B04D000230093009846
:1087100013B0F0BD0123184F210038000193FCF77E
:1087200012FA00281FD1310003A8FFF7EBF921004E
:1087300003A8FFF787FA00900028E6D0442006F04F
:1087400057FC03A90600FFF75DFF21003800FCF786
:10875000FAF9002803D121003000FFF79DFF019BAB
:108760009B00EE50D3E72100380003F005FE0028FF
:10877000D9D1CAE7580B00202809002070B5154D43
:10878000040028680E00002803D16868002808D17A
:1087900070BD04302100FFF7C0F90028F5D0002497
:1087A00006E021000430FFF7B8F901240028EFD0DB
:1087B000A40031002859FFF75FFF2E59002E05D085
:1087C0003000FFF745FF300006F016FC00232B5168
:1087D000DEE7C046580B002070B51B4EA0B0050068
:1087E00030000C00FCF7AFF9002822D129006846C0
:1087F000FFF788F921006846FFF724FA051E1ED00E
:1088000069460FA8FFF7FEFE21003000FCF79BF938
:10881000002803D121000FA8FFF73EFF0FA8FFF7A4
:1088200020FF0FA80021FFF727FF0FA8FFF710FF79
:1088300006E02100300003F09FFD0028D6D100257E
:10884000280020B070BDC0462809002010B5064C95
:108850002068002801D0FFF704FF6068002801D0DD
:10886000FFF7FFFE10BDC046580B0020014B1860FB
:108870007047C046600B0020F7B5150004000E00DD
:10888000009308AB00229B5E2A00019303681F6AD5
:10889000009BB847019B31005A1E236852191F6A7A
:1088A0002000009B12B2B84723682A003100DF691C
:1088B0002000019BB8470099236801398919DF69B5
:1088C0002A0009B2019B2000B847F7BD13B5002B61
:1088D00004DA0132D2185B4212B21BB2D318013B48
:1088E00004681BB20093A4690B00A04713BD13B525
:1088F000002B04DA0131C9185B4209B21BB2CB1854
:1089000004680092013B1BB2A469A04713BDF0B5F7
:1089100005000E000C0085B002930AAB0192002204
:108920009B5E0393029BF3189C4209DA2B6821009B
:10893000DF69019A039B28000134B84724B2F1E7AC
:1089400005B0F0BD13B50E24015F0C22835E0268F2
:108950000091946A00221100A04713BDF0B58FB0BA
:108960001C0014AB1B7806005BB20A9104920893BA
:10897000012B03D103681D6C2300A847237862787C
:1089800020200C92DA1DD2080992072213400132EE
:10899000D21AD2B20D926A4612181278A11C534311
:1089A000DBB20B93002305920693069B0C9A93422D
:1089B00045D000270A9C0291099B02999F4233D21D
:1089C0000B78013707930023FFB20393099BBB4247
:1089D0000AD10D9B039A934206D10B9B1C1964B2DA
:1089E000029B01330293E7E76B461B7F5BB2002BD0
:1089F0000CDA6B4620229B5E6A4630681021525E7C
:108A00000093806A21B205003000A847079B039DB0
:108A10005B00DBB20793059B01351C19EBB264B216
:108A20000393082BD2D1DBE7059A049B9446069F5B
:108A300063445BB201370493FBB20693B5E70FB012
:108A4000F0BD0000F7B5514A0B001268002A4BD167
:108A50000A2918D14E4B4F491B7809784E4C4B438D
:108A60004E4D21882D78591809B22180002D05D04E
:108A70005B180E21415E8B4200DB22800022484BB6
:108A80001A800120FEBD0D29FBD041490E784349D3
:108A90000C78002C15D0424F424C00217D5E24788A
:108AA000AC4674430C21455E6444AC4209DD3A8017
:108AB000384A3949127800240C5F7243364912193A
:108AC0000A80374C344A07680021525E0025615FF6
:108AD0000096FE6CB0472E4B324A1B7812785343F7
:108AE00022889B182380CCE70A290BD100212C4B2C
:108AF000927A1980264B28491B7853430A889B1881
:108B00000B80BEE70D29BCD0147AA142B9D3517AAB
:108B10009942B6D31C1BE4B25168E4006418A778EC
:108B20001F4D002F2AD0E178002927D01849097855
:108B30008C461A490978002916D005216156C919B1
:108B4000674679430026AF5FC9190C26875FB94293
:108B50000ADB1149927A00268F5F3E0000272F80A2
:108B600067467A4392190A800B4A07680021525ED1
:108B70000026A95F66460096FF6CB847044A237931
:108B8000127853432A889B182B807AE7780B0020B1
:108B90007C0B0020640B0020740B00204700002099
:108BA000720B00207E0B002070470000F0B51C0007
:108BB00078239BB002AFFB187A6500229B5E06000B
:108BC000FB637C23FB1800229B5E2000BB63B9651E
:108BD00001F05EFE0C23F25EBB6D9A4230DBFB6B54
:108BE000D9175818BB6D4840C34229D40E21735E73
:108BF000796D9C468B4223DBB96BCD1749196940CF
:108C00007D6DCD421CD4FD6B002D19D0BD6B002DA8
:108C100016D00C23E55EFD650E23E55E3D64FD6B1D
:108C20002B00FD6DAB420ED1BD6B2B003D6CAB42FA
:108C300009D133687A6D5D6BB96D23003000A847A8
:108C4000BD4619B0F0BD05B27D640DB2FD62BD6DCB
:108C5000002D00DB83E05823FB181A8855421218B8
:108C60002DB212B23D65BA647A6D002A00DB86E04F
:108C70005423FB181B885A425B1812B21BB2FA64C9
:108C80003B63B27A002A00D0C2E06B466A46FB60C2
:108C90007B6C5B000833DB08DB00D31A9D4602AB1C
:108CA000BB622389BB60A37A012B08D1627A002AB8
:108CB00076D0A34A237A12685B009B5A2381FB6D0E
:108CC0005A1CD30F9B185B10FB61FA6D3B6D53432D
:108CD0003B6100237B637B6B3A6B934200DB92E04A
:108CE000FA6CF96A98183B6C584307F075FEBB6B39
:108CF00080B2002B03DA3B6C013B181A80B20025CE
:108D0000FB694343BB618E4B1B687B61FB6D434337
:108D10003B623B697B62FB6D013B7B60BA6C2BB2B3
:108D20009A4254DD796C786A07F056FEFB6B80B28C
:108D3000002B02DA7B68181A80B2A27A002A31D19D
:108D40003B6AB96AC01823694000C25A6B00CA5214
:108D5000FA6D7B6A9446634401357B62DEE7786C8A
:108D6000BD6D4019904205DD521B12B2BA6400225B
:108D70003A6579E77A6CBA6400223A6574E7FA6A70
:108D8000796D5218624506DD63465B1A1BB23B6380
:108D90000023FB6475E7FB6A3B630023FB6470E719
:108DA00023818CE7012AD3D143089C46B969236902
:108DB0005B1861465B5C104200D11B090F210B4020
:108DC00079695B005B5AB96A6A008B52C0E7482038
:108DD000BB8EFA6C7B637B6D396D9A187B6B381890
:108DE0009A18BB6D12B2591833680194008809B201
:108DF00000905B6930001D00BB6AA8477D6B0135A0
:108E00002BB27B6367E73B892381FB689D4617E7AD
:108E1000012A00D014E76B46FB60A37A002B00D137
:108E20008AE069467B6CFA610833DB08DB00CB1A09
:108E30009D4602AB3B62FB6D591CCB0F5B185B1070
:108E40007B61F96D3B6D4B43BB6100237B637B6BA7
:108E50003A6B934270DAFA6CF96A98183B6C584393
:108E600007F0BAFDBB6B80B2002B03DA3B6C013B11
:108E7000181A80B27B693A6D43433B61BB699446E3
:108E80007B620023BB62FB6D3D6A013BBB60BB6D37
:108E900063447B602822BB5EBA6C9A4230DD796CF9
:108EA000786A07F099FDFB6B80B2002B02DABB6891
:108EB000181A80B22369396942085B189B5CFA6909
:108EC000104200D11B090F2079680340B86A2A7844
:108ED0000918F86901420DD00F20824313432B700B
:108EE0000135FA6DBB6A94460133BB627B6A634409
:108EF0007B62CFE70F211B010A4013432B70F0E781
:108F00004820BB8EFA6C7B637B6D396D9A187B6B46
:108F100038189A18BB6D12B259183368019400883A
:108F200009B200905B6930001D003B6AA8477D6B69
:108F300001352BB27B638AE7FB689D4680E6C0461D
:108F400040000020F0B50F260127B44605AC4D1CAB
:108F50005B0024780978C318984210D0002C09D0FF
:108F6000664631404900895A0180297801357C40A4
:108F70000230F1E70E117600B65A0680F7E7F0BD31
:108F8000234BF0B51F68002387B05A00BA5ADEB2EF
:108F9000824239D00133102BF7D10024C300DBB259
:108FA0000725019303232600C2100012A8439A4309
:108FB000D2B203901748029204930595E3B29C46FF
:108FC0006300FA5A049BD1109943029BC9B2591A03
:108FD000CB17C918059D59401312AB43039DD2000E
:108FE000EB1ADD175B196B40CB18D1B2019A511AFD
:108FF000CA17891851405B189BB2834201D21800EE
:1090000066460134102CD9D1300007B0F0BDC046FF
:1090100040000020FFFF0000704710B50368DB6AC6
:10902000984710BDF0B597B002AF3A636822BA18FE
:1090300079630021525E7864BA646C22BA18002108
:10904000525EFA637022BA180021525E3A647422AA
:10905000BA180021525EFA62BA6FFA64917A012955
:1090600064D1827A002A00D08AE0FA6C12897A628E
:10907000FA6C527A002A50D0FA6C7C49127A09684C
:109080005200525AF96C0A81FA6B5C1C5200E30FD1
:109090001B193A623A6C5B105A43BB63BB6CB96CE8
:1090A000DB0F5B185B10D3181E000024FB6AA34281
:1090B00036DD6B466A46FB613B6ABD8F0833DB08D1
:1090C000DB00D31A9D46012202ABBB62FB6C1B691D
:1090D0009919BB6C1340654A009312682B00B86A5B
:1090E000FFF730FF3B6B3A6C796B9A18BB6CF86CEE
:1090F00059187B6C12191B680190009512B25D69BA
:1091000009B2BB6A786CA847FB69BA6B9D46944666
:109110003300634401341E00C8E7FA6C1181B3E7E1
:10912000BB8CFA6C1381BD4615B0F0BD0029FAD195
:109130007A6C957A002DF6D13C6C5A005C43BB6C7E
:10914000BA63E4186400FB6AAB42ECDD396C3A6B3D
:10915000B86C5218796BFB6CFE6C0918786C1B6943
:1091600000680196BE8F5219009640691B190600CF
:1091700012B209B2786CB047BB6B0135E418E2E774
:10918000012AD0D10133DC0FE3185B107B61BB6C8B
:10919000B96CDB0F5B185B100131BB62CB0F5B1846
:1091A0005B103B61FB6B3D6C591CCB0F5B185B107C
:1091B0003B620133FB607B697A605D43BB6AED18FB
:1091C0000023BB63FB6ABA6B9342ACDDBB6CB88E09
:1091D0003A6CC1180BB2BB61BB8F796CFB613B6B06
:1091E00009689A18BB6B8C46D2187968FB6C12B26E
:1091F0001B6908422FD06946B86AB9603969091AF3
:10920000684649195918FB680733DB08DB00C31AA5
:109210009D46481E0478002002AB3E6AB04209DC3D
:109220000E5C24017E62361134431C540130C0B2FE
:109230007C6AF2E7F96C0191F96900916146786CFA
:109240004C69B969A047BB689D46BB6B0133BB63E2
:109250007B69ED18B6E7F96C5B190191F96900912A
:109260006146786C4C69B969A047EEE74000002080
:10927000F0B58BB00890180015001E000C0001F02E
:1092800007FB089B0C229A5EA24238DB0C23F15E9E
:109290000691671833D408990E23C85EA8422EDBC6
:1092A0000E23F15E2B005B18099328D4002C28DADA
:1092B000A7B27B421BB20793069BFF18BC463FB286
:1092C000974200DD944663461AB2002D24DAAFB20D
:1092D0007B427F181BB2391C3FB29C46874200DD9F
:1092E000011C09B263460293079B0391019200930C
:1092F0000496069B2A0021000898FFF793FE0BB006
:10930000F0BD974204DD0023121B12B20793DCE785
:109310000023069A0793D8E700239C46099B8342C3
:10932000E0DD411BDDE7F0B58DB0099312AB07928C
:1093300000229B5E05000A9313AB00229B5E0998F6
:109340000B9314AB00269E5F15AB0C000027DF5F6C
:1093500001F09EFA002E28D0099B0C229B5E0893F8
:10936000002B22D00C22AB5E9C46A3421DDB089B47
:10937000DC421AD40E23E85E079B984215DB099B5A
:109380000E229B5E079ADA420FD40A9A0B990A437F
:109390000DD1089AB2420AD1BB4208D12B68079A74
:1093A0005E6B2100099B2800B0470DB0F0BD089A04
:1093B0000A99521AB24200DD32000B995B1ABB4285
:1093C00000DD3B0069460E8DA1B2002C2ADA8A1816
:1093D000741A24B2171C12B20A94624500DD674663
:1093E0003FB26A46891B079E948D09B2928B002E6C
:1093F0001FDAA61A36B2D3180B961E1C1BB2834274
:1094000000DD061C33B203930B9B099802930A9B61
:10941000121B0490009312B20197089B2800FFF7DB
:1094200001FEC2E717B23C196445DADD6246571AFD
:10943000D6E7079E1BB29E198642E4DD831A1BB253
:10944000E1E70000014B18787047C046640B00202C
:1094500010B503681B69984710BDF0B515000C00E6
:109460001F0087B00CAB00229B5E04905A1BD117E3
:1094700052184A4000923A1BD11752184A400192A2
:109480000199009A8A4205DD3A001F00130022006C
:109490002C001500BC4205DD2A001D00130022002F
:1094A0003C0017003A1B92B202925A1BD117521875
:1094B0004A4005926A460821525ED60FB61801222C
:1094C000761003929D4202DB01235B420393BC4270
:1094D0001DDC009B019A934213DD220029000498B1
:1094E000FFF7B6FF059BF61AB3B21EB2002E05DADF
:1094F000039AAD18029A2DB2D3181EB2013424B2C9
:10950000E5E72A0021000498FFF7A2FFEAE707B089
:10951000F0BDF0B515001A788BB00890D01DC008CA
:109520000490072002400392082209910398991C95
:109530005B78121A5B19D2B25BB205920793079B54
:109540009D4237D00023099C02910193019B049A0C
:10955000029993422BD2019BE6B20133DBB2019315
:109560000836E3B20F78069376B2049B019A9342D1
:109570000ED1069AE3B29A1A0599D2B2914207D156
:10958000039AD3185EB2029B340001330293DDE7E5
:109590007BB2002B04DA2AB221B20898FFF758FFF9
:1095A00001347F0064B2FFB2A642DED1EBE70135A1
:1095B0006DB2C4E70BB0F0BDF0B58BB0069202936C
:1095C00011AA10AB12781B780392070005911A4379
:1095D00006D10368069A1C6C029BA0470BB0F0BD35
:1095E000029A0025167852780192F21DD210079245
:1095F000032213400493AE42F0DD0722EB17134021
:109600005B19DB1009932A4B2B4003D5013B0F3A22
:109610001343013380225BB21A4100240892019B5C
:10962000E9B29C4241DA099A029B9B18079A62436D
:109630009B189B78089A1A4223D0049B022B23D0B4
:10964000032B29D0012B2DD1721E521A210052B2A8
:10965000039B002B0CD00120034202D0731E591A29
:1096600049B20220039B034202D0019B9A1A52B2D4
:10967000059B3800C918069B49B2D21852B2FFF7B1
:10968000E7FE013464B2CAE7019B721E511A5A1EEA
:10969000121B49B252B2DBE7019B2A00591E091B7B
:1096A00049B2D5E722002900D2E701314DB2A2E745
:1096B00007000080F0B595B01D001AAB1F789B4BDA
:1096C00004001B6807910592002B00D0A5E00C2236
:1096D000835E8B4200DC26E10E22835E059A934274
:1096E00000DC20E1924B1B787B435B18002B00DCF5
:1096F00019E1904B059A1B787B439B18002B00DCEB
:1097000011E18D4B1B78002B03D1AF2D01D9013511
:10971000EDB26BB2002B01DA203DEDB200230393D2
:10972000834B039A1B789A4200DBFCE000220692EE
:10973000039A013B9A4206D0804A6B431268039910
:109740005218D35C06936B469B89BAB20893BBB29E
:109750000B936B469B8B0993089B5343099AD31831
:109760001BB20C9300230493724B049A1B789A4209
:109770004EDA0122069B134222D06B46198A9A8A3E
:10978000012F10D15218089B099912B2591809B229
:109790002000FFF75DFE069B5B080693049B0133E8
:1097A0005BB20493E0E70B983BB241435218216847
:1097B0000093896A12B20E0020000C99B047EAE7C4
:1097C0005F4B1A885F4B19880A918A42E3D01A804E
:1097D0006B46198A9A8A012F0DD15218089B099954
:1097E00012B2591809B22000FFF732FE6A46554BF3
:1097F000128D1A80CFE70B983BB241435218216873
:109800000093896A12B20E0020000C99B047EDE770
:10981000039E013673B2039382E71A7AAD1AEDB252
:109820005A68ED001B68AD1811932B880493AB7830
:109830000C93EB7812930523EB560D930623EB560E
:109840000E93012F06D96B4634269E5F6B46382255
:109850009B5E1093BBB20A936B469B8B0993BBB282
:109860005E43099B9E19B3B2139300231D00079317
:10987000129B9D4257D26B469B8A0A9A0B93109B70
:10988000EB1853430B9AD3181BB20F93139B0893F7
:10989000002303936B461A7B079B0C99D318DBB20A
:1098A0008A4237D20722134207D1049B0499119AA6
:1098B0000133525C9BB206920493069B1B060FD5A4
:1098C000012F1BD10B9B0E9A0D999A18099B5219C7
:1098D0005918039B12B2C91809B22000FFF7B8FD4E
:1098E0000A9A069B94465B00DBB20693039B013306
:1098F0000393089B63449BB20893CBE76A463BB251
:109900002021515E22680093926A200016000F9A6F
:10991000B047E5E70C9A079B94466344DBB20135F8
:109920000793EDB2A4E715B0F0BDC046780B002058
:109930007E0B0020640B00206E0B0020680B0020C3
:10994000700B00206C0B002010B5837A012B07D11F
:109950000F22074B1140188859700901197010BD6A
:10996000044B49001B68C95A00F014F8F7E7C046D9
:109970006C0B00204000002070B50400FFF7E4FFEE
:1099800005002000FFF749FB014B1D8070BDC0465C
:109990006C0B002010B5837A0400012B07D108005E
:1099A000FFF7EEFA01002000FFF7CEFF10BD024BDB
:1099B00018881980FAE7C0466C0B002070B50400C7
:1099C000FFF7E8FF05002000FFF727FB014B1D8094
:1099D00070BDC0466C0B0020F8B50E0019001700D2
:1099E0000400FFF7D7FF05003A0031002000FFF721
:1099F0002FFD014B1D80F8BD6C0B0020837A10B544
:109A0000012B09D10E331940074B59700901197008
:109A10001A88064B1A8010BD054B49001B68C95AAD
:109A200000F008F8F7E7C0466C0B0020700B002030
:109A30004000002010B5837A0400012B07D10800F4
:109A4000FFF79EFA01002000FFF7D8FF10BD024B80
:109A50001980024B1980F9E7700B00206C0B002075
:109A600010B5837A012B0BD10E3319401A400948E7
:109A7000094B41705A700901120101701A7010BD32
:109A8000064B52001B684900D25AC95A00F008F828
:109A9000F5E7C0466C0B0020700B00204000002052
:109AA00070B5837A05001400012B0CD10800FFF774
:109AB00067FA06002000FFF763FA31000200280071
:109AC000FFF7CEFF70BD024B1980024B1A80F9E7F9
:109AD0006C0B0020700B0020024B1880024B198089
