:100000000C9475030C949D030C949D030C949D0318
:100010000C949D030C949D030C949D030C949D03E0
:100020000C949D030C949D030C949D030C94FA1264
:100030000C949D030C949D030C949D030C949D03C0
:100040000C94B0120C949D030C949D030C949D038E
:100050000C949D030C949D030C949D030C949D03A0
:100060000C949D030C949D030101FF030101F70310
:100070006C0068000500893008023802497868146D
:1000800000000500380168010000175344001613F2
:100090007800161314001510200015201000540AC3
:1000A00003E181867F3E186D830F0F0E018386600A
:1000B00033186DC3198F1803C38E6033186DE33086
:1000C000CF1803C39E603630CDE360CF3006C79EA5
:1000D0007E3E30CDB360CF300CC6F6603330D9B63B
:1000E00060CF33CFCCF66061B0DB1E60CF30D86C10
:1000F000E6C061B0DB1E618F19986CC6C063B19B0E
:100100000E330F0FB078C6FF7E1F1B061E0F302068
:10011000000180000000000241FF0FF80003C1FF52
:100120000FF8000241FF0FF8000000070E38000230
:1001300040070E38000340070E380002C1FF0E389A
:10014000000241FF0E38000001FF0E38000181C09F
:100150000E38000241C00E38000241C00E380001C6
:1001600081FF0FF8000001FF0FF80003C1FF0FF837
:10017000000100000000000101C70FF8000101C7E5
:100180000FF8000001C70FF80003C1C70E380002C6
:1001900001C70E38000301C70E38000201FF0FF837
:1001A0000003C1FF0FF8000001FF0FF800038007F4
:1001B0000E38000240070E38000380070E38000397
:1001C00000070FF80002C0070FF8000000070FF843
:1001D0000045006801000005077F4141417F3E5B0B
:1001E0004F5B3E3E6B4F6B3E183C783C18183C7E94
:1001F0003C181C577D571C1C5E7F5E1C007E4343D1
:100200007E007E73737E007E7F7F7E7F4141417FD3
:1002100030483A060E06297929067F4141417F6020
:10022000703F02042A1C361C2A7F3E1C080000086E
:100230001C3E7F14227F22143C3C3C7EFF18423C33
:10024000817E3E6375633E3E616B633E3E636B6BD6
:100250003E04027F020410207F201008082A1C0898
:10026000081C2A0808143E554122637569756310FD
:10027000181C1810040C1C0C0400000000000000E6
:100280005F00000007000700147F147F14042A7F1A
:100290002A102313086462364956205000080703C9
:1002A00000001C2241000041221C002A1C3E1C2A86
:1002B00008083E080800E060000008080808080078
:1002C0006060000060100804033E5149453E004252
:1002D0007F400062514949462141494D331814126B
:1002E0007F1027454545393C4A494930412111098C
:1002F000073649494936064949291E0000240000AD
:100300000080640000081422410014141414140026
:100310004122140802015909063E415D594E7C12E2
:1003200011127C7F494949363E414141227F41417A
:10033000221C7F494949417F090909013E41415138
:10034000327F0808087F00417F41002041413F0182
:100350007F081422417F404040407F020C027F7F93
:100360000204087F3E4141413E7F090909063E41A2
:100370006141BE7F09192946264949493201017F59
:1003800001013F4040403F1F2040201F3F40384078
:100390003F6314081463030478040361514945431F
:1003A000007F41410003040810600041417F0004C8
:1003B000020102048080808080000307080020542E
:1003C0005478407F284444383844444428384444CE
:1003D000287F3854545418087E09090218A4A49C94
:1003E000787F0804047800447D4000006080847DAC
:1003F0007F1010284400417F40007C047804787C02
:10040000080404783844444438FC18242418182478
:100410002418FC7C080404080854545420043F4465
:1004200044203C4040207C1C2040201C3C4020407C
:100430003C44281028444C9090907C4464544C4494
:10044000000836410000007F000000413608001817
:100450000408100C7F4141417F0000000024002768
:10046000002A0000000000250028002B000A0A15C1
:100470003A49676E6F7265006D560A0A504C4541E5
:100480005345205455524E204F464620004C4F575E
:10049000204241545445525921200003053F213F39
:1004A0001208120A100A0E1C0E0C1E0C141A141636
:1004B0001F161E131E1E1B1E1E1F1E3F213F3A2FFE
:1004C0003A173D173F213F181F02040A041F0E046C
:1004D000040E1F0A1F0A0E0E1F04110E2E252E2FAA
:1004E0002A2E262929021F02081F08150E04040EB1
:1004F000150E15151B151B040604040C0400000042
:100500000017000300031F0A1F16371A1904130AE5
:10051000153A000300000E11110E000A040A040E21
:10052000040030000404040010001804031F111F0D
:10053000121F101D151711151F07041F17151D1F5A
:10054000151D01011F1F151F17151F000A0000327E
:1005500000040A110A0A0A110A040115020E1117F1
:100560001E051E1F150A0E110A1F110E1F15111F41
:1005700005010E111D1F041F111F1108100F1F046C
:100580001B1F10101F061F1E040F0E110E1F090641
:100590000E112E1F051A121509011F011F101F0F22
:1005A000180F1F0C1F1B041B031C03191513001F1E
:1005B00011030418111F0002010220202000010273
:1005C0000C121E1F120C0C12120C121F0C1A140407
:1005D0001E05242A1E1F021C141D1020201D1F088A
:1005E00014111F101E041E1E021C0C120C3E0A04C5
:1005F0000C123E1E040214160A020F120E101E0EDA
:10060000100E1E081E120C1226281E322A26041E48
:1006100021001F00211E040102013F213FF6E8DBFB
:10062000CFC3B8AEA49B928A827B746E68625C571B
:10063000524E4945413E3A3734312E2C2927252345
:1006400021172B152010204C4F4144455200172BE9
:1006500016201314000A4E6F205344206361726405
:10066000206F720A6E6F204C4F414445522E484510
:10067000580A0A153A45786974001D20466C617362
:1006800068696E670A20206C6F616465722E2E2E79
:100690000A0A444F4E2754205455524E204F464686
:1006A00021000000000023002600290004040404A7
:1006B000040404040202020202020303030303030C
:1006C00001020408102040800102040810200102E9
:1006D00004081020000000080002010000030407C5
:1006E0000000000000000000DE1711241FBECFEF45
:1006F000D8E0DEBFCDBF11E0A0E0B1E0E0EAF9E371
:1007000002C005900D92A635B107D9F724E0A6E501
:10071000B1E001C01D92A831B207E1F713E0C5E7CF
:10072000D3E004C02197FE010E94FB1BC437D10710
:10073000C9F70E943B130C94CE1C0C94000090E06F
:10074000880F991FE091C103F091C203E80FF91FD0
:10075000259134913093D2032093D103F9018591EF
:1007600094919091B603989F802D11248093D30388
:10077000F90165917491472F50E08417150629F00F
:1007800020F0F90125913491832F989F802D112419
:100790008093D40308957F928F929F92AF92BF92DD
:1007A000CF92DF92EF92FF920F931F93CF93DF933D
:1007B000FB01249131964491022E000C330B12164A
:1007C00013060CF0D0C080330CF0CDC0E82F082EFB
:1007D000000CFF0BDF01A40FB11D47FDBA951A16DF
:1007E0001B060CF0C0C06E5F7F4F8901095F1F4F71
:1007F000A3E015950795AA95E1F787FF0BC0480F71
:100800000E9FC0010F9F900D1E9F900D1124681B1D
:10081000790B80E0A42F042E000CBB0BA80FB11D98
:1008200087FDBA95D19714F040E3481BF090FB0385
:100830002535310514F024E530E0A091E703A82721
:10084000982F977031E001C0330F9A95EAF785959C
:1008500085958595F4E58F02C001112483579E4F3D
:10086000B0E0042E000C550BEE24E394B4171506EB
:100870000CF079C0FB017490F1E0FF121FC06B0116
:10088000EC01E0E8BE2EB72019F0B880B32AB88298
:10089000E69531F4EFEFCE1ADE0AF6017490E0E847
:1008A0002196BC2EB81AB21668F3330F19F48C5A7D
:1008B0009F4F31E0BF5F600F711FD8CFF11019C09B
:1008C000A32EA0946B01EC01E0E8BE2EB72019F036
:1008D000B880BA20B882E69531F4FFEFCF1ADF0A6C
:1008E000F6017490E0E82196BC2EB81AB21668F3AF
:1008F000DCCFF3E06B01EC01E0E8FF1220C0932EA7
:100900009094F0E8BF2EA12CEB2DE72139F0E8817F
:100910008A2E8A2480FE11C0E32BE883B69439F432
:10092000EFEFCE1ADE0AF6017490E0E8BE2EA39433
:100930002196A21648F3AE25B8CFE921EECFBE2E00
:10094000B72019F0B880B326B882E69531F4FFEFEE
:10095000CF1ADF0AF6017490E0E82196BC2EB81A8F
:10096000B21668F3A2CFDF91CF911F910F91FF9044
:10097000EF90DF90CF90BF90AF909F908F907F903F
:100980000895833081F028F4813099F08230A9F005
:1009900008958730A9F08830C9F08430B1F480918F
:1009A00080008F7D03C0809180008F7780938000CE
:1009B000089584B58F7784BD089584B58F7DFBCF6E
:1009C0008091B0008F778093B00008958091B0003F
:1009D0008F7DF9CF1F93CF93DF93282F30E0F9015C
:1009E000EC52F94F8491F901E054F94FD491F90197
:1009F000E455F94FC491CC23A9F0162F81110E9420
:100A0000C104EC2FF0E0EE0FFF1FED59FB4FA59155
:100A1000B4918FB7F894EC91111108C0D095DE23F2
:100A2000DC938FBFDF91CF911F910895DE2BF8CF1C
:100A3000CF93C82FF89460E08091EA030E94EA0403
:100A40008091EB0318161CF460E00E94EA04CEBD0E
:100A500000000DB407FEFDCF8EB58091EB03181694
:100A60001CF461E00E94EA047894CF9108950F93FA
:100A70001F93CF938091E7038F5F8093E7030DE887
:100A800011E0C0E08C2F80640E94180580E80E946D
:100A9000180561E08091EA030E94EA048091EB036B
:100AA00018161CF460E00E94EA04F80184E59191B4
:100AB0009EBD00000DB407FEFDCF9EB58150B9F775
:100AC0008091EB0318161CF461E00E94EA04CF5FEA
:100AD0000C5A1F4FC630B1F680E4CF911F910F9191
:100AE0000C941805CF93DF9390E0FC01E054F94F8C
:100AF00024918455994FFC0184918823C9F090E09A
:100B0000880F991FFC01E75AFB4FA591B491FC0196
:100B1000ED59FB4FC591D49161110DC09FB7F89469
:100B20008C91209582238C938881282328839FBFD2
:100B3000DF91CF910895623051F49FB7F8943C91C2
:100B4000822F809583238C93E8812E2BEFCF8FB754
:100B5000F894EC912E2B2C938FBFEACFFF920F933A
:100B60001F93CF93DF93CDE8D3E0FF24FA9462E0A4
:100B70008A850E9472052A8530E0F901EC52F94F0E
:100B80008491F901E054F94F0491F901E455F94FCA
:100B900014911123E1F081110E94C104E12FF0E0D2
:100BA000EE0FFF1FEE55F94FA591B491EC91898995
:100BB0000E2369F0811113C0219683E0C439D80750
:100BC000B1F6DF91CF911F910F91FF900895898920
:100BD0008F5F898B60E08A850E947205EDCF8F3F21
:100BE00011F4198AF7CFF98AF5CF1F93CF93DF93CA
:100BF000182FEB0161E00E947205209739F460E044
:100C0000812FDF91CF911F910C94EA04CF3FD10542
:100C100011F461E0F5CFE12FF0E0EC52F94FE491EF
:100C2000E33031F140F4E130B1F0E230E1F0C038CE
:100C3000D1057CF7E4CFE73029F1E83059F1E43011
:100C4000B1F780918000806280938000D0938B0008
:100C5000C0938A0004C084B5806884BDC7BDDF919D
:100C6000CF911F91089584B5806284BDC8BDF7CF30
:100C700080918000806880938000D0938900C09329
:100C80008800EDCF8091B00080688093B000C09361
:100C9000B300E5CF8091B00080628093B000C09334
:100CA000B400DDCF8E50806480937C0080917A0008
:100CB000806480937A0080917A0086FDFCCF8091D9
:100CC00078009091790008958091B1038F7149F572
:100CD00084E10E945206BC01990F880B990B0E9477
:100CE000F51926EE3FE34EEC50E40E94301A0E94C4
:100CF000881B9B017093A8036093A703672BB9F02F
:100D000084E08093A603E9EAF3E080E04191519109
:100D10002417350718F48093A60308958F5F843055
:100D2000A9F78091B1038F5F8093B10308958FEF8E
:100D30008093A603F6CF3FB7F894809180019091FD
:100D40008101A0918201B091830126B5A89B05C0C5
:100D50002F3F19F00196A11DB11D3FBFBA2FA92F3A
:100D6000982F8827BC01CD01620F711D811D911D37
:100D700042E0660F771F881F991F4A95D1F70895A3
:100D80008F929F92AF92BF92CF92DF92EF92FF929B
:100D90004B015C010E949B066B017C010E949B063B
:100DA0006C197D098E099F09683E73408105910584
:100DB000A8F321E0821A9108A108B10888EEC80EB4
:100DC00083E0D81EE11CF11C81149104A104B1043C
:100DD00029F7FF90EF90DF90CF90BF90AF909F905A
:100DE0008F900895DC01ED91FC910190F081E02D50
:100DF0000994AF92BF92CF92DF92EF92FF920F933E
:100E00001F93CF93DF936C017B018B01040F151FA0
:100E1000EB015E01AE18BF08C017D10759F0699108
:100E2000D601ED91FC910190F081E02DC60109956C
:100E3000892B79F7C501DF91CF911F910F91FF9019
:100E4000EF90DF90CF90BF90AF900895FC01178A8C
:100E5000158A14A213A2108E10928401109285019B
:100E6000109288011092B4000895CF93DF93E0911F
:100E7000BB038E2F90E0880F991FE091B903F0918A
:100E8000BA03E80FF91F859194918F3F980729F4D1
:100E90001092B203DF91CF9108959093BE039927EA
:100EA000880F991FE091BC03F091BD03E80FF91F73
:100EB000C591D49182EB93E00E942607D093C003A2
:100EC000C093BF031092C5031092C40381E08093C6
:100ED000B30389E08093C8031092CB031092CD0333
:100EE0001092CF038091BB038F5F8093BB03D2CF5F
:100EF000CF93DF93EC010E94260781ED91E09E875E
:100F00008D871B8A1A8A81E0898389E08E8B198EEE
:100F10001B8E1D8EDF91CF910895DC01FB01849122
:100F20008F5F14968C9314973196E491EF5F15962A
:100F3000EC9315976E5F7F4F5F967C936E935E97F1
:100F40000895DC01643570F5403360F590968C911E
:100F50009097E62F062E000CFF0B242F2595259544
:100F6000259594E52902E00DF11D1124E357FE4F6C
:100F70002081342F37708230B1F4822F90E0032E1D
:100F800002C0959587950A94E2F78095817081114A
:100F900014C081E090E001C0880F3A95EAF780958F
:100FA000822380830895833091F71C968C91817001
:100FB0006427609561708613ECCF81E090E001C0FA
:100FC000880F3A95EAF7822BECCFAF92BF92CF927F
:100FD000DF92EF92FF920F931F93CF93DF93182F1F
:100FE000062FC0E0D3E08AEFD82E9EEFE92E842FA3
:100FF0008470C82E842F8270B82E842F8870A82EFB
:101000004170F42ECF5F8C2F880F8F5FE80ECC20BD
:1010100081F0402F4D0F612F6C0F8BED93E00E94FC
:10102000A107402F4C0F6D2F610F8BED93E00E94B5
:10103000A107BB2081F0402F4D1B612F6C0F8BED62
:1010400093E00E94A107402F4C1B6D2F610F8BED89
:1010500093E00E94A107AA2081F0402F4C0F612F3E
:101060006D1B8BED93E00E94A107402F4D0F612F68
:101070006C1B8BED93E00E94A107FF2081F0402FB5
:101080004C1B612F6D1B8BED93E00E94A107402F3D
:101090004D1B612F6C1B8BED93E00E94A107CD17B8
:1010A0003CF4E7FCAFCFD150D394D394ED0CAACF4E
:1010B000DF91CF911F910F91FF90EF90DF90CF9034
:1010C000BF90AF9008950F931F93CF93DF93D82FC6
:1010D000162F042FC0E0C0174CF4412F4C0F6D2F7A
:1010E0008BED93E00E94A107CF5FF5CFDF91CF9109
:1010F0001F910F9108958F929F92AF92BF92CF92BE
:10110000DF92EF92FF920F931F93CF93DF93082FFD
:10111000A62E842E922E83E0F82ED0E0C3E09AEF24
:10112000E92E1EEFBB24B394B20EDF5F1F0D4C2FD0
:10113000440F6A2D6C1BC92CCF0CDA2CDD1A81E010
:101140004B0D881215C0802F8D0F0E9463084C2D07
:101150006D2D8C2F800F0E946308DC1794F417FD0F
:1011600004C0C150E394E3941E0DF394F394DDCFD7
:10117000802F8D1B0E9463084C2D6D2D802F8C1BA2
:10118000EACFDF91CF911F910F91FF90EF90DF9009
:10119000CF90BF90AF909F908F900895CF92DF92A5
:1011A000EF92FF920F931F93CF93DF937C01D62E84
:1011B000C22EC42F002E000C110B040F111D47FD71
:1011C0001A958C2F0C2E000C990B801791076CF43C
:1011D000D0E0DC1544F46D2D6D0F4C2FC7010E943B
:1011E000A107DF5FF6CFCF5FECCFDF91CF911F91EB
:1011F0000F91FF90EF90DF90CF9008954F925F9204
:101200006F927F928F929F92AF92BF92CF92DF9216
:10121000EF92FF920F931F93CF93DF93EC016A300D
:1012200049F428859D818A85299F800D11248A870C
:101230001986A6C06D3009F4A3C0898483E588159A
:101240000CF487C0DA848FE28D150CF482C0188507
:101250002C812150330B129FC001139F900D11243C
:10126000880D911D87FC9A95181619060CF071C00F
:101270002D818D2D0D2C000C990B129F800D911D31
:101280001124181619060CF064C078A0C82C912CF3
:10129000E62EF12C292D092C000C330B8C8190E0CB
:1012A000281739070CF054C00197E0E028173907D8
:1012B00071F0E89EF001E99EF00DF89EF00D11240A
:1012C0002E0F3F1FEE8DFF8DE20FF31FE4915D2C7B
:1012D000612C492C480C2D81862D062C000C990B75
:1012E0002817190691F18CF1AE2EB12CE0FF16C033
:1012F000113061F4462D4D0D642DCE010E94A107E1
:10130000F501F595E7956394510EE5CF012F212F57
:10131000452D6C2DCE010E94CE08F2CF89A198A157
:10132000891771F388A3113041F4462D4D0D642DBA
:10133000CE010E94A10778A2E3CF012F212F452DD6
:101340006C2DCE010E94CE08F6CF9394C10EA2CF91
:1013500078A228853C818985239F800D1124898767
:101360009F81992369F0082E000C990B44E550E009
:10137000239F401951091124481759070CF452CFE3
:1013800081E090E0DF91CF911F910F91FF90EF905E
:10139000DF90CF90BF90AF909F908F907F906F9095
:1013A0005F904F9008950F931F93CF93DF938C011D
:1013B000D0E0C0E0F801EC0FFD1F6491662341F01E
:1013C0008BED93E00E94FE08892B11F02196F2CF5D
:1013D000CE01DF91CF911F910F910895089590E074
:1013E00080E00895FB0101900020E9F73197AF01FB
:1013F000461B570BDC01ED91FC910280F381E02D3F
:101400000994CF93DF930E94D309EC016BE371E061
:101410008BED93E00E94F2098C0F9D1FDF91CF911D
:101420000895EDE8F1E088EF91E0DF019C011D9265
:1014300021503040E1F71092E4031092E5038AE76F
:1014400096E00E94D3090E9437058CB583608CBD5D
:101450008DB58E7F8DBD8EE391E0EEEFFFE30995B4
:101460001092E10385E596E00E94010A0E9437058B
:101470000E94AE058091A203813039F062E370E0F2
:1014800080E090E00E94C006F3CF08958F929F9273
:10149000AF92BF92EF92FF920F931F93CF93DF9380
:1014A000CDB7DEB7A1970FB6F894DEBF0FBECDBFA4
:1014B0007C01FA01CB0119A2223008F42AE08E0146
:1014C0000F5D1F4F822E912CB12CA12CBF01A501C5
:1014D00094010E94571BF901CA016A300CF5605D46
:1014E000D8016E938D01232B242B252B79F790E0C7
:1014F00080E0109721F0BD01C7010E94F209A1967A
:101500000FB6F894DEBF0FBECDBFDF91CF911F9114
:101510000F91FF90EF90BF90AF909F908F900895A4
:10152000695CDECF4F925F926F927F928F929F9213
:10153000AF92BF92CF92DF92EF92FF920F931F93E1
:10154000CF93DF9300D000D01F92CDB7DEB740918C
:101550000D0450910E0460910F04709110042FB788
:10156000F8948091890190918A01A0918B01B091AA
:101570008C012FBF481B590B6A0B7B0B80910C040D
:1015800090E0B0E0A0E000910804109109042091DF
:101590000A0430910B0484179507A607B70708F0D3
:1015A000CEC0011511052105310509F4C8C02FB7BA
:1015B000F8948091890190918A01A0918B01B0915A
:1015C0008C012FBF20910C04820F911DA11DB11D14
:1015D00080930D0490930E04A0930F04B093100415
:1015E0008091FE039091FF03A0910004B09101044B
:1015F0000196A11DB11D8093FE039093FF03A0935C
:101600000004B0930104109208041092090410928F
:101610000A0410920B040E949B06609304047093CA
:101620000504809306049093070480918E039091A3
:101630008F032FE0289FA001299F500D11245A836A
:10164000498385E10E945206A981BA818A0F9B1FB6
:10165000B4E096958795BA95E1F790938F038093C0
:101660008E0320918D03222309F448C060919103D9
:10167000262F30E050E040E029833A834B835C839F
:10168000C0909203D12CF12CE12C40919503509104
:1016900096034A01B12CA12C20919303309194031D
:1016A0002901712C612C8217930728F09C0148179F
:1016B000590708F49A0150E040E024193509460919
:1016C000570969817A818B819C816C197D098E090A
:1016D0009F090E94B71BA5019401241935094609E9
:1016E00057090E94EE1AC20ED31EE41EF51EC092C8
:1016F00090036C2D70E085E00E94F5050E94AE0518
:101700008091A9039091AA03892B11F00E9464068D
:1017100081E00F900F900F900F900F90DF91CF917D
:101720001F910F91FF90EF90DF90CF90BF90AF90FF
:101730009F908F907F906F905F904F900895012BB6
:10174000022B032B09F073C18091A40381508E3FBB
:1017500018F58091A3038130F9F48091B7038F5F6E
:101760006091B80387FD09C0082E000C990B70E04A
:101770006F5F7F4F0E94D31B682F6093B7038EE487
:1017800096E0909312048093110488E480931304EC
:1017900082EB93E00E9478078091A40381508E3FF2
:1017A00070F48091A203813009F01AC381E496E0BD
:1017B000909312048093110488E480931304809121
:1017C000B203882331F08091B303811102C00E94DB
:1017D00035078091B303882309F43EC08091C70385
:1017E00081113AC08091BF039091C003E091C4037E
:1017F000F091C503EE0FFF1FE80FF91F25913491FB
:101800002115310509F46AC1A901569547955695E8
:101810004795842F20FD0DC18F738093C60380915F
:10182000B603839F802D11248093C7031092D703A2
:101830001092D6031092D50381E08093C903809360
:1018400088011092CA038091C4039091C503019648
:101850009093C5038093C4038091C903882341F00A
:101860008091C703811156C182EB93E00E94260745
:1018700080911304882309F490C08C3008F034C29E
:101880003CE0381B3983FF24F394F092E303109279
:10189000FB031092FC034091E0034D831981141B5C
:1018A000042F0D5F4DE2410F2EE463E08BED93E0DA
:1018B0000E94CE085D8154505D83105D252F41E06C
:1018C000612F80E50E947B082D8142E0612F83E03B
:1018D0000E947B08F092FB03F092FC030091E0036E
:1018E00083E0800F8D831981101B9DE2E92EE10EAC
:1018F00023E0F22E4E2D6F2D8BED93E00E94A10779
:10190000F39491E5F912F6CFAD81AE0DAD83EA2ED9
:10191000EA9483E0F82E4E2D6F2D8BED93E00E941C
:10192000A107F394B1E5FB12F6CF0350105D402FF1
:10193000612F80E00E946308402F612F83E50E94A1
:10194000630841E0612F83E00E94E50742E0612FD8
:1019500080E50E94E5072D8124502D8344E0622F0D
:1019600080E50E94E50748E06D8183E00E94E5077D
:1019700084E08093E4038091E0033981381B315D7A
:101980003093E50380911104909112040E94D309D1
:10199000809113048150809313048091A903909146
:1019A000AA03892BE1F041E04093FB031092FC0372
:1019B0009091DF0385E5891B8093E4031092E50392
:1019C0006091A603613009F4EFC108F48FC18091E2
:1019D000A503653008F0FFC16B5F8111F7C10E945C
:1019E00037058091E10381110EC0EDE8F1E088EF49
:1019F00091E0DF019C011D9221503040E1F71092EF
:101A0000E4031092E5030E949B0660930804709320
:101A1000090480930A0490930B04209104043091EC
:101A20000504621B730B709303046093020480E04F
:101A300070CEC901E6E096958795EA95E1F78F713A
:101A4000932F96959695969590514F70423099F1B7
:101A5000D0F4442309F43CC04130B9F1E091C4030F
:101A6000F091C5033196F093C503E093C403CF0111
:101A7000880F991FE091BF03F091C003E80FF91F91
:101A800025913491C1CE433061F0443039F7209133
:101A9000B603289F802D11248093CF039093D00309
:101AA000DDCF2091B603289F802D11248093CD0394
:101AB0009093CE03D3CF2091B603289F802D11247D
:101AC0008093CB039093CC03C9CF0E949F03C6CFD2
:101AD0008B3008F08AE08093C803C0CF2091C30305
:101AE000211112C01092B3038091B203811105C07D
:101AF00082EB93E00E942607AFCE0E9435078091CB
:101B0000C4039091C503B4CF1092C5031092C403CF
:101B1000FC01B6CF81508093C7038091D703811118
:101B200042C02091D5033091D6032F5F3F4FC901AA
:101B3000880F991FE091D103F091D203E80FF91FAC
:101B400085919491482F47704093D803492F46952B
:101B500046954093D903AC0164E0569547956A9544
:101B6000E1F74F739091B603499F402D11244093A4
:101B7000D70383FB882780F9809387013093D603AE
:101B80002093D5038091D30390E02817390758F0AC
:101B90002091D403222309F49FC0821B91099093C2
:101BA000D6038093D5038091D70381508093D703C8
:101BB0008091CA0331E0380F3093CA034091C603C5
:101BC0002091D903240F8091BE03280F2093B403E2
:101BD0006091CD03662371F070E0832F032E000C1B
:101BE000990B0E94D31B8091CE03869F200D112458
:101BF0002093B4038091B40390E0849664E270E093
:101C00000E94D31B8093B4032091C8032093B50393
:101C10006091CB03662381F0062E000C770B832F97
:101C2000032E000C990B0E94D31B8091CC03869F3E
:101C3000200D11242093B5036091CF036623A1F0FA
:101C4000832F330F990B70E00E94D31BCB0162E00E
:101C500070E00E94D31B2091D0039091B503289F80
:101C6000900D11249093B5034F3309F43AC080913D
:101C7000B5038A300CF089E087FD80E08093B503DE
:101C8000F894E091B403F0E0E35EF94FE491E0935F
:101C900086012091DA033091B503320390011124BB
:101CA0004091D8034203C001439F900D112420911D
:101CB000B70302C0880F991F2A95E2F797FF02C069
:101CC00081589F4F880F892F881F990B809385011A
:101CD000809384017894CCCD82EB93E00E94260718
:101CE00062CF1092B503CCCF1982CDCD82EB93E0B9
:101CF0000E9426071092B30351E05093E3036BE96F
:101D000074E08BED93E00E948D071092AA0310926D
:101D1000A9031092E10388EA89830E94920A88232A
:101D2000E1F38DE894E00E94D3094091A70350911C
:101D3000A80370E060E02AE08BED93E00E94460A81
:101D400088E794E00E94D309498142954F7050E0A2
:101D500070E060E02AE08BED93E00E94460A8DE699
:101D600094E00E94D3098091A203813009F437CE18
:101D70009981915099839111D0CF70E060E085E016
:101D80000E94F50583B7817F846083BF83B781603C
:101D900083BF83B7816083BF889583B78E7F83BFFE
:101DA00083B78E7F83BFB9CF8091FE039091FF03ED
:101DB000A0910004B09101048F709927AA27BB2736
:101DC00067E00897A105B10508F068E78BED93E09F
:101DD0000E94F20604CE882309F401CE6FE2F6CF0A
:101DE000893209F0ECCC0E94110AE9CC0F931F93C1
:101DF000CF93DF93EC0188819981009759F02A8174
:101E00003B812617370730F081E0DF91CF911F919A
:101E10000F9108958B016F5F7F4F0E94011C009707
:101E200059F0998388831B830A832C813D81232B5E
:101E300059F7FC011082E8CF80E0E7CFEF92FF92E4
:101E40000F931F93CF93DF93EC017B018A01BA01BB
:101E50000E94F60E28813981811114C021153105A7
:101E600019F0C9010E948518198218821D821C82EE
:101E70001B821A82CE01DF91CF911F910F91FF90AB
:101E8000EF9008951D830C83B701C9010E94C71C00
:101E9000F1CF8F929F92AF92BF92CF92DF92EF924B
:101EA000FF920F931F93CF93DF9382E380930C04F1
:101EB00081E090E0A0E0B0E08093080490930904F2
:101EC000A0930A04B0930B048FEF8093FD03E0E826
:101ED000F7E7259134912130304C09F09EC2E6E9B4
:101EE000F7E7E491E093E603E7E9F7E7E491E093AD
:101EF0009103E8E9F7E7E491E0939203E9E9F7E772
:101F0000859194919093940380939303EBE9F7E781
:101F100085919491909396038093950387E08093A5
:101F2000B803EEE9F7E7E491E093B703EFE9F7E7E9
:101F3000E491E093FD03E0EAF7E7859194919093B3
:101F4000AA038093A903E2EAF7E78591949190931D
:101F5000AC038093AB03E4EAF7E785919491909307
:101F6000AE038093AD03E6EAF7E7859194919093F1
:101F7000B0038093AF03C1E0C0938D036FEF70E0B7
:101F800085E00E94F50588E08093970389E08093BF
:101F9000980387E08093990386E080939A03D4E0C6
:101FA000D0939B0382E080939C0381E180939D0307
:101FB0000E94AE058CE39FE09093A8038093A70353
:101FC000D093A603C093B1038BE08093E9038DE027
:101FD0008093E80380E18093EA038EE08093EC0332
:101FE0008FE08093EB03C093E303C093FB03109255
:101FF000FC03C093E2036BE974E08BED93E00E9475
:102000008D07CFB7F89480915601811127C0E6EB78
:10201000F6E08491EAECF6E09491E82FF0E0EE0F20
:10202000FF1FE75AFB4FA591B491EC91E92321F4EE
:1020300061E08AE00E94EA0461E08AE00E947205A1
:102040008CB580618CBD8CB580648CBD61E08DE009
:102050000E94720561E08BE00E947205809156013A
:102060008F5F80935601CFBF8CB58F7D8CBD8CB5B3
:102070008C7F81608CBD8DB581608DBD8CB58C6091
:102080008CBD61E08091E9030E94720561E080915E
:10209000E8030E94720561E08091EA030E947205E4
:1020A0008091EC0318161CF461E00E947205809187
:1020B000EB0318161CF461E00E9472058091EC039A
:1020C000181674F460E00E94EA046AE070E080E0B0
:1020D00090E00E94C00661E08091EC030E94EA0457
:1020E0008091E803082E000C990BFC01E455F94F90
:1020F000E491F0E0EE0FFF1FED59FB4F2591349175
:102100003093F0032093EF03FC01E054F94FE49186
:10211000E093F6038091E903082E000C990BFC0173
:10212000E455F94FE491F0E0EE0FFF1FED59FB4F3E
:10213000259134913093EE032093ED03FC01E0549C
:10214000F94FE491E093F5038091EB03082E000C26
:10215000990BFC01E455F94FE491F0E0EE0FFF1FFD
:10216000ED59FB4F259134913093F2032093F10305
:10217000FC01E054F94FE491E093F7038091EA0306
:10218000082E000C990BFC01E455F94FE491F0E0A6
:10219000EE0FFF1FED59FB4F259134913093F4035F
:1021A0002093F303FC01E054F94FE491E093F8032A
:1021B00081E20E94180584E10E9418058091E603DF
:1021C00087FF03C08FE78093E6038091E603806872
:1021D0000E94180580E20E9418058CE00E941805F4
:1021E0000E94370581E08093B60384E08093DA0390
:1021F00080E790E09093C2038093C10380E00E9447
:102200009F0361E070E083E00E94F5058091B100DA
:10221000887F81608093B100F894109280001092C2
:102220008100109285001092840088E191E09093E3
:10223000890080938800809181008860809381006C
:102240008091810081608093810080916F00826025
:1022500080936F0078948091A9039091AA03892BB1
:1022600011F00E9464068091A303813009F402C139
:102270008091A603882309F4FDC082EB93E00E94BD
:10228000260784E790E09093C0038093BF031092E9
:10229000C5031092C40381E08093B30389E0809367
:1022A000C8031092CB031092CD031092CF0367EDB9
:1022B00071E08BED93E00E948D078091FD038823F0
:1022C00009F406C181E08093E3031092E2031092C7
:1022D000E1031092A5038093FB038093FC03C0ED00
:1022E000D1E01CE00E94920A8823E1F3FE010491F0
:1022F00001110091E0036EE970E080E00E94CB03E1
:102300006EE071E08CE0800F0E94CB031092E4033A
:102310001093E50380ED91E00E94D3098091DF03E3
:10232000982F990F990F891B8D5A8093E403809100
:10233000E003982F990F990F891B835D8093E50324
:102340008091FE0384FF99C08AE990E00E94010A0F
:102350008091DF03982F990F990F891B8D5A8093D5
:10236000E4038091E5038F5F8093E5038091B703D9
:10237000882309F485C082E990E00E94010A8091D7
:10238000DF03982F990F990F891B8D5A8093E403CF
:102390008091E5038F5F8093E5038AE890E00E94D7
:1023A000010A8091A3038130B1F48091B7038F5F5C
:1023B0006091B80387FD09C0082E000C990B70E0EE
:1023C0006F5F7F4F0E94D31B682F6093B70382EB30
:1023D00093E00E9478078091A203813009F453C0F2
:1023E0008091FD03482F50E070E060E0C090FE0354
:1023F000D090FF03E0900004F0900104C416D506CD
:10240000E606F70610F08F3FF1F58091A4038130C6
:1024100009F068CF0E94110A65CF9CE39093E60310
:10242000109291038093920380E293E0909394033F
:102430008093930384ED93E09093960380939503A8
:1024400087E08093B8038093B7038CEA9DE0909374
:10245000AA038093A9038EED9DE09093AC03809333
:10246000AB0384E79EE09093AE038093AD038CE3CF
:102470009FE07DCD1092B7031ACF86E990E066CF3A
:102480008EE890E07ACF8FEF8093FD0382EB93E0AC
:102490000E9426071092B30382EB93E00E94260766
:1024A00082E890E09093C0038093BF031092C5032D
:1024B0001092C40381E08093B30399E09093C80322
:1024C0001092CB031092CD031092CF038093A503FB
:1024D000C090A703D090A803C094D094F12CE12C15
:1024E0000E949B064B015C010E949B06A501940182
:1024F0002095309540955095609570958095909574
:102500000E94B71B9B01AC01C701B6010E94B71B1B
:102510004B015C01C0908E03D0908F03F12CE12C15
:102520000E949B066C0D7D1D8E1D9F1D680D791DE3
:102530008A1D9B1D611571058105910511F00E9491
:10254000A9191092A503DF91CF911F910F91FF90D0
:10255000EF90DF90CF90BF90AF909F908F900895B5
:102560001F920F920FB60F9211242F933F938F93C8
:102570009F93AF93BF938091890190918A01A0911D
:102580008B01B0918C0130917F0123E0230F2D3717
:1025900058F50196A11DB11D20937F0180938901FB
:1025A00090938A01A0938B01B0938C01809180015C
:1025B00090918101A0918201B09183010196A11DAA
:1025C000B11D8093800190938101A0938201B0930B
:1025D0008301BF91AF919F918F913F912F910F9068
:1025E0000FBE0F901F90189526E8230F0296A11D8D
:1025F000B11DD2CF1F920F920FB60F9211242F93BD
:102600006F937F938F939F9360918501662349F128
:10261000809157018F5F80935701909186018917B0
:1026200000F12091880181E02827209388011092F1
:10263000570180918701882369F08091000193E41C
:10264000899F802D1124895B809300010E94C71B04
:102650009093840180918401211101C080E08093D6
:10266000B4009F918F917F916F912F910F900FBE2A
:102670000F901F901895CF93DF93CDB7DEB7A89733
:102680000FB6F894DEBF0FBECDBF789484B58260DC
:1026900084BD84B5816084BD85B5826085BD85B506
:1026A000816085BD80916E00816080936E00109284
:1026B00081008091810082608093810080918100FF
:1026C0008160809381008091800081608093800090
:1026D0008091B10084608093B1008091B0008160EE
:1026E0008093B00080917A00846080937A0080911A
:1026F0007A00826080937A0080917A008160809372
:102700007A0080917A00806880937A001092C100EC
:102710000E94490F9E012F5F3F4F290180917E014A
:102720008F5F80937E0180917D018F5F90E06AE0F2
:1027300070E00E94D31B0A966AE070E00E94D31BEF
:1027400080937D012FB7F8948091890190918A013F
:10275000A0918B01B0918C012FBF409179015091D4
:102760007A0160917B0170917C01481759076A07D3
:102770007B0708F056C290907801911052C235E064
:10278000632E31E0732E48E5242E41E0342ED10132
:10279000F301819191918D939D93868197811796F5
:1027A0009C938E931697868597851F969C938E9300
:1027B0001E978689978957969C938E9356978DE09E
:1027C00091E08E179F0729F78091A10310E08130D7
:1027D00009F049C090E080E0AC01440F551F435E12
:1027E0005E4F63E070E022E030E05A01F0E0E0E0AC
:1027F0008F01060F171FDF01AA0FBB1FAA0FBB1FF8
:10280000AA0FBB1FA40FB51F0D90BC91A02DAB2B21
:1028100009F072C3AE2FA60FA33009F45BC3319643
:10282000E7CF01501109D801AA0FBB1FAA0FBB1F88
:10283000A80FB91FAA0FBB1FAB5FBE4FCD92DC9292
:102840002017310709F07BC321503109615071090C
:10285000485051096115710549F60196843091057A
:1028600009F0BACF11E080919F03813009F075C063
:10287000E5E0EE2EE1E0FE2E30E020E041E050E029
:102880008901000F111F0B5F1E4FCA010197FC0148
:1028900063E0EE0FFF1F6A95E1F7EE0DFF1D60810B
:1028A0007181672BA1F48111F1CFFA01EE0FFF1FA7
:1028B000EE0FFF1FE20FF31FEE0FFF1FEB5FFE4F48
:1028C00060817181D8016D937C9311821082DC014B
:1028D000AA0FBB1FAA0FBB1FA20FB31FAA0FBB1FBC
:1028E000AB5FBE4F6D917C911197FA01EE0FFF1F08
:1028F000EE0FFF1FE20FF31FEE0FFF1FEB5FFE4F08
:10290000C080D1806C157D0539F4660F771F6D93FB
:102910007C931182108211C00196DC01AA0FBB1FAB
:10292000AA0FBB1FA20FB31FAA0FBB1FAB5FBE4FE7
:10293000CD92DC924817590761F74F5F5F4F4430E3
:10294000510509F0A2CF2F5F3F4FB2E0EB0EF11C13
:102950002430310509F092CF11E080919E0381303F
:10296000E9F5EE24EA94FE2C50E040E03DE1A32E90
:1029700031E0B32E63E070E0842E8820F1F0C701CF
:10298000FC01EE0FFF1FEA0DFB1D20813181232B7F
:1029900009F0F1C2882309F4D5C20197F1CF01965D
:1029A000D901A80FB91FAA0FBB1FAB5FBE4FCD92B5
:1029B000DC924817590709F0FEC261507109E8E03E
:1029C000AE1AB1086F3F7607C1F64F5F5F4F2FEF2A
:1029D000E21AF20A4430510549F611E08091A00351
:1029E000813009F081C014E0E12EF12C83E090E009
:1029F000BC01660F771F615E7E4F43E050E083307D
:102A000009F461C030E020E05901AE0CBF1CF901AF
:102A1000EE0FFF1FE60FF71F0190F081E02DEF2B67
:102A200009F52F5F3F4FE82FE20FE33069F7FA0116
:102A3000EE0FFF1FEE0FFF1FE80FF91FEE0FFF1F36
:102A4000EB5FFE4F20813181DA0113E0AA0FBB1F3B
:102A50001A95E1F7AB5FBE4F17963C932E931697EE
:102A6000118210829A01220F331F220F331FD901C6
:102A7000AA0DBB1DAA0FBB1FAB5FBE4F0D911C91D2
:102A80001197F901E80FF91FEE0FFF1FEB5FFE4FE3
:102A9000C080D1800C151D0539F4000F111F0D9356
:102AA0001C93118210820FC0A1E0AA1AB108D901AB
:102AB000AA0DBB1DAA0FBB1FAB5FBE4FCD92DC9210
:102AC0008A159B0571F741505109685071094F3FB4
:102AD000540709F094CF0197E1E0EE1AF1088F3F17
:102AE000980709F085CF11E08091A303813009F0A8
:102AF00044C00E94490F10920601109205011092E5
:102B00000E0110920D0122E030E030931601209367
:102B1000150110921E0110921D01109208011092D1
:102B200007011092100110920F01309318012093A9
:102B300017011092200110921F0110920A011092A9
:102B40000901109212011092110110921A011092B3
:102B50001901109222011092210110920C01109281
:102B60000B01109214011092130110921C0110928B
:102B70001B011092240110922301112309F451C06A
:102B800025E031E084E0F90190E04081518141305D
:102B900050420CF02CC138969F5F9430B1F78150B1
:102BA0002E5F3F4F8111EFCF909278012FB7F894AD
:102BB0008091890190918A01A0918B01B0918C0143
:102BC0002FBF8C599F4FAF4FBF4F80937901909388
:102BD0007A01A0937B01B0937C0182EB93E00E9489
:102BE000780725E031E090E080E0F101E80FF91F7F
:102BF00040815181F901E80FF91F60817181461709
:102C0000570709F0F7C008968032910571F782E006
:102C1000280E311C2E5F3F4FA0E6B1E0A215B30590
:102C200011F70E94920A882309F4D9C06BE974E075
:102C30008BED93E00E948D0705E011E097E0D92E1F
:102C4000780184E0C82ED092E403C092E503D70156
:102C50004D915C91141615064CF4052E000C660B74
:102C6000770B2AE08BED93E00E94460AB9E0CB0E89
:102C7000E8E0EE0EF11CF8E2CF12E5CF0E5F1F4F39
:102C800022E1D20E3FE4D312DBCF12E001E028E4D0
:102C9000412F65E08BED93E00E94CE08612F660F17
:102CA0006F5F04E221E042E08BED93E00E94CE08EA
:102CB000175F1F3259F785E08093E40348E24093A1
:102CC000E5036091010170910201809103019091EF
:102CD00004011CA21BA21EA21DA218A61FA22AE06C
:102CE000A2010E94B219F20101900020E9F7319788
:102CF000AF0144195509B201CE0183960E941E0FFF
:102D00001A8219821C821B821E821D8247E050E0BB
:102D100065E471E0C2010E941E0FEBA0FCA0E1146B
:102D2000F10409F4CAC00FA118A501151105B1F0ED
:102D30008D819E81080F191FB801C2010E94F60EF5
:102D4000882309F4BAC029813A818D819E81B70117
:102D5000820F931F0E94C71C1E830D834D815E81CD
:102D600069817A818BED93E00E94F90689819A81CD
:102D7000009711F00E9485188BA19CA1009711F07B
:102D80000E94851880917801882349F161E0609361
:102D9000FB031092FC030EE020E54DE062E08BEDBA
:102DA00093E00E94CE081092FB0381E08093FC0325
:102DB00067ED71E08BED93E00E948D0793E19093B6
:102DC000E40380E18093E5036DE471E08BED93E033
:102DD0000E94F209A1E0A093FB031092FC03E0E043
:102DE000F0E0EF2B09F49ACC0E94000097CC9924D4
:102DF0009394DACE90E020E080E0B4E08B02F00122
:102E00001124E90FF11D97FDFA95EE0FFF1FEB5FFF
:102E1000FE4F40815181452B09F42F5F8F5F843035
:102E200061F79F5F943041F7222309F4FACE022E16
:102E3000000C330B80917E0190E0B9010E94D31BFE
:102E4000820F931FB9010E94D31B90917D0124E052
:102E500030E0992311F022E030E04901032E000C0C
:102E6000AA08BB08C0900101D0900201E0900301C4
:102E7000F090040194E0F30160E040815181452B22
:102E800049F4811106C031832083C80CD91CEA1C87
:102E9000FB1C815038966F5F643079F79150E2E007
:102EA0006E0E711C9111E7CFC0920101D092020108
:102EB000E0920301F0920401B4CE89819A810097D7
:102EC00011F00E9485181A8219821E821D821C82AE
:102ED0001B8244CFF901EE0FFF1FEE0FFF1FE80F1B
:102EE000F91FEE0FFF1FEB5FFE4FE080F180D50171
:102EF000ED92FC9211821082D801AA0FBB1FAA0F7B
:102F0000BB1FA80FB91FAA0FBB1FAB5FBE4FED9031
:102F1000FC901197F901EE0FFF1FEE0FFF1FE80F56
:102F2000F91FEE0FFF1FEB5FFE4FC080D180EC1446
:102F3000FD0409F076CCEE0CFF1CED92FC921182A0
:102F4000108282CCFB01EE0FFF1FEE0FFF1FE40F7C
:102F5000F51FEE0FFF1FEB5FFE4F20813181DB017C
:102F600013E0AA0FBB1F1A95E1F7AB5FBE4F2D937D
:102F70003C93118210829B01220F331F220F331FBB
:102F8000D901A80FB91FAA0FBB1FAB5FBE4F0D9190
:102F90001C911197F901E40FF51FEE0FFF1FEB5F76
:102FA000FE4FC080D1800C151D0509F0F8CC000F34
:102FB000111F0D931C9311821082FFCC1092DE031F
:102FC0001092DD0383E391E09093DC038093DB03B5
:102FD00008950F931F93CF93DF938230910510F4E0
:102FE00082E090E0E0911604F091170430E020E0D8
:102FF000B0E0A0E0309799F42115310509F44AC0FA
:10300000281B390B24303105D8F58A819B81611545
:10301000710589F1FB0193838283FE0111C0408118
:1030200051810281138148175907E0F04817590769
:1030300099F4109761F012960C93129713961C93C3
:103040003296CF01DF91CF911F910F910895009398
:10305000160410931704F4CF2115310551F04217CF
:10306000530738F0A901DB019A01BD01DF01F80126
:10307000C1CFEF01F9CF9093170480931604CDCF01
:10308000FE01E20FF31F819391932250310939839E
:103090002883D7CF2091140430911504232B41F4B9
:1030A00020912701309128013093150420931404B6
:1030B00020912501309126012115310541F42DB7CC
:1030C0003EB74091290150912A01241B350BE09114
:1030D0001404F0911504E217F307A0F42E1B3F0B24
:1030E0002817390778F0AC014E5F5F4F241735077A
:1030F00048F04E0F5F1F50931504409314048193C2
:1031000091939FCFF0E0E0E09CCFCF93DF930097C7
:10311000E9F0FC01329713821282A0911604B0915B
:103120001704ED0130E020E01097A1F420813181F7
:10313000820F931F2091140430911504281739072A
:1031400009F061C0F0931504E0931404DF91CF916E
:103150000895EA01CE17DF07E8F54A815B819E01F9
:1031600041155105B1F7E901FB83EA834991599172
:10317000C40FD51FEC17FD0761F480819181029681
:10318000840F951FE90199838883828193819B83B2
:103190008A83F0E0E0E012968D919C91139700975E
:1031A000B9F52D913C911197CD010296820F931F95
:1031B00020911404309115042817390739F63097F7
:1031C00051F51092170410921604B0931504A093B1
:1031D0001404BCCFD383C28340815181840F951FD7
:1031E000C817D90761F44E5F5F4F88819981480FF6
:1031F000591F518340838A819B8193838283211548
:10320000310509F0B0CFF0931704E09316049ECF78
:10321000FD01DC01C0CF13821282D7CF8F929F9223
:10322000AF92BF92CF92DF92EF92FF92CF93DF9354
:10323000EC01688179818A819B8161157105810525
:10324000910521F464E279ED8BE597E02DE133EF10
:1032500041E050E00E94EE1A49015A019B01AC0185
:10326000A7EAB1E40E940D1B6B017C01ACEEB4EF48
:10327000A50194010E941B1BC60ED71EE81EF91E55
:10328000F7FE06C081E0C81AD108E10880E8F80A14
:10329000C882D982EA82FB82C701B6019F77DF919B
:1032A000CF91FF90EF90DF90CF90BF90AF909F9025
:1032B0008F9008958F929F92AF92BF92CF92DF929C
:1032C000EF92FF9260912B0170912C0180912D0162
:1032D00090912E01611571058105910521F464E23B
:1032E00079ED8BE597E02DE133EF41E050E00E946E
:1032F000EE1A49015A019B01AC01A7EAB1E40E9410
:103300000D1B6B017C01ACEEB4EFA50194010E9492
:103310001B1BC60ED71EE81EF91EF7FE06C081E075
:10332000C81AD108E10880E8F80AC0922B01D092AF
:103330002C01E0922D01F0922E01C701B6019F777A
:10334000FF90EF90DF90CF90BF90AF909F908F90C5
:10335000089560932B0170932C0180932D0190931D
:103360002E010895BB272A3051F4992342F4BDE27F
:1033700090958095709561957F4F8F4F9F4F0C94DE
:10338000C219BB27FA01A62F6217710581059105A5
:10339000330B30FB66F0AA27660F771F881F991F33
:1033A000AA1FA21710F0A21B63953850A9F7A05DC1
:1033B000AA3308F0A95DA19336F7B111B193108239
:1033C000CA010C94E319DC01FC01672F719177238A
:1033D000E1F7329704C07C916D9370836291AE17D0
:1033E000BF07C8F30895E89409C097FB3EF4909591
:1033F0008095709561957F4F8F4F9F4F9923A9F0CE
:10340000F92F96E9BB279395F6958795779567955C
:10341000B795F111F8CFFAF4BB0F11F460FF1BC0A0
:103420006F5F7F4F8F4F9F4F16C0882311F096E933
:1034300011C0772321F09EE8872F762F05C06623E1
:1034400071F096E8862F70E060E02AF09A95660F9A
:10345000771F881FDAF7880F9695879597F9089553
:103460000E94431A0C94B41A0E94A61A38F00E94C3
:10347000AD1A20F0952311F00C949D1A0C94A31A08
:1034800011240C94E81A0E94C51A70F3959FC1F399
:10349000950F50E0551F629FF001729FBB27F00D02
:1034A000B11D639FAA27F00DB11DAA1F649F662757
:1034B000B00DA11D661F829F2227B00DA11D621FA6
:1034C000739FB00DA11D621F839FA00D611D221F60
:1034D000749F3327A00D611D231F849F600D211D44
:1034E000822F762F6A2F11249F5750409AF0F1F0C7
:1034F00088234AF0EE0FFF1FBB1F661F771F881F30
:1035000091505040A9F79E3F510580F00C949D1AB0
:103510000C94E81A5F3FE4F3983ED4F386957795D0
:103520006795B795F795E7959F5FC1F7FE2B880FD5
:10353000911D9695879597F9089597F99F6780E86B
:1035400070E060E008959FEF80EC089500240A94F5
:103550001616170618060906089500240A9412166E
:103560001306140605060895092E0394000C11F4A1
:10357000882352F0BB0F40F4BF2B11F460FF04C04E
:103580006F5F7F4F8F4F9F4F089557FD9058440FA7
:10359000551F59F05F3F71F04795880F97FB991FB2
:1035A00061F09F3F79F0879508951216130614066F
:1035B000551FF2CF4695F1DF08C0161617061806FC
:1035C000991FF1CF86957105610508940895E894D7
:1035D000BB2766277727CB0197F90895052E97FB20
:1035E0001EF400940E94051B57FD07D00E94571B34
:1035F00007FC03D04EF40C94051B50954095309574
:1036000021953F4F4F4F5F4F08959095809570954E
:1036100061957F4F8F4F9F4F08950E94791BA59F03
:10362000900DB49F900DA49F800D911D11240895BD
:10363000B7FF0C940D1B0E940D1B821B930B08956A
:103640002F923F924F925F926F927F928F929F92B2
:10365000AF92BF92CF92DF92EF92FF920F931F93A0
:10366000CF93DF93CDB7DEB7CA1BDB0B0FB6F89451
:10367000DEBF0FBECDBF09942A88398848885F8491
:103680006E847D848C849B84AA84B984C884DF8002
:10369000EE80FD800C811B81AA81B981CE0FD11DE6
:1036A0000FB6F894DEBF0FBECDBFED010895A1E2C5
:1036B0001A2EAA1BBB1BFD010DC0AA1FBB1FEE1FAC
:1036C000FF1FA217B307E407F50720F0A21BB30BF7
:1036D000E40BF50B661F771F881F991F1A9469F773
:1036E00060957095809590959B01AC01BD01CF01CF
:1036F0000895A29FB001B39FC001A39F700D811DCB
:103700001124911DB29F700D811D1124911D0895EA
:103710000E94CD1A88F09F5798F0B92F9927B7517A
:10372000B0F0E1F0660F771F881F991F1AF0BA9565
:10373000C9F714C0B13091F00E94E71AB1E00895C2
:103740000C94E71A672F782F8827B85F39F0B93FB4
:10375000CCF3869577956795B395D9F73EF4909518
:103760008095709561957F4F8F4F9F4F0895DB0136
:103770008F939F930E940D1BBF91AF91A29F800DCD
:10378000911DA39F900DB29F900D11240895991B38
:1037900079E004C0991F961708F0961B881F7A9548
:1037A000C9F78095089597FB072E16F4009407D06B
:1037B00077FD09D00E94E71B07FC05D03EF49095E9
:1037C00081959F4F0895709561957F4F0895AA1B2D
:1037D000BB1B51E107C0AA1FBB1FA617B70710F0FC
:1037E000A61BB70B881F991F5A95A9F7809590952E
:1037F000BC01CD010895EE0FFF1F0590F491E02D5F
:103800000994B0E0A0E0E7E0FCE10C94221B8C01FD
:10381000009751F4CB010E94E9178C01C801CDB784
:10382000DEB7E0E10C943E1BFC01E60FF71F9C01A4
:1038300022503109E217F30708F49DC0D901CD9158
:10384000DC911197C617D70798F0C530D10530F332
:10385000CE0104978617970708F3C61BD70B22974C
:10386000C193D1936D937C93CF010E948518D6CFDD
:103870005B01AC1ABD0A4C018C0E9D1EA091160472
:10388000B0911704512C412CF12CE12C109731F5FB
:1038900080911404909115048815990509F05CC075
:1038A0004616570608F058C08091250190912601D0
:1038B000009741F48DB79EB74091290150912A019C
:1038C000841B950BE817F90708F055C0F093150411
:1038D000E0931404F90171836083A0CF8D919C91D2
:1038E000119712966C90129713967C901397A815C7
:1038F000B90559F56C0142E0C40ED11CCA14DB04B1
:1039000020F1AC014A195B09DA011296159780F093
:103910006282738251834083D9016D937C93E11459
:10392000F10471F0D7011396FC93EE93129776CFC2
:1039300022968C0F9D1FF90191838083F301EFCFB5
:10394000F0931704E093160469CF4816590608F45B
:103950002C017D01D3019ACFCB010E94E9177C0194
:10396000009749F0AE01B8010E94BE1CC8010E9438
:103970008518870153CF10E000E050CFFB01DC0138
:1039800002C001900D9241505040D8F70895FB01BC
:10399000DC0101900D920020E1F70895F894FFCF2B
:1039A0000104000000000000000000000000000012
:1039B0000000000000020002000000000000000003
:1039C000000000000000001804800001000000005A
:1039D000000000FE08F906EF09EE090D0A004C4F41
:1039E000414445520073636F72653A200056696323
:0639F000746F72792100E2
:00000001FF
