:100000000C941A030C9442030C9442030C94420384
:100010000C9442030C9442030C9442030C9442034C
:100020000C9442030C9442030C9442030C94420E31
:100030000C9442030C9442030C9442030C9442032C
:100040000C94F80D0C9442030C9442030C9442035C
:100050000C9442030C9442030C9442030C9442030C
:100060000C9442030C9442030101FF030101F703C6
:100070004500680100006C00680005008930080236
:100080003802497868140000050038016801000052
:10009000175344001613780016131400151020008F
:1000A00015201000540A03E181867F3E186D830FEE
:1000B0000F0E0183866033186DC3198F1803C38E2A
:1000C0006033186DE330CF1803C39E603630CDE344
:1000D00060CF3006C79E7E3E30CDB360CF300CC6B9
:1000E000F6603330D9B660CF33CFCCF66061B0DB89
:1000F0001E60CF30D86CE6C061B0DB1E618F1998EE
:100100006CC6C063B19B0E330F0FB078C6FF7E1F65
:100110001B061E0F616E6F746865723230343800D2
:1001200005077F4141417F3E5B4F5B3E3E6B4F6B1E
:100130003E183C783C18183C7E3C181C577D571CD8
:100140001C5E7F5E1C007E43437E007E73737E00D8
:100150007E7F7F7E7F4141417F30483A060E0629EF
:100160007929067F4141417F60703F02042A1C3695
:100170001C2A7F3E1C080000081C3E7F14227F22A0
:10018000143C3C3C7EFF18423C817E3E6375633EDE
:100190003E616B633E3E636B6B3E04027F02041064
:1001A000207F201008082A1C08081C2A0808143E72
:1001B000554122637569756310181C1810040C1CD6
:1001C0000C04000000000000005F000000070007B2
:1001D00000147F147F14042A7F2A102313086462FA
:1001E00036495620500008070300001C2241000039
:1001F00041221C002A1C3E1C2A08083E080800E078
:10020000600000080808080800606000006010082E
:1002100004033E5149453E00427F40006251494936
:10022000462141494D331814127F10274545453961
:100230003C4A4949304121110907364949493606A6
:100240004949291E000024000000806400000814B1
:1002500022410014141414140041221408020159FC
:1002600009063E415D594E7C1211127C7F49494975
:10027000363E414141227F4141221C7F494949414B
:100280007F090909013E414151327F0808087F007A
:10029000417F41002041413F017F081422417F40BE
:1002A0004040407F020C027F7F0204087F3E4141B4
:1002B000413E7F090909063E416141BE7F09192976
:1002C00046264949493201017F01013F4040403FF4
:1002D0001F2040201F3F4038403F63140814630331
:1002E000047804036151494543007F414100030400
:1002F0000810600041417F000402010204808080F8
:100300008080000307080020545478407F2844442C
:10031000383844444428384444287F3854545418C6
:10032000087E09090218A4A49C787F0804047800B8
:10033000447D4000006080847D7F1010284400418F
:100340007F40007C047804787C08040478384444B6
:100350004438FC1824241818242418FC7C080404AD
:10036000080854545420043F4444203C4040207C1E
:100370001C2040201C3C4020403C44281028444C79
:100380009090907C4464544C440008364100000036
:100390007F00000041360800180408100C7F41411E
:1003A000417F00000000240027002A000000000018
:1003B000250028002B000A0A153A49676E6F7265FE
:1003C000006D560A0A504C45415345205455524E33
:1003D000204F464620004C4F57204241545445522E
:1003E0005921200003053F213F1208120A100A0E6E
:1003F0001C0E0C1E0C141A14161F161E131E1E1B88
:100400001E1E1F1E3F213F3A2F3A173D173F213F27
:10041000181F02040A041F0E04040E1F0A1F0A0EEE
:100420000E1F04110E2E252E2F2A2E262929021FDB
:1004300002081F08150E04040E150E15151B151BBA
:10044000040604040C040000000017000300031F4E
:100450000A1F16371A1904130A153A000300000E72
:1004600011110E000A040A040E04003000040404F2
:100470000010001804031F111F121F101D15171163
:10048000151F07041F17151D1F151D01011F1F151F
:100490001F17151F000A00003200040A110A0A0A79
:1004A000110A040115020E11171E051E1F150A0E52
:1004B000110A1F110E1F15111F05010E111D1F041A
:1004C0001F111F1108100F1F041B1F10101F061FE4
:1004D0001E040F0E110E1F09060E112E1F051A12F3
:1004E0001509011F011F101F0F180F1F0C1F1B04E0
:1004F0001B031C03191513001F11030418111F00FF
:100500000201022020200001020C121E1F120C0CFE
:1005100012120C121F0C1A14041E05242A1E1F028C
:100520001C141D1020201D1F0814111F101E041E56
:100530001E021C0C120C3E0A040C123E1E04021475
:10054000160A020F120E101E0E100E1E081E120C9E
:100550001226281E322A26041E21001F00211E04F6
:100560000102013F213FF6E8DBCFC3B8AEA49B9266
:100570008A827B746E68625C57524E4945413E3AAE
:100580003734312E2C2927252321172B1520102015
:100590004C4F4144455200172B16201314000A4EAD
:1005A0006F2053442063617264206F720A6E6F2063
:1005B0004C4F414445522E4845580A0A153A457851
:1005C0006974001D20466C617368696E670A20209B
:1005D0006C6F616465722E2E2E0A0A444F4E2754AA
:1005E000205455524E204F46462100000000002363
:1005F0000026002900040404040404040402020286
:100600000202020303030303030102040810204053
:1006100080010204081020010204081020000000DC
:1006200008000201000003040700000000000000B1
:1006300000005F1611241FBECFEFD8E0DEBFCDBF94
:1006400011E0A0E0B1E0EAE8F6E302C005900D9207
:10065000AA34B107D9F724E0AAE4B1E001C01D92A1
:10066000AC30B207E1F713E0CAE1D3E004C0219750
:10067000FE010E94701AC931D107C9F70E94830E8A
:100680000C94431B0C94000090E0880F991FE0919C
:10069000B503F091B603E80FF91F2591349130931B
:1006A000C6032093C503F901859194919091AA0303
:1006B000989F802D11248093C703F901659174914F
:1006C000472F50E08417150629F020F0F9012591F5
:1006D0003491832F989F802D11248093C80308950F
:1006E000833081F028F4813099F08230A9F00895A8
:1006F0008730A9F08830C9F08430B1F4809180004F
:100700008F7D03C0809180008F7780938000089553
:1007100084B58F7784BD089584B58F7DFBCF80919C
:10072000B0008F778093B00008958091B0008F7DE6
:10073000F9CF1F93CF93DF93282F30E0F901E35EC9
:10074000F94F8491F901E75FF94FD491F901EB502A
:10075000FA4FC491CC23A9F0162F81110E94700387
:10076000EC2FF0E0EE0FFF1FE455FC4FA591B49184
:100770008FB7F894EC91111108C0D095DE23DC936B
:100780008FBFDF91CF911F910895DE2BF8CFCF93CC
:10079000C82FF89460E08091DE030E949903809155
:1007A000DF0318161CF460E00E949903CEBD000020
:1007B0000DB407FEFDCF8EB58091DF0318161CF433
:1007C00061E00E9499037894CF9108950F931F934D
:1007D000CF938091DB038F5F8093DB0301E811E00F
:1007E000C0E08C2F80640E94C70380E80E94C7038A
:1007F00061E08091DE030E9499038091DF03181667
:100800001CF460E00E949903F80184E591919EBD7B
:1008100000000DB407FEFDCF9EB58150B9F7809161
:10082000DF0318161CF461E00E949903CF5F0C5A95
:100830001F4FC630B1F680E4CF911F910F910C94F9
:10084000C703CF93DF9390E0FC01E75FF94F24915A
:100850008B509A4FFC0184918823C9F090E0880F57
:10086000991FFC01EE55FC4FA591B491FC01E45594
:10087000FC4FC591D49161110DC09FB7F8948C9134
:10088000209582238C938881282328839FBFDF9122
:10089000CF910895623051F49FB7F8943C91822F24
:1008A000809583238C93E8812E2BEFCF8FB7F8941C
:1008B000EC912E2B2C938FBFEACFFF920F931F93B7
:1008C000CF93DF93C1E8D3E0FF24FA9462E08A85F6
:1008D0000E9421042A8530E0F901E35EF94F8491FA
:1008E000F901E75FF94F0491F901EB50FA4F1491C8
:1008F0001123E1F081110E947003E12FF0E0EE0F6F
:10090000FF1FE551FA4FA591B491EC9189890E230F
:1009100069F0811113C0219683E0C838D807B1F679
:10092000DF91CF911F910F91FF90089589898F5F7B
:10093000898B60E08A850E942104EDCF8F3F11F4FE
:10094000198AF7CFF98AF5CF1F93CF93DF93182F2A
:10095000EB0161E00E942104209739F460E0812FCF
:10096000DF91CF911F910C949903CF3FD10511F4E2
:1009700061E0F5CFE12FF0E0E35EF94FE491E33081
:1009800031F140F4E130B1F0E230E1F0C038D105AE
:100990007CF7E4CFE73029F1E83059F1E430B1F7E2
:1009A00080918000806280938000D0938B00C09300
:1009B0008A0004C084B5806884BDC7BDDF91CF9133
:1009C0001F91089584B5806284BDC8BDF7CF809122
:1009D0008000806880938000D0938900C093880055
:1009E000EDCF8091B00080688093B000C093B300D9
:1009F000E5CF8091B00080628093B000C093B400D6
:100A0000DDCF8E50806480937C0080917A0080647A
:100A100080937A0080917A0086FDFCCF80917800E7
:100A20009091790008958091A5038F7149F584E133
:100A30000E940105BC01990F880B990B0E946A184E
:100A400026EE3FE34EEC50E40E94A5180E94FD19EB
:100A50009B0170939C0360939B03672BB9F084E028
:100A600080939A03EDE9F3E080E0419151912417DE
:100A7000350718F480939A0308958F5F8430A9F79F
:100A80008091A5038F5F8093A50308958FEF8093D6
:100A90009A03F6CF3FB7F894809174019091750155
:100AA000A0917601B091770126B5A89B05C02F3F94
:100AB00019F00196A11DB11D3FBFBA2FA92F982F84
:100AC0008827BC01CD01620F711D811D911D42E07F
:100AD000660F771F881F991F4A95D1F708958F9247
:100AE0009F92AF92BF92CF92DF92EF92FF924B0113
:100AF0005C010E944A056B017C010E944A056C1949
:100B00007D098E099F09683E734081059105A8F310
:100B100021E0821A9108A108B10888EEC80E83E08E
:100B2000D81EE11CF11C81149104A104B10429F721
:100B3000FF90EF90DF90CF90BF90AF909F908F90FD
:100B40000895DC01ED91FC910190F081E02D099474
:100B5000AF92BF92CF92DF92EF92FF920F931F93CB
:100B6000CF93DF936C017B018B01040F151FEB0109
:100B70005E01AE18BF08C017D10759F06991D601C0
:100B8000ED91FC910190F081E02DC6010995892B32
:100B900079F7C501DF91CF911F910F91FF90EF90F1
:100BA000DF90CF90BF90AF900895FC01178A158A0F
:100BB00014A213A2108E1092780110927901109253
:100BC0007C011092B4000895CF93DF93E091AF03BE
:100BD0008E2F90E0880F991FE091AD03F091AE0346
:100BE000E80FF91F859194918F3F980729F410928F
:100BF000A603DF91CF9108959093B2039927880FB0
:100C0000991FE091B003F091B103E80FF91FC5916E
:100C1000D49186EA93E00E94D505D093B403C093A3
:100C2000B3031092B9031092B80381E08093A70335
:100C300089E08093BC031092BF031092C10310920D
:100C4000C3038091AF038F5F8093AF03D2CFCF9365
:100C5000DF93EC010E94D50580E790E09E878D87A9
:100C60001B8A1A8A81E0898389E08E8B198E1B8EFC
:100C70001D8EDF91CF910895DC01FB0184918F5F80
:100C800014968C9314973196E491EF5F1596EC933C
:100C900015976E5F7F4F5F967C936E935E97089576
:100CA000DC01643570F5403360F590968C91909737
:100CB000E62F062E000CFF0B242F25952595259554
:100CC00094E52902E00DF11D1124EF57FE4F20811C
:100CD000342F37708230B1F4822F90E0032E02C09F
:100CE000959587950A94E2F780958170811114C0DB
:100CF00081E090E001C0880F3A95EAF78095822361
:100D000080830895833091F71C968C9181706427BD
:100D1000609561708613ECCF81E090E001C0880F90
:100D20003A95EAF7822BECCFAF92BF92CF92DF9247
:100D3000EF92FF920F931F93CF93DF93182F062FFD
:100D4000C0E0D3E08AEFD82E9EEFE92E842F847086
:100D5000C82E842F8270B82E842F8870A82E4170E0
:100D6000F42ECF5F8C2F880F8F5FE80ECC2081F0A0
:100D7000402F4D0F612F6C0F8FEC93E00E945006B7
:100D8000402F4C0F6D2F610F8FEC93E00E945006A7
:100D9000BB2081F0402F4D1B612F6C0F8FEC93E037
:100DA0000E945006402F4C1B6D2F610F8FEC93E07B
:100DB0000E945006AA2081F0402F4C0F612F6D1B1E
:100DC0008FEC93E00E945006402F4D0F612F6C1B5B
:100DD0008FEC93E00E945006FF2081F0402F4C1BC7
:100DE000612F6D1B8FEC93E00E945006402F4D1B2E
:100DF000612F6C1B8FEC93E00E945006CD173CF4E2
:100E0000E7FCAFCFD150D394D394ED0CAACFDF91B0
:100E1000CF911F910F91FF90EF90DF90CF90BF90F7
:100E2000AF9008950F931F93CF93DF93D82F162F72
:100E3000042FC0E0C0174CF4412F4C0F6D2F8FECE6
:100E400093E00E945006CF5FF5CFDF91CF911F91C5
:100E50000F9108958F929F92AF92BF92CF92DF929F
:100E6000EF92FF920F931F93CF93DF93082FA62E3D
:100E7000842E922E83E0F82ED0E0C3E09AEFE92E84
:100E80001EEFBB24B394B20EDF5F1F0D4C2F440F37
:100E90006A2D6C1BC92CCF0CDA2CDD1A81E04B0DAE
:100EA000881215C0802F8D0F0E9412074C2D6D2DBA
:100EB0008C2F800F0E941207DC1794F417FD04C0DA
:100EC000C150E394E3941E0DF394F394DDCF802F8F
:100ED0008D1B0E9412074C2D6D2D802F8C1BEACF8D
:100EE000DF91CF911F910F91FF90EF90DF90CF9006
:100EF000BF90AF909F908F900895CF92DF92EF9226
:100F0000FF920F931F93CF93DF937C01D62EC22EB7
:100F1000C42F002E000C110B040F111D47FD1A9554
:100F20008C2F0C2E000C990B801791076CF4D0E0DD
:100F3000DC1544F46D2D6D0F4C2FC7010E94500637
:100F4000DF5FF6CFCF5FECCFDF91CF911F910F9195
:100F5000FF90EF90DF90CF9008954F925F926F9245
:100F60007F928F929F92AF92BF92CF92DF92EF9239
:100F7000FF920F931F93CF93DF93EC016A3049F4F4
:100F800028859D818A85299F800D11248A8719864D
:100F9000A6C06D3009F4A3C0898483E588150CF4DC
:100FA00087C0DA848FE28D150CF482C018852C81FD
:100FB0002150330B129FC001139F900D1124880DF7
:100FC000911D87FC9A95181619060CF071C02D8199
:100FD0008D2D0D2C000C990B129F800D911D11244D
:100FE000181619060CF064C078A0C82C912CE62EB7
:100FF000F12C292D092C000C330B8C8190E0281743
:1010000039070CF054C00197E0E02817390771F058
:10101000E89EF001E99EF00DF89EF00D11242E0FD0
:101020003F1FEE8DFF8DE20FF31FE4915D2C612CCD
:10103000492C480C2D81862D062C000C990B281765
:10104000190691F18CF1AE2EB12CE0FF16C01130D3
:1010500061F4462D4D0D642DCE010E945006F50120
:10106000F595E7956394510EE5CF012F212F452D7E
:101070006C2DCE010E947D07F2CF89A198A189171E
:1010800071F388A3113041F4462D4D0D642DCE012E
:101090000E94500678A2E3CF012F212F452D6C2D01
:1010A000CE010E947D07F6CF9394C10EA2CF78A205
:1010B00028853C818985239F800D112489879F8104
:1010C000992369F0082E000C990B44E550E0239F0A
:1010D000401951091124481759070CF452CF81E0E7
:1010E00090E0DF91CF911F910F91FF90EF90DF90F3
:1010F000CF90BF90AF909F908F907F906F905F90B8
:101100004F9008950F931F93CF93DF938C01D0E0FE
:10111000C0E0F801EC0FFD1F6491662341F08FECF5
:1011200093E00E94AD07892B11F02196F2CFCE01FA
:10113000DF91CF911F910F910895089590E080E085
:101140000895FB0101900020E9F73197AF01461B9C
:10115000570BDC01ED91FC910280F381E02D0994A5
:10116000CF93DF930E948208EC0167E371E08FEC7C
:1011700093E00E94A1088C0F9D1FDF91CF910895ED
:10118000E1E8F1E088EF91E0DF019C011D92215040
:101190003040E1F71092D8031092D90383EC95E028
:1011A0000E9482080E94E6038CB583608CBD8DB5D9
:1011B0008E7F8DBD8AE391E0EEEFFFE309951092FB
:1011C000D5038EE995E00E94B0080E94E6030E94D4
:1011D0005D0480919603813039F062E370E080E035
:1011E00090E00E946F05F3CF08958F929F92AF9287
:1011F000BF92EF92FF920F931F93CF93DF93CDB7E0
:10120000DEB7A1970FB6F894DEBF0FBECDBF7C014D
:10121000FA01CB0119A2223008F42AE08E010F5DF9
:101220001F4F822E912CB12CA12CBF01A50194013E
:101230000E94CC19F901CA016A300CF5605DD80131
:101240006E938D01232B242B252B79F790E080E0E2
:10125000109721F0BD01C7010E94A108A1960FB609
:10126000F894DEBF0FBECDBFDF91CF911F910F91DC
:10127000FF90EF90BF90AF909F908F900895695C22
:10128000DECF4F925F926F927F928F929F92AF923A
:10129000BF92CF92DF92EF92FF920F931F93CF9363
:1012A000DF9300D000D01F92CDB7DEB7409101048C
:1012B0005091020460910304709104042FB7F894D4
:1012C00080917D0190917E01A0917F01B09180017C
:1012D0002FBF481B590B6A0B7B0B8091000490E0D9
:1012E000B0E0A0E00091FC031091FD032091FE030B
:1012F0003091FF0384179507A607B70708F0CEC003
:10130000011511052105310509F4C8C02FB7F8945E
:1013100080917D0190917E01A0917F01B09180012B
:101320002FBF20910004820F911DA11DB11D80933C
:10133000010490930204A0930304B09304048091E9
:10134000F2039091F303A091F403B091F503019699
:10135000A11DB11D8093F2039093F303A093F403B6
:10136000B093F5031092FC031092FD031092FE035C
:101370001092FF030E944A056093F8037093F903EB
:101380008093FA039093FB038091820390918303EF
:101390002FE0289FA001299F500D11245A834983D3
:1013A00085E10E940105A981BA818A0F9B1FB4E0E3
:1013B00096958795BA95E1F790938303809382037E
:1013C00020918103222309F448C060918503262FD0
:1013D00030E050E040E029833A834B835C83C09047
:1013E0008603D12CF12CE12C4091890350918A0382
:1013F0004A01B12CA12C2091870330918803290147
:10140000712C612C8217930728F09C01481759070B
:1014100008F49A0150E040E02419350946095709BB
:1014200069817A818B819C816C197D098E099F0964
:101430000E942C1AA501940124193509460957095F
:101440000E946319C20ED31EE41EF51EC0928403CF
:101450006C2D70E085E00E94A4040E945D048091E0
:101460009D0390919E03892B11F00E94130581E04A
:101470000F900F900F900F900F90DF91CF911F91D1
:101480000F91FF90EF90DF90CF90BF90AF909F9023
:101490008F907F906F905F904F900895012B022B5B
:1014A000032B09F073C18091980381508E3F18F58A
:1014B000809197038130F9F48091AB038F5F609145
:1014C000AC0387FD09C0082E000C990B70E06F5F1C
:1014D0007F4F0E94481A682F6093AB0387E995E01D
:1014E000909306048093050488E48093070486EAB9
:1014F00093E00E9427068091980381508E3F70F4FC
:1015000080919603813009F01AC38AE895E09093A0
:1015100006048093050488E4809307048091A60361
:10152000882331F08091A703811102C00E94E40555
:101530008091A703882309F43EC08091BB038111E9
:101540003AC08091B3039091B403E091B803F09155
:10155000B903EE0FFF1FE80FF91F259134912115F4
:10156000310509F46AC1A9015695479556954795E5
:10157000842F20FD0DC18F738093BA038091AA033D
:10158000839F802D11248093BB031092CB03109274
:10159000CA031092C90381E08093BD0380937C014C
:1015A0001092BE038091B8039091B9030196909375
:1015B000B9038093B8038091BD03882341F08091E3
:1015C000BB03811156C186EA93E00E94D505809144
:1015D0000704882309F490C08C3008F034C23CE042
:1015E000381B3983FF24F394F092D7031092EF0352
:1015F0001092F0034091D4034D831981141B042FE2
:101600000D5F4DE2410F2EE463E08FEC93E00E940A
:101610007D075D8154505D83105D252F41E0612F72
:1016200080E50E942A072D8142E0612F83E00E941D
:101630002A07F092EF03F092F0030091D40383E0C5
:10164000800F8D831981101B9DE2E92EE10E23E0AE
:10165000F22E4E2D6F2D8FEC93E00E945006F394E6
:1016600091E5F912F6CFAD81AE0DAD83EA2EEA9485
:1016700083E0F82E4E2D6F2D8FEC93E00E945006E4
:10168000F394B1E5FB12F6CF0350105D402F612FAC
:1016900080E00E941207402F612F83E50E9412070D
:1016A00041E0612F83E00E94940642E0612F80E5D3
:1016B0000E9494062D8124502D8344E0622F80E502
:1016C0000E94940648E06D8183E00E94940684E0C5
:1016D0008093D8038091D4033981381B315D3093D6
:1016E000D90380910504909106040E94820880919C
:1016F000070481508093070480919D0390919E037D
:10170000892BE1F041E04093EF031092F0039091B8
:10171000D30385E5891B8093D8031092D903609188
:101720009A03613009F4EFC108F48FC180919903E5
:10173000653008F0FFC16B5F8111F7C10E94E603BD
:101740008091D50381110EC0E1E8F1E088EF91E0CE
:10175000DF019C011D9221503040E1F71092D80327
:101760001092D9030E944A056093FC037093FD0315
:101770008093FE039093FF032091F8033091F903C7
:10178000621B730B7093F7036093F60380E070CED7
:10179000C901E6E096958795EA95E1F78F71932F59
:1017A00096959695969590514F70423099F1D0F458
:1017B000442309F43CC04130B9F1E091B803F09101
:1017C000B9033196F093B903E093B803CF01880FC2
:1017D000991FE091B303F091B403E80FF91F25912D
:1017E0003491C1CE433061F0443039F72091AA03DF
:1017F000289F802D11248093C3039093C403DDCFD1
:101800002091AA03289F802D11248093C1039093D7
:10181000C203D3CF2091AA03289F802D1124809347
:10182000BF039093C003C9CF0E944403C6CF8B303F
:1018300008F08AE08093BC03C0CF2091B703211148
:1018400012C01092A7038091A603811105C086EAF9
:1018500093E00E94D505AFCE0E94E4058091B803C5
:101860009091B903B4CF1092B9031092B803FC0160
:10187000B6CF81508093BB038091CB03811142C0CE
:101880002091C9033091CA032F5F3F4FC901880FD0
:10189000991FE091C503F091C603E80FF91F8591E8
:1018A0009491482F47704093CC03492F4695469515
:1018B0004093CD03AC0164E0569547956A95E1F7F6
:1018C0004F739091AA03499F402D11244093CB035D
:1018D00083FB882780F980937B013093CA03209390
:1018E000C9038091C70390E02817390758F0209169
:1018F000C803222309F49FC0821B91099093CA0355
:101900008093C9038091CB0381508093CB03809156
:10191000BE0331E0380F3093BE034091BA032091EB
:10192000CD03240F8091B203280F2093A803609168
:10193000C103662371F070E0832F032E000C990B16
:101940000E94481A8091C203869F200D1124209383
:10195000A8038091A80390E0849664E270E00E945E
:10196000481A8093A8032091BC032093A903609197
:10197000BF03662381F0062E000C770B832F032E06
:10198000000C990B0E94481A8091C003869F200D7D
:1019900011242093A9036091C3036623A1F0832F30
:1019A000330F990B70E00E94481ACB0162E070E09F
:1019B0000E94481A2091C4039091A903289F900D7A
:1019C00011249093A9034F3309F43AC08091A903DD
:1019D0008A300CF089E087FD80E08093A903F894B9
:1019E000E091A803F0E0EA59FA4FE491E0937A011C
:1019F0002091CE033091A90332039001112440912C
:101A0000CC034203C001439F900D11242091AB03EE
:101A100002C0880F991F2A95E2F797FF02C08158EC
:101A20009F4F880F892F881F990B8093790180938E
:101A300078017894CCCD86EA93E00E94D50562CFF8
:101A40001092A903CCCF1982CDCD86EA93E00E94F3
:101A5000D5051092A70351E05093D70364EE73E0CD
:101A60008FEC93E00E943C0610929E0310929D031F
:101A70001092D50388EA89830E9441098823E1F303
:101A800086ED93E00E94820840919B0350919C0355
:101A900070E060E02AE08FEC93E00E94F50881ECB2
:101AA00093E00E948208498142954F7050E070E0B7
:101AB00060E02AE08FEC93E00E94F50886EB93E06B
:101AC0000E94820880919603813009F437CE998173
:101AD000915099839111D0CF70E060E085E00E9431
:101AE000A40483B7817F846083BF83B7816083BF91
:101AF00083B7816083BF889583B78E7F83BF83B7A9
:101B00008E7F83BFB9CF8091F2039091F303A091B0
:101B1000F403B091F5038F709927AA27BB2767E0DC
:101B20000897A105B10508F068E78FEC93E00E94E3
:101B3000A10504CE882309F401CE6FE2F6CF8932E5
:101B400009F0ECCC0E94C008E9CC0F931F93CF930F
:101B5000DF93EC0188819981009759F02A813B81BC
:101B60002617370730F081E0DF91CF911F910F9159
:101B700008958B016F5F7F4F0E94761A009759F08E
:101B8000998388831B830A832C813D81232B59F7FA
:101B9000FC011082E8CF80E0E7CFEF92FF920F9335
:101BA0001F93CF93DF93EC017B018A01BA010E945E
:101BB000A50D28813981811114C02115310519F035
:101BC000C9010E940617198218821D821C821B827D
:101BD0001A82CE01DF91CF911F910F91FF90EF906C
:101BE00008951D830C83B701C9010E943C1BF1CFEE
:101BF0001F920F920FB60F9211242F933F938F9342
:101C00009F93AF93BF9380917D0190917E01A091AE
:101C10007F01B09180013091730123E0230F2D37B4
:101C200058F50196A11DB11D2093730180937D018C
:101C300090937E01A0937F01B09380018091740105
:101C400090917501A0917601B09177010196A11D47
:101C5000B11D8093740190937501A0937601B093A8
:101C60007701BF91AF919F918F913F912F910F90ED
:101C70000FBE0F901F90189526E8230F0296A11D06
:101C8000B11DD2CF1F920F920FB60F9211242F9336
:101C90006F937F938F939F9360917901662349F1AE
:101CA00080914A018F5F80934A0190917A01891750
:101CB00000F120917C0181E0282720937C01109283
:101CC0004A0180917B01882369F08091000193E4AF
:101CD000899F802D1124895B809300010E943C1A0A
:101CE0009093780180917801211101C080E0809368
:101CF000B4009F918F917F916F912F910F900FBEA4
:101D00000F901F901895CF93DF93CDB7DEB76897EC
:101D10000FB6F894DEBF0FBECDBF789484B5826055
:101D200084BD84B5816084BD85B5826085BD85B57F
:101D3000816085BD80916E00816080936E001092FD
:101D40008100809181008260809381008091810078
:101D50008160809381008091800081608093800009
:101D60008091B10084608093B1008091B000816067
:101D70008093B00080917A00846080937A00809193
:101D80007A00826080937A0080917A0081608093EB
:101D90007A0080917A00806880937A001092C10066
:101DA00082E38093000481E090E0A0E0B0E08093C3
:101DB000FC039093FD03A093FE03B093FF038FEF0A
:101DC0008093F103E0E8F7E7259134912130304C1E
:101DD00009F06BC2E6E9F7E7E491E093DA03E7E99B
:101DE000F7E7E491E0938503E8E9F7E7E491E0930E
:101DF0008603E9E9F7E785919491909388038093AE
:101E00008703EBE9F7E78591949190938A03809398
:101E1000890387E08093AC03EEE9F7E7E491E09370
:101E2000AB03EFE9F7E7E491E093F103E0EAF7E7CA
:101E30008591949190939E0380939D03E2EAF7E746
:101E4000859194919093A00380939F03E4EAF7E730
:101E5000859194919093A2038093A103E6EAF7E71A
:101E6000859194919093A4038093A30311E0109320
:101E700081036FEF70E085E00E94A40488E0809306
:101E80008B0389E080938C0387E080938D0386E049
:101E900080938E0304E000938F0382E0809390038D
:101EA00081E1809391030E945D048CE39FE0909315
:101EB0009C0380939B0300939A031093A5038BE0EC
:101EC0008093DD038DE08093DC0380E18093DE036B
:101ED0008EE08093E0038FE08093DF031093D703BD
:101EE0001093EF031092F0031093D60364EE73E0A7
:101EF0008FEC93E00E943C061FB7F89480914B0151
:101F0000811127C0EFEFF5E08491E3E1F6E09491D1
:101F1000E82FF0E0EE0FFF1FEE55FC4FA591B491B6
:101F2000EC91E92321F461E08AE00E94990361E0E9
:101F30008AE00E9421048CB580618CBD8CB58064E0
:101F40008CBD61E08DE00E94210461E08BE00E9485
:101F5000210480914B018F5F80934B011FBF8CB593
:101F60008F7D8CBD8CB58C7F81608CBD8DB5816083
:101F70008DBD8CB58C608CBD61E08091DD030E94CD
:101F8000210461E08091DC030E94210461E08091E2
:101F9000DE030E9421048091E00318161CF461E026
:101FA0000E9421048091DF0318161CF461E00E9456
:101FB00021048091E003181674F460E00E949903F4
:101FC0006AE070E080E090E00E946F0561E080913F
:101FD000E0030E9499038091DC03082E000C990B0A
:101FE000FC01EB50FA4FE491F0E0EE0FFF1FE455D7
:101FF000FC4F259134913093E4032093E303FC01DB
:10200000E75FF94FE491E093EA038091DD03082E46
:10201000000C990BFC01EB50FA4FE491F0E0EE0F4D
:10202000FF1FE455FC4F259134913093E203209338
:10203000E103FC01E75FF94FE491E093E90380914C
:10204000DF03082E000C990BFC01EB50FA4FE491D2
:10205000F0E0EE0FFF1FE455FC4F259134913093D3
:10206000E6032093E503FC01E75FF94FE491E09379
:10207000EB038091DE03082E000C990BFC01EB5062
:10208000FA4FE491F0E0EE0FFF1FE455FC4F25916D
:1020900034913093E8032093E703FC01E75FF94FA5
:1020A000E491E093EC0381E20E94C70384E10E9483
:1020B000C7038091DA0387FF03C08FE78093DA03B9
:1020C0008091DA0380680E94C70380E20E94C70300
:1020D0008CE00E94C7030E94E60381E08093AA037C
:1020E00084E08093CE0386E790E09093B6038093DC
:1020F000B50380E00E94440361E070E083E00E9449
:10210000A4048091B100887F81608093B100F8942D
:10211000109280001092810010928500109284002D
:1021200088E191E0909389008093880080918100FC
:10213000886080938100809181008160809381001C
:1021400080916F00826080936F00789480919D03EE
:1021500090919E03892B11F00E94130580919703A3
:10216000813009F4CFC080919A03882309F4CAC052
:1021700086EA93E00E94D5058AE790E09093B40345
:102180008093B3031092B9031092B80381E0809357
:10219000A70389E08093BC031092BF031092C10390
:1021A0001092C30360E271E08FEC93E00E943C0662
:1021B0008091F103882309F4B1C181E08093D703B2
:1021C0001092D6031092D503109299038093EF03D7
:1021D0008093F00335EA832E30E0932E11E00CE07B
:1021E0000E9441098823E1F3E4E1F1E08491E4EA0B
:1021F000F0E08491F401C490F090EF03082E000CFD
:10220000990B5C01F7E0AF0EB11CB7FE04C05C0196
:102210002EE0A20EB11C23E0B594A7942A95E1F715
:10222000181619060CF0C9C01C140CF0C6C04C2DB1
:1022300041330CF040E38535910514F084E590E0DE
:10224000E090DB0350E021E831E091E066EA70E0E5
:10225000C42E440FDD08BB245C151D040CF0ADC07A
:10226000FB014491F1E0FF1250C0FB01D9016894D9
:10227000772477F8672C642219F06C90692A6C92A5
:10228000769429F4319644916894772477F81196DE
:102290006A2E621A681670F3990F19F42C5A3F4F80
:1022A00091E05F5F6A0D7B1DD7CF9CE39093DA03CB
:1022B000109285038093860380E293E090938803D5
:1022C0008093870384ED93E090938A03809389033E
:1022D00087E08093AC038093AB038CEA9DE09093FE
:1022E0009E0380939D038EED9DE09093A0038093C9
:1022F0009F0384E79EE09093A2038093A1038CE365
:102300009FE0B0CD1092AB034DCFF1101AC0692EF3
:102310006094FB01D9016894772477F8572C5422F4
:1023200019F05C9056205C92769429F43196449191
:102330006894772477F811965A2E521A581670F32B
:10234000ABCFA3E0FA1221C0492E4094FB01D90182
:102350006894662467F8512C762C742239F07C90AE
:102360003E2C352430FE0FC0792A7C92669429F4E5
:10237000319644916894662467F8539411965816E0
:1023800058F3E12689CF7420F0CFFB01D90168947E
:10239000772477F8672C642219F06C9069266C9288
:1023A000769429F4319644916894772477F81196BD
:1023B0006A2E621A681670F36FCF1092D8030093DA
:1023C000D90384E191E00E9482088091D303982F81
:1023D000990F990F891B8D5A8093D8038091D4034C
:1023E000982F990F990F891B835D8093D903809152
:1023F000F20384FF68C080EA90E00E94B0088091F8
:10240000D303982F990F990F891B8D5A8093D80366
:102410008091D9038F5F8093D9038091AB03882388
:1024200009F454C088E990E00E94B0088091D30379
:10243000982F990F990F891B8D5A8093D8038091FB
:10244000D9038F5F8093D90380E990E00E94B008A0
:10245000809197038130B1F48091AB038F5F6091DD
:10246000AC0387FD09C0082E000C990B70E06F5F6C
:102470007F4F0E94481A682F6093AB0386EA93E06F
:102480000E94270680919603813019F18091F10313
:10249000482F50E070E060E0C090F203D090F3036A
:1024A000E090F403F090F503C416D506E606F706AF
:1024B00010F08F3F71F480919803813009F090CE35
:1024C0000E94C0088DCE8CE990E097CF84E990E01F
:1024D000ABCF8FEF8093F10386EA93E00E94D5059E
:1024E0001092A70386EA93E00E94D50588E890E061
:1024F0009093B4038093B3031092B9031092B8037E
:1025000081E08093A70399E09093BC031092BF03EE
:102510001092C1031092C30380939903C0909B0350
:10252000D0909C03C094D094F12CE12C0E944A05D9
:102530004B015C010E944A05A5019401209530954C
:102540004095509560957095809590950E942C1AB5
:102550009B01AC01C701B6010E942C1A4B015C0122
:10256000C0908203D0908303F12CE12C0E944A0595
:102570006C0D7D1D8E1D9F1D680D791D8A1D9B1D77
:10258000611571058105910511F00E942A181092BC
:102590009903FE0131964F0158E2652E8091720138
:1025A0008F5F809372012FB7F89480917D01909195
:1025B0007E01A0917F01B09180012FBF40916E01FB
:1025C00050916F0160917001709171014817590726
:1025D0006A077B0708F037C131E0232E31E0332E44
:1025E0004CE4442E41E0542ED201F10181919191AD
:1025F0008D939D938681978117969C938E931697C2
:10260000868597851F969C938E931E9786899789BA
:1026100057969C938E93569729E031E02E173F07EB
:1026200029F780919503813009F0A2C090E080E005
:102630008C01000F111F075E1E4F22E030E063E0A7
:1026400070E05801F0E0E0E0AF01460F571FDF01F6
:10265000AA0FBB1FAA0FBB1FAA0FBB1FA00FB11F42
:102660000D90BC91A02DAB2B09F0C7C2AE2FA60FC9
:10267000A33009F4B0C23196E7CF41505109DA01D5
:10268000AA0FBB1FAA0FBB1FA80FB91FAA0FBB1F02
:10269000AF5FBE4FCD92DC922417350709F0D0C250
:1026A00021503109615071090850110961157105F6
:1026B00049F601968430910509F0BACF81E09091F6
:1026C0009303913009F077C0E1E0EE2EE1E0FE2EB9
:1026D00030E020E041E050E08901000F111F0F5F62
:1026E0001E4FCA010197FC0163E0EE0FFF1F6A95C0
:1026F000E1F7EE0DFF1D60817181672BA1F481115F
:10270000F1CFFA01EE0FFF1FEE0FFF1FE20FF31FD5
:10271000EE0FFF1FEF5FFE4F60817181D8016D9357
:102720007C9311821082DC01AA0FBB1FAA0FBB1F72
:10273000A20FB31FAA0FBB1FAF5FBE4F6D917C915D
:102740001197FA01EE0FFF1FEE0FFF1FE20FF31FAD
:10275000EE0FFF1FEF5FFE4FC080D1806C157D052F
:1027600049F4660F771F6D937C931182108213C01A
:1027700080E0A5CF0196DC01AA0FBB1FAA0FBB1FEB
:10278000A20FB31FAA0FBB1FAF5FBE4FCD92DC924B
:102790004817590751F74F5F5F4F4430510509F013
:1027A000A0CF2F5F3F4FB2E0EB0EF11C243031057C
:1027B00009F090CF81E0909192039130E9F5EE24F9
:1027C000EA94FE2C50E040E039E1A32E31E0B32E34
:1027D00063E070E0742E7720F1F0C701FC01EE0F8A
:1027E000FF1FEA0DFB1D20813181232B09F044C21C
:1027F000882309F428C20197F1CF0196D901A80FC7
:10280000B91FAA0FBB1FAF5FBE4FCD92DC92481716
:10281000590709F051C261507109E8E0AE1AB108D8
:102820006F3F7607C1F64F5F5F4F2FEFE21AF20A54
:102830004430510549F681E090919403913009F4B8
:10284000B6C0811134C10E944109882309F4A7C090
:1028500064EE73E08FEC93E00E943C0601E011E02F
:1028600097E0D92E780184E0C82ED092D803C09288
:10287000D903D7014D915C91141615064CF4052E21
:10288000000C660B770B2AE08FEC93E00E94F508B2
:10289000B9E0CB0EE8E0EE0EF11CF8E2CF12E5CF86
:1028A0000E5F1F4F22E1D20E3FE4D312DBCF12E0C6
:1028B00001E028E4412F65E08FEC93E00E947D0762
:1028C000612F660F6F5F04E221E042E08FEC93E03E
:1028D0000E947D07175F1F3259F785E08093D80368
:1028E0006092D90380916C0190916D011C8A1B8AC2
:1028F0001E8A1D8A188E1F8A4AE0B4010E9433186E
:10290000F40101900020E9F73197AF014819590906
:10291000B401CE0143960E94CD0D1A8219821C8209
:102920001B821E821D8247E050E061E471E0C40119
:102930000E94CD0DEB88FC88E114F10409F43EC13E
:102940000F89188D01151105B1F08D819E81080F39
:10295000191FB801C4010E94A50D882309F42EC1D6
:1029600029813A818D819E81B701820F931F0E9438
:102970003C1B1E830D834D815E8169817A818FECC2
:1029800093E00E94A80589819A81009711F00E9426
:1029900006178B899C89009711F00E94061740E06A
:1029A00050E0452B09F4FACD0E940000F5CD14E06B
:1029B000A12EB12C83E090E0BC01660F771F655E0D
:1029C0007E4F43E050E0833009F461C030E020E006
:1029D0008501020F131FF901EE0FFF1FE60FF71F0E
:1029E0000190F081E02DEF2B11F52F5F3F4FE82F85
:1029F000E20FE33069F7FA01EE0FFF1FEE0FFF1F42
:102A0000E80FF91FEE0FFF1FEF5FFE4F20813181AE
:102A1000DA01AA0FBB1FAA0FBB1FAA0FBB1FAF5F14
:102A2000BE4F17963C932E931697118210829A01EF
:102A3000220F331F220F331FD901A00FB11FAA0F7E
:102A4000BB1FAF5FBE4FED90FC901197F901E80FEF
:102A5000F91FEE0FFF1FEF5FFE4FC080D180EC1417
:102A6000FD0439F4EE0CFF1CED92FC9211821082F1
:102A70000EC001501109D901A00FB11FAA0FBB1F31
:102A8000AF5FBE4FCD92DC928017910779F741502E
:102A90005109685071094F3F540709F094CF0197CD
:102AA00041E0A41AB1088F3F980709F085CF2FB7EE
:102AB000F89480917D0190917E01A0917F01B09169
:102AC00080012FBF8C599F4FAF4FBF4F80936E0136
:102AD00090936F01A0937001B093710186EA93E027
:102AE0000E94270621E031E090E080E0F201E80F4B
:102AF000F91F40815181F901E80FF91F608171814F
:102B00004617570779F408968032910579F782E0E5
:102B1000480E511C2E5F3F4FA4E5B1E0A415B5054A
:102B200019F791CE90E020E080E0B4E08B02F00154
:102B30001124E90FF11D97FDFA95EE0FFF1FEF5FCE
:102B4000FE4F40815181452B09F42F5F8F5F843008
:102B500061F79F5F943041F7222331F1022E000C80
:102B6000330B8091720190E0B9010E94481A820FE4
:102B7000931FB9010E94481A94E0F10120E04081BE
:102B80005181452B39F4811104C042E050E051835A
:102B90004083815038962F5F243089F7915052E05E
:102BA000250E311C9111E9CF80916C0190916D013E
:102BB000029690936D0180936C0145CE89819A8134
:102BC000009711F00E9406171A8219821E821D8238
:102BD0001C821B82D0CEF901EE0FFF1FEE0FFF1FEC
:102BE000E80FF91FEE0FFF1FEF5FFE4FE080F1804F
:102BF000D501ED92FC9211821082DA01AA0FBB1F5F
:102C0000AA0FBB1FA80FB91FAA0FBB1FAF5FBE4FF4
:102C1000ED90FC901197F901EE0FFF1FEE0FFF1FD3
:102C2000E80FF91FEE0FFF1FEF5FFE4FC080D1804E
:102C3000EC14FD0409F021CDEE0CFF1CED92FC928A
:102C4000118210822DCDFB01EE0FFF1FEE0FFF1F33
:102C5000E40FF51FEE0FFF1FEF5FFE4F2081318164
:102C6000DB0113E0AA0FBB1F1A95E1F7AF5FBE4F60
:102C70002D933C93118210829B01220F331F220F50
:102C8000331FD901A80FB91FAA0FBB1FAF5FBE4FDB
:102C90000D911C911197F901E40FF51FEE0FFF1F25
:102CA000EF5FFE4FC080D1800C151D0509F0A5CD4A
:102CB000000F111F0D931C9311821082ACCD109246
:102CC000D2031092D1038FE291E09093D0038093CE
:102CD000CF0308950F931F93CF93DF938230910515
:102CE00010F482E090E0E0910A04F0910B0430E0EF
:102CF00020E0B0E0A0E0309799F42115310509F407
:102D00004AC0281B390B24303105D8F58A819B81B4
:102D10006115710589F1FB0193838283FE0111C066
:102D2000408151810281138148175907E0F048170B
:102D3000590799F4109761F012960C931297139615
:102D40001C933296CF01DF91CF911F910F9108957F
:102D500000930A0410930B04F4CF2115310551F0B0
:102D60004217530738F0A901DB019A01BD01DF01C9
:102D7000F801C1CFEF01F9CF90930B0480930A04BF
:102D8000CDCFFE01E20FF31F8193919322503109C1
:102D900039832883D7CF2091080430910904232B4D
:102DA00041F42091230130912401309309042093B0
:102DB000080420912101309122012115310541F4AF
:102DC0002DB73EB74091250150912601241B350BAC
:102DD000E0910804F0910904E217F307A0F42E1B18
:102DE0003F0B2817390778F0AC014E5F5F4F24176F
:102DF000350748F04E0F5F1F5093090440930804B5
:102E0000819391939FCFF0E0E0E09CCFCF93DF934D
:102E10000097E9F0FC01329713821282A0910A0414
:102E2000B0910B04ED0130E020E01097A1F4208177
:102E30003181820F931F20910804309109042817D3
:102E4000390709F061C0F0930904E0930804DF91A9
:102E5000CF910895EA01CE17DF07E8F54A815B813B
:102E60009E0141155105B1F7E901FB83EA834991C0
:102E70005991C40FD51FEC17FD0761F48081918132
:102E80000296840F951FE90199838883828193813B
:102E90009B838A83F0E0E0E012968D919C911397DA
:102EA0000097B9F52D913C911197CD010296820FB3
:102EB000931F20910804309109042817390739F627
:102EC000309751F510920B0410920A04B093090444
:102ED000A0930804BCCFD383C28340815181840F67
:102EE000951FC817D90761F44E5F5F4F888199819C
:102EF000480F591F518340838A819B81938382832A
:102F00002115310509F0B0CFF0930B04E0930A04CA
:102F10009ECFFD01DC01C0CF13821282D7CF8F92EA
:102F20009F92AF92BF92CF92DF92EF92FF92CF9398
:102F3000DF93EC01688179818A819B81611571053C
:102F40008105910521F464E279ED8BE597E02DE1AF
:102F500033EF41E050E00E94631949015A019B019F
:102F6000AC01A7EAB1E40E9482196B017C01ACEECE
:102F7000B4EFA50194010E949019C60ED71EE81E59
:102F8000F91EF7FE06C081E0C81AD108E10880E802
:102F9000F80AC882D982EA82FB82C701B6019F770C
:102FA000DF91CF91FF90EF90DF90CF90BF90AF90E7
:102FB0009F908F9008958F929F92AF92BF92CF92E1
:102FC000DF92EF92FF92609127017091280180912A
:102FD000290190912A01611571058105910521F45E
:102FE00064E279ED8BE597E02DE133EF41E050E0CD
:102FF0000E94631949015A019B01AC01A7EAB1E49F
:103000000E9482196B017C01ACEEB4EFA501940122
:103010000E949019C60ED71EE81EF91EF7FE06C0C4
:1030200081E0C81AD108E10880E8F80AC0922701B7
:10303000D0922801E0922901F0922A01C701B6013D
:103040009F77FF90EF90DF90CF90BF90AF909F90D1
:103050008F90089560932701709328018093290130
:1030600090932A010895BB274A3031F4992322F422
:10307000BDE2909581959F4F0C943F18BB27FB01B3
:103080005527AA27880F991FAA1FA41710F0A41B61
:1030900083955051B9F7A05DAA3308F0A95DA193BB
:1030A000009779F7B111B1931192CB010C94581894
:1030B000DC01FC01672F71917723E1F7329704C09F
:1030C0007C916D9370836291AE17BF07C8F308952A
:1030D000E89409C097FB3EF49095809570956195B2
:1030E0007F4F8F4F9F4F9923A9F0F92F96E9BB2768
:1030F0009395F695879577956795B795F111F8CFE4
:10310000FAF4BB0F11F460FF1BC06F5F7F4F8F4F4E
:103110009F4F16C0882311F096E911C0772321F044
:103120009EE8872F762F05C0662371F096E8862FDC
:1031300070E060E02AF09A95660F771F881FDAF733
:10314000880F9695879597F908950E94B8180C9462
:1031500029190E941B1938F00E94221920F095238A
:1031600011F00C9412190C94181911240C945D1977
:103170000E943A1970F3959FC1F3950F50E0551FC7
:10318000629FF001729FBB27F00DB11D639FAA27BC
:10319000F00DB11DAA1F649F6627B00DA11D661F0B
:1031A000829F2227B00DA11D621F739FB00DA11D2C
:1031B000621F839FA00D611D221F749F3327A00DE6
:1031C000611D231F849F600D211D822F762F6A2F82
:1031D00011249F5750409AF0F1F088234AF0EE0FE7
:1031E000FF1FBB1F661F771F881F91505040A9F714
:1031F0009E3F510580F00C9412190C945D195F3FAD
:10320000E4F3983ED4F3869577956795B795F7954F
:10321000E7959F5FC1F7FE2B880F911D96958795C7
:1032200097F9089597F99F6780E870E060E0089546
:103230009FEF80EC089500240A94161617061806CE
:103240000906089500240A941216130614060506AA
:103250000895092E0394000C11F4882352F0BB0F3B
:1032600040F4BF2B11F460FF04C06F5F7F4F8F4F9E
:103270009F4F089557FD9058440F551F59F05F3FD9
:1032800071F04795880F97FB991F61F09F3F79F088
:1032900087950895121613061406551FF2CF46950A
:1032A000F1DF08C0161617061806991FF1CF86958C
:1032B0007105610508940895E894BB276627772770
:1032C000CB0197F90895052E97FB1EF400940E94F8
:1032D0007A1957FD07D00E94CC1907FC03D04EF491
:1032E0000C947A1950954095309521953F4F4F4F4A
:1032F0005F4F089590958095709561957F4F8F4FA2
:103300009F4F08950E94EE19A59F900DB49F900DB8
:10331000A49F800D911D11240895B7FF0C9482196C
:103320000E948219821B930B08952F923F924F9215
:103330005F926F927F928F929F92AF92BF92CF9245
:10334000DF92EF92FF920F931F93CF93DF93CDB74E
:10335000DEB7CA1BDB0B0FB6F894DEBF0FBECDBFC6
:1033600009942A88398848885F846E847D848C8497
:103370009B84AA84B984C884DF80EE80FD800C81A0
:103380001B81AA81B981CE0FD11D0FB6F894DEBF83
:103390000FBECDBFED010895A1E21A2EAA1BBB1BE3
:1033A000FD010DC0AA1FBB1FEE1FFF1FA217B30711
:1033B000E407F50720F0A21BB30BE40BF50B661F27
:1033C000771F881F991F1A9469F7609570958095EB
:1033D00090959B01AC01BD01CF010895A29FB00162
:1033E000B39FC001A39F700D811D1124911DB29F39
:1033F000700D811D1124911D08950E94421988F0BD
:103400009F5798F0B92F9927B751B0F0E1F0660FA8
:10341000771F881F991F1AF0BA95C9F714C0B130E9
:1034200091F00E945C19B1E008950C945C19672F2B
:10343000782F8827B85F39F0B93FCCF38695779518
:103440006795B395D9F73EF4909580957095619501
:103450007F4F8F4F9F4F0895DB018F939F930E9463
:103460008219BF91AF91A29F800D911DA39F900DD6
:10347000B29F900D11240895991B79E004C0991F03
:10348000961708F0961B881F7A95C9F780950895BE
:1034900097FB072E16F4009407D077FD09D00E9401
:1034A0005C1A07FC05D03EF4909581959F4F0895D6
:1034B000709561957F4F0895AA1BBB1B51E107C012
:1034C000AA1FBB1FA617B70710F0A61BB70B881FB4
:1034D000991F5A95A9F780959095BC01CD01089543
:1034E000EE0FFF1F0590F491E02D0994B0E0A0E0ED
:1034F000ECE7FAE10C9497198C01009751F4CB0199
:103500000E946A168C01C801CDB7DEB7E0E10C94C9
:10351000B319FC01E60FF71F9C0122503109E21795
:10352000F30708F49DC0D901CD91DC911197C6171E
:10353000D70798F0C530D10530F3CE010497861730
:10354000970708F3C61BD70B2297C193D1936D93AE
:103550007C93CF010E940617D6CF5B01AC1ABD0A3F
:103560004C018C0E9D1EA0910A04B0910B04512CAD
:10357000412CF12CE12C109731F5809108049091A9
:1035800009048815990509F05CC04616570608F02D
:1035900058C08091210190912201009741F48DB78C
:1035A0009EB74091250150912601841B950BE81789
:1035B000F90708F055C0F0930904E0930804F901F5
:1035C00071836083A0CF8D919C91119712966C901E
:1035D000129713967C901397A815B90559F56C01AD
:1035E00042E0C40ED11CCA14DB0420F1AC014A191C
:1035F0005B09DA011296159780F06282738251831B
:103600004083D9016D937C93E114F10471F0D701EB
:103610001396FC93EE93129776CF22968C0F9D1FF4
:10362000F90191838083F301EFCFF0930B04E093D2
:103630000A0469CF4816590608F42C017D01D3010C
:103640009ACFCB010E946A167C01009749F0AE0127
:10365000B8010E94331BC8010E940617870153CF8F
:1036600010E000E050CFFB01DC0102C001900D92A0
:1036700041505040D8F70895FB01DC0101900D92B4
:0A3680000020E1F70895F894FFCF51
:10368A00010000000000000000000000000000002F
:10369A00000200020000000000000000000000001C
:1036AA000000000C0480000100000000000000ADD2
:1036BA0007A8059E089D080D0A004C4F4144455233
:0A36CA000073636F72653A20000080
:00000001FF
