:020000040000FA
:100000000C941A030C9442030C9442030C94420384
:100010000C9442030C9442030C9442030C9442034C
:100020000C9442030C9442030C9442030C94420E31
:100030000C9442030C9442030C9442030C9442032C
:100040000C94F80D0C9442030C9442030C9442035C
:100050000C9442030C9442030C9442030C9442030C
:100060000C9442030C9442030101FF030101F703C6
:100070004500680100006C00680005008930080236
:100080003802497868140000050038016801000052
:10009000175344001613780016131400151020008F
:1000A00015201000540A03E181867F3E186D830FEE
:1000B0000F0E0183866033186DC3198F1803C38E2A
:1000C0006033186DE330CF1803C39E603630CDE344
:1000D00060CF3006C79E7E3E30CDB360CF300CC6B9
:1000E000F6603330D9B660CF33CFCCF66061B0DB89
:1000F0001E60CF30D86CE6C061B0DB1E618F1998EE
:100100006CC6C063B19B0E330F0FB078C6FF7E1F65
:100110001B061E0F616E6F746865723230343800D2
:1001200005077F4141417F3E5B4F5B3E3E6B4F6B1E
:100130003E183C783C18183C7E3C181C577D571CD8
:100140001C5E7F5E1C007E43437E007E73737E00D8
:100150007E7F7F7E7F4141417F30483A060E0629EF
:100160007929067F4141417F60703F02042A1C3695
:100170001C2A7F3E1C080000081C3E7F14227F22A0
:10018000143C3C3C7EFF18423C817E3E6375633EDE
:100190003E616B633E3E636B6B3E04027F02041064
:1001A000207F201008082A1C08081C2A0808143E72
:1001B000554122637569756310181C1810040C1CD6
:1001C0000C04000000000000005F000000070007B2
:1001D00000147F147F14042A7F2A102313086462FA
:1001E00036495620500008070300001C2241000039
:1001F00041221C002A1C3E1C2A08083E080800E078
:10020000600000080808080800606000006010082E
:1002100004033E5149453E00427F40006251494936
:10022000462141494D331814127F10274545453961
:100230003C4A4949304121110907364949493606A6
:100240004949291E000024000000806400000814B1
:1002500022410014141414140041221408020159FC
:1002600009063E415D594E7C1211127C7F49494975
:10027000363E414141227F4141221C7F494949414B
:100280007F090909013E414151327F0808087F007A
:10029000417F41002041413F017F081422417F40BE
:1002A0004040407F020C027F7F0204087F3E4141B4
:1002B000413E7F090909063E416141BE7F09192976
:1002C00046264949493201017F01013F4040403FF4
:1002D0001F2040201F3F4038403F63140814630331
:1002E000047804036151494543007F414100030400
:1002F0000810600041417F000402010204808080F8
:100300008080000307080020545478407F2844442C
:10031000383844444428384444287F3854545418C6
:10032000087E09090218A4A49C787F0804047800B8
:10033000447D4000006080847D7F1010284400418F
:100340007F40007C047804787C08040478384444B6
:100350004438FC1824241818242418FC7C080404AD
:10036000080854545420043F4444203C4040207C1E
:100370001C2040201C3C4020403C44281028444C79
:100380009090907C4464544C440008364100000036
:100390007F00000041360800180408100C7F41411E
:1003A000417F00000000240027002A000000000018
:1003B000250028002B000A0A153A49676E6F7265FE
:1003C000006D560A0A504C45415345205455524E33
:1003D000204F464620004C4F57204241545445522E
:1003E0005921200003053F213F1208120A100A0E6E
:1003F0001C0E0C1E0C141A14161F161E131E1E1B88
:100400001E1E1F1E3F213F3A2F3A173D173F213F27
:10041000181F02040A041F0E04040E1F0A1F0A0EEE
:100420000E1F04110E2E252E2F2A2E262929021FDB
:1004300002081F08150E04040E150E15151B151BBA
:10044000040604040C040000000017000300031F4E
:100450000A1F16371A1904130A153A000300000E72
:1004600011110E000A040A040E04003000040404F2
:100470000010001804031F111F121F101D15171163
:10048000151F07041F17151D1F151D01011F1F151F
:100490001F17151F000A00003200040A110A0A0A79
:1004A000110A040115020E11171E051E1F150A0E52
:1004B000110A1F110E1F15111F05010E111D1F041A
:1004C0001F111F1108100F1F041B1F10101F061FE4
:1004D0001E040F0E110E1F09060E112E1F051A12F3
:1004E0001509011F011F101F0F180F1F0C1F1B04E0
:1004F0001B031C03191513001F11030418111F00FF
:100500000201022020200001020C121E1F120C0CFE
:1005100012120C121F0C1A14041E05242A1E1F028C
:100520001C141D1020201D1F0814111F101E041E56
:100530001E021C0C120C3E0A040C123E1E04021475
:10054000160A020F120E101E0E100E1E081E120C9E
:100550001226281E322A26041E21001F00211E04F6
:100560000102013F213FF6E8DBCFC3B8AEA49B9266
:100570008A827B746E68625C57524E4945413E3AAE
:100580003734312E2C2927252321172B1520102015
:100590004C4F4144455200172B16201314000A4EAD
:1005A0006F2053442063617264206F720A6E6F2063
:1005B0004C4F414445522E4845580A0A153A457851
:1005C0006974001D20466C617368696E670A20209B
:1005D0006C6F616465722E2E2E0A0A444F4E2754AA
:1005E000205455524E204F46462100000000002363
:1005F0000026002900040404040404040402020286
:100600000202020303030303030102040810204053
:1006100080010204081020010204081020000000DC
:1006200008000201000003040700000000000000B1
:100630000000D31611241FBECFEFD8E0DEBFCDBF20
:1006400011E0A0E0B1E0EAE8F7E302C005900D9206
:10065000A635B107D9F724E0A6E5B1E001C01D92A7
:10066000A831B207E1F713E0CAE1D3E004C0219753
:10067000FE010E94F01AC931D107C9F70E94830E0A
:100680000C94C31B0C94000090E0880F991FE0911C
:10069000C103F091C203E80FF91F25913491309303
:1006A000D2032093D103F901859194919091B603DF
:1006B000989F802D11248093D303F9016591749143
:1006C000472F50E08417150629F020F0F9012591F5
:1006D0003491832F989F802D11248093D403089503
:1006E000833081F028F4813099F08230A9F00895A8
:1006F0008730A9F08830C9F08430B1F4809180004F
:100700008F7D03C0809180008F7780938000089553
:1007100084B58F7784BD089584B58F7DFBCF80919C
:10072000B0008F778093B00008958091B0008F7DE6
:10073000F9CF1F93CF93DF93282F30E0F901E35EC9
:10074000F94F8491F901E75FF94FD491F901EB502A
:10075000FA4FC491CC23A9F0162F81110E94700387
:10076000EC2FF0E0EE0FFF1FE455FC4FA591B49184
:100770008FB7F894EC91111108C0D095DE23DC936B
:100780008FBFDF91CF911F910895DE2BF8CFCF93CC
:10079000C82FF89460E08091EA030E949903809149
:1007A000EB0318161CF460E00E949903CEBD000014
:1007B0000DB407FEFDCF8EB58091EB0318161CF427
:1007C00061E00E9499037894CF9108950F931F934D
:1007D000CF938091E7038F5F8093E7030DE811E0EB
:1007E000C0E08C2F80640E94C70380E80E94C7038A
:1007F00061E08091EA030E9499038091EB0318164F
:100800001CF460E00E949903F80184E591919EBD7B
:1008100000000DB407FEFDCF9EB58150B9F7809161
:10082000EB0318161CF461E00E949903CF5F0C5A89
:100830001F4FC630B1F680E4CF911F910F910C94F9
:10084000C703CF93DF9390E0FC01E75FF94F24915A
:100850008B509A4FFC0184918823C9F090E0880F57
:10086000991FFC01EE55FC4FA591B491FC01E45594
:10087000FC4FC591D49161110DC09FB7F8948C9134
:10088000209582238C938881282328839FBFDF9122
:10089000CF910895623051F49FB7F8943C91822F24
:1008A000809583238C93E8812E2BEFCF8FB7F8941C
:1008B000EC912E2B2C938FBFEACFFF920F931F93B7
:1008C000CF93DF93CDE8D3E0FF24FA9462E08A85EA
:1008D0000E9421042A8530E0F901E35EF94F8491FA
:1008E000F901E75FF94F0491F901EB50FA4F1491C8
:1008F0001123E1F081110E947003E12FF0E0EE0F6F
:10090000FF1FE551FA4FA591B491EC9189890E230F
:1009100069F0811113C0219683E0C439D807B1F67C
:10092000DF91CF911F910F91FF90089589898F5F7B
:10093000898B60E08A850E942104EDCF8F3F11F4FE
:10094000198AF7CFF98AF5CF1F93CF93DF93182F2A
:10095000EB0161E00E942104209739F460E0812FCF
:10096000DF91CF911F910C949903CF3FD10511F4E2
:1009700061E0F5CFE12FF0E0E35EF94FE491E33081
:1009800031F140F4E130B1F0E230E1F0C038D105AE
:100990007CF7E4CFE73029F1E83059F1E430B1F7E2
:1009A00080918000806280938000D0938B00C09300
:1009B0008A0004C084B5806884BDC7BDDF91CF9133
:1009C0001F91089584B5806284BDC8BDF7CF809122
:1009D0008000806880938000D0938900C093880055
:1009E000EDCF8091B00080688093B000C093B300D9
:1009F000E5CF8091B00080628093B000C093B400D6
:100A0000DDCF8E50806480937C0080917A0080647A
:100A100080937A0080917A0086FDFCCF80917800E7
:100A20009091790008958091B1038F7149F584E127
:100A30000E940105BC01990F880B990B0E94EA18CE
:100A400026EE3FE34EEC50E40E9425190E947D1AE9
:100A50009B017093A8036093A703672BB9F084E010
:100A60008093A603E9EAF3E080E0419151912417D5
:100A7000350718F48093A60308958F5F8430A9F793
:100A80008091B1038F5F8093B10308958FEF8093BE
:100A9000A603F6CF3FB7F894809180019091810131
:100AA000A0918201B091830126B5A89B05C02F3F7C
:100AB00019F00196A11DB11D3FBFBA2FA92F982F84
:100AC0008827BC01CD01620F711D811D911D42E07F
:100AD000660F771F881F991F4A95D1F708958F9247
:100AE0009F92AF92BF92CF92DF92EF92FF924B0113
:100AF0005C010E944A056B017C010E944A056C1949
:100B00007D098E099F09683E734081059105A8F310
:100B100021E0821A9108A108B10888EEC80E83E08E
:100B2000D81EE11CF11C81149104A104B10429F721
:100B3000FF90EF90DF90CF90BF90AF909F908F90FD
:100B40000895DC01ED91FC910190F081E02D099474
:100B5000AF92BF92CF92DF92EF92FF920F931F93CB
:100B6000CF93DF936C017B018B01040F151FEB0109
:100B70005E01AE18BF08C017D10759F06991D601C0
:100B8000ED91FC910190F081E02DC6010995892B32
:100B900079F7C501DF91CF911F910F91FF90EF90F1
:100BA000DF90CF90BF90AF900895FC01178A158A0F
:100BB00014A213A2108E109284011092850110923B
:100BC00088011092B4000895CF93DF93E091BB03A6
:100BD0008E2F90E0880F991FE091B903F091BA032E
:100BE000E80FF91F859194918F3F980729F410928F
:100BF000B203DF91CF9108959093BE039927880F98
:100C0000991FE091BC03F091BD03E80FF91FC59156
:100C1000D49182EB93E00E94D505D093C003C0939A
:100C2000BF031092C5031092C40381E08093B30305
:100C300089E08093C8031092CB031092CD031092E9
:100C4000CF038091BB038F5F8093BB03D2CFCF9341
:100C5000DF93EC010E94D50580E790E09E878D87A9
:100C60001B8A1A8A81E0898389E08E8B198E1B8EFC
:100C70001D8EDF91CF910895DC01FB0184918F5F80
:100C800014968C9314973196E491EF5F1596EC933C
:100C900015976E5F7F4F5F967C936E935E97089576
:100CA000DC01643570F5403360F590968C91909737
:100CB000E62F062E000CFF0B242F25952595259554
:100CC00094E52902E00DF11D1124E357FE4F208128
:100CD000342F37708230B1F4822F90E0032E02C09F
:100CE000959587950A94E2F780958170811114C0DB
:100CF00081E090E001C0880F3A95EAF78095822361
:100D000080830895833091F71C968C9181706427BD
:100D1000609561708613ECCF81E090E001C0880F90
:100D20003A95EAF7822BECCFAF92BF92CF92DF9247
:100D3000EF92FF920F931F93CF93DF93182F062FFD
:100D4000C0E0D3E08AEFD82E9EEFE92E842F847086
:100D5000C82E842F8270B82E842F8870A82E4170E0
:100D6000F42ECF5F8C2F880F8F5FE80ECC2081F0A0
:100D7000402F4D0F612F6C0F8BED93E00E945006BA
:100D8000402F4C0F6D2F610F8BED93E00E945006AA
:100D9000BB2081F0402F4D1B612F6C0F8BED93E03A
:100DA0000E945006402F4C1B6D2F610F8BED93E07E
:100DB0000E945006AA2081F0402F4C0F612F6D1B1E
:100DC0008BED93E00E945006402F4D0F612F6C1B5E
:100DD0008BED93E00E945006FF2081F0402F4C1BCA
:100DE000612F6D1B8BED93E00E945006402F4D1B31
:100DF000612F6C1B8BED93E00E945006CD173CF4E5
:100E0000E7FCAFCFD150D394D394ED0CAACFDF91B0
:100E1000CF911F910F91FF90EF90DF90CF90BF90F7
:100E2000AF9008950F931F93CF93DF93D82F162F72
:100E3000042FC0E0C0174CF4412F4C0F6D2F8BEDE9
:100E400093E00E945006CF5FF5CFDF91CF911F91C5
:100E50000F9108958F929F92AF92BF92CF92DF929F
:100E6000EF92FF920F931F93CF93DF93082FA62E3D
:100E7000842E922E83E0F82ED0E0C3E09AEFE92E84
:100E80001EEFBB24B394B20EDF5F1F0D4C2F440F37
:100E90006A2D6C1BC92CCF0CDA2CDD1A81E04B0DAE
:100EA000881215C0802F8D0F0E9412074C2D6D2DBA
:100EB0008C2F800F0E941207DC1794F417FD04C0DA
:100EC000C150E394E3941E0DF394F394DDCF802F8F
:100ED0008D1B0E9412074C2D6D2D802F8C1BEACF8D
:100EE000DF91CF911F910F91FF90EF90DF90CF9006
:100EF000BF90AF909F908F900895CF92DF92EF9226
:100F0000FF920F931F93CF93DF937C01D62EC22EB7
:100F1000C42F002E000C110B040F111D47FD1A9554
:100F20008C2F0C2E000C990B801791076CF4D0E0DD
:100F3000DC1544F46D2D6D0F4C2FC7010E94500637
:100F4000DF5FF6CFCF5FECCFDF91CF911F910F9195
:100F5000FF90EF90DF90CF9008954F925F926F9245
:100F60007F928F929F92AF92BF92CF92DF92EF9239
:100F7000FF920F931F93CF93DF93EC016A3049F4F4
:100F800028859D818A85299F800D11248A8719864D
:100F9000A6C06D3009F4A3C0898483E588150CF4DC
:100FA00087C0DA848FE28D150CF482C018852C81FD
:100FB0002150330B129FC001139F900D1124880DF7
:100FC000911D87FC9A95181619060CF071C02D8199
:100FD0008D2D0D2C000C990B129F800D911D11244D
:100FE000181619060CF064C078A0C82C912CE62EB7
:100FF000F12C292D092C000C330B8C8190E0281743
:1010000039070CF054C00197E0E02817390771F058
:10101000E89EF001E99EF00DF89EF00D11242E0FD0
:101020003F1FEE8DFF8DE20FF31FE4915D2C612CCD
:10103000492C480C2D81862D062C000C990B281765
:10104000190691F18CF1AE2EB12CE0FF16C01130D3
:1010500061F4462D4D0D642DCE010E945006F50120
:10106000F595E7956394510EE5CF012F212F452D7E
:101070006C2DCE010E947D07F2CF89A198A189171E
:1010800071F388A3113041F4462D4D0D642DCE012E
:101090000E94500678A2E3CF012F212F452D6C2D01
:1010A000CE010E947D07F6CF9394C10EA2CF78A205
:1010B00028853C818985239F800D112489879F8104
:1010C000992369F0082E000C990B44E550E0239F0A
:1010D000401951091124481759070CF452CF81E0E7
:1010E00090E0DF91CF911F910F91FF90EF90DF90F3
:1010F000CF90BF90AF909F908F907F906F905F90B8
:101100004F9008950F931F93CF93DF938C01D0E0FE
:10111000C0E0F801EC0FFD1F6491662341F08BEDF8
:1011200093E00E94AD07892B11F02196F2CFCE01FA
:10113000DF91CF911F910F910895089590E080E085
:101140000895FB0101900020E9F73197AF01461B9C
:10115000570BDC01ED91FC910280F381E02D0994A5
:10116000CF93DF930E948208EC016BE371E08BED7B
:1011700093E00E94A1088C0F9D1FDF91CF910895ED
:10118000EDE8F1E088EF91E0DF019C011D92215034
:101190003040E1F71092E4031092E50383EC95E010
:1011A0000E9482080E94E6038CB583608CBD8DB5D9
:1011B0008E7F8DBD8EE391E0EEEFFFE309951092F7
:1011C000E1038EE995E00E94B0080E94E6030E94C8
:1011D0005D048091A203813039F062E370E080E029
:1011E00090E00E946F05F3CF08958F929F92AF9287
:1011F000BF92EF92FF920F931F93CF93DF93CDB7E0
:10120000DEB7A1970FB6F894DEBF0FBECDBF7C014D
:10121000FA01CB0119A2223008F42AE08E010F5DF9
:101220001F4F822E912CB12CA12CBF01A50194013E
:101230000E944C1AF901CA016A300CF5605DD801B0
:101240006E938D01232B242B252B79F790E080E0E2
:10125000109721F0BD01C7010E94A108A1960FB609
:10126000F894DEBF0FBECDBFDF91CF911F910F91DC
:10127000FF90EF90BF90AF909F908F900895695C22
:10128000DECF4F925F926F927F928F929F92AF923A
:10129000BF92CF92DF92EF92FF920F931F93CF9363
:1012A000DF9300D000D01F92CDB7DEB740910D0480
:1012B00050910E0460910F04709110042FB7F894B0
:1012C0008091890190918A01A0918B01B0918C014C
:1012D0002FBF481B590B6A0B7B0B80910C0490E0CD
:1012E000B0E0A0E0009108041091090420910A04E4
:1012F00030910B0484179507A607B70708F0CEC0F6
:10130000011511052105310509F4C8C02FB7F8945E
:101310008091890190918A01A0918B01B0918C01FB
:101320002FBF20910C04820F911DA11DB11D809330
:101330000D0490930E04A0930F04B09310048091B9
:10134000FE039091FF03A0910004B0910104019667
:10135000A11DB11D8093FE039093FF03A093000491
:10136000B0930104109208041092090410920A0428
:1013700010920B040E944A056093040470930504C4
:10138000809306049093070480918E0390918F03BD
:101390002FE0289FA001299F500D11245A834983D3
:1013A00085E10E940105A981BA818A0F9B1FB4E0E3
:1013B00096958795BA95E1F790938F0380938E0366
:1013C00020918D03222309F448C060919103262FB8
:1013D00030E050E040E029833A834B835C83C09047
:1013E0009203D12CF12CE12C40919503509196035E
:1013F0004A01B12CA12C209193033091940329012F
:10140000712C612C8217930728F09C01481759070B
:1014100008F49A0150E040E02419350946095709BB
:1014200069817A818B819C816C197D098E099F0964
:101430000E94AC1AA50194012419350946095709DF
:101440000E94E319C20ED31EE41EF51EC092900343
:101450006C2D70E085E00E94A4040E945D048091E0
:10146000A9039091AA03892B11F00E94130581E032
:101470000F900F900F900F900F90DF91CF911F91D1
:101480000F91FF90EF90DF90CF90BF90AF909F9023
:101490008F907F906F905F904F900895012B022B5B
:1014A000032B09F073C18091A40381508E3F18F57E
:1014B0008091A3038130F9F48091B7038F5F60912D
:1014C000B80387FD09C0082E000C990B70E06F5F10
:1014D0007F4F0E94C81A682F6093B70387E995E091
:1014E000909312048093110488E48093130482EB98
:1014F00093E00E9427068091A40381508E3F70F4F0
:101500008091A203813009F01AC38AE895E0909394
:1015100012048093110488E4809313048091B20331
:10152000882331F08091B303811102C00E94E40549
:101530008091B303882309F43EC08091C7038111D1
:101540003AC08091BF039091C003E091C403F09131
:10155000C503EE0FFF1FE80FF91F259134912115E8
:10156000310509F46AC1A9015695479556954795E5
:10157000842F20FD0DC18F738093C6038091B60325
:10158000839F802D11248093C7031092D70310925C
:10159000D6031092D50381E08093C903809388011C
:1015A0001092CA038091C4039091C5030196909351
:1015B000C5038093C4038091C903882341F08091BF
:1015C000C703811156C182EB93E00E94D50580913B
:1015D0001304882309F490C08C3008F034C23CE036
:1015E000381B3983FF24F394F092E3031092FB033A
:1015F0001092FC034091E0034D831981141B042FCA
:101600000D5F4DE2410F2EE463E08BED93E00E940D
:101610007D075D8154505D83105D252F41E0612F72
:1016200080E50E942A072D8142E0612F83E00E941D
:101630002A07F092FB03F092FC030091E00383E0A1
:10164000800F8D831981101B9DE2E92EE10E23E0AE
:10165000F22E4E2D6F2D8BED93E00E945006F394E9
:1016600091E5F912F6CFAD81AE0DAD83EA2EEA9485
:1016700083E0F82E4E2D6F2D8BED93E00E945006E7
:10168000F394B1E5FB12F6CF0350105D402F612FAC
:1016900080E00E941207402F612F83E50E9412070D
:1016A00041E0612F83E00E94940642E0612F80E5D3
:1016B0000E9494062D8124502D8344E0622F80E502
:1016C0000E94940648E06D8183E00E94940684E0C5
:1016D0008093E4038091E0033981381B315D3093BE
:1016E000E50380911104909112040E948208809178
:1016F00013048150809313048091A9039091AA034D
:10170000892BE1F041E04093FB031092FC039091A0
:10171000DF0385E5891B8093E4031092E503609164
:10172000A603613009F4EFC108F48FC18091A503CD
:10173000653008F0FFC16B5F8111F7C10E94E603BD
:101740008091E10381110EC0EDE8F1E088EF91E0B6
:10175000DF019C011D9221503040E1F71092E4031B
:101760001092E5030E944A056093080470930904EF
:1017700080930A0490930B04209104043091050493
:10178000621B730B709303046093020480E070CEBD
:10179000C901E6E096958795EA95E1F78F71932F59
:1017A00096959695969590514F70423099F1D0F458
:1017B000442309F43CC04130B9F1E091C403F091F5
:1017C000C5033196F093C503E093C403CF01880F9E
:1017D000991FE091BF03F091C003E80FF91F259115
:1017E0003491C1CE433061F0443039F72091B603D3
:1017F000289F802D11248093CF039093D003DDCFB9
:101800002091B603289F802D11248093CD039093BF
:10181000CE03D3CF2091B603289F802D112480932F
:10182000CB039093CC03C9CF0E944403C6CF8B3027
:1018300008F08AE08093C803C0CF2091C303211130
:1018400012C01092B3038091B203811105C082EBE4
:1018500093E00E94D505AFCE0E94E4058091C403B9
:101860009091C503B4CF1092C5031092C403FC013C
:10187000B6CF81508093C7038091D703811142C0B6
:101880002091D5033091D6032F5F3F4FC901880FB8
:10189000991FE091D103F091D203E80FF91F8591D0
:1018A0009491482F47704093D803492F4695469509
:1018B0004093D903AC0164E0569547956A95E1F7EA
:1018C0004F739091B603499F402D11244093D70345
:1018D00083FB882780F9809387013093D603209378
:1018E000D5038091D30390E02817390758F0209151
:1018F000D403222309F49FC0821B91099093D6033D
:101900008093D5038091D70381508093D703809132
:10191000CA0331E0380F3093CA034091C6032091C7
:10192000D903240F8091BE03280F2093B403609144
:10193000CD03662371F070E0832F032E000C990B0A
:101940000E94C81A8091CE03869F200D11242093F7
:10195000B4038091B40390E0849664E270E00E9446
:10196000C81A8093B4032091C8032093B5036091F3
:10197000CB03662381F0062E000C770B832F032EFA
:10198000000C990B0E94C81A8091CC03869F200DF1
:1019900011242093B5036091CF036623A1F0832F18
:1019A000330F990B70E00E94C81ACB0162E070E01F
:1019B0000E94C81A2091D0039091B503289F900DE2
:1019C00011249093B5034F3309F43AC08091B503C5
:1019D0008A300CF089E087FD80E08093B503F894AD
:1019E000E091B403F0E0EA59FA4FE491E093860104
:1019F0002091DA033091B503320390011124409114
:101A0000D8034203C001439F900D11242091B703D6
:101A100002C0880F991F2A95E2F797FF02C08158EC
:101A20009F4F880F892F881F990B80938501809382
:101A300084017894CCCD82EB93E00E94D50562CFEF
:101A40001092B503CCCF1982CDCD82EB93E00E94EA
:101A5000D5051092B30351E05093E30364EE73E0B5
:101A60008BED93E00E943C061092AA031092A9030A
:101A70001092E10388EA89830E9441098823E1F3F7
:101A800086ED93E00E9482084091A7035091A8033D
:101A900070E060E02AE08BED93E00E94F50881ECB5
:101AA00093E00E948208498142954F7050E070E0B7
:101AB00060E02AE08BED93E00E94F50886EB93E06E
:101AC0000E9482088091A203813009F437CE998167
:101AD000915099839111D0CF70E060E085E00E9431
:101AE000A40483B7817F846083BF83B7816083BF91
:101AF00083B7816083BF889583B78E7F83BF83B7A9
:101B00008E7F83BFB9CF8091FE039091FF03A09198
:101B10000004B09101048F709927AA27BB2767E0C2
:101B20000897A105B10508F068E78BED93E00E94E6
:101B3000A10504CE882309F401CE6FE2F6CF8932E5
:101B400009F0ECCC0E94C008E9CC0F931F93CF930F
:101B5000DF93EC0188819981009759F02A813B81BC
:101B60002617370730F081E0DF91CF911F910F9159
:101B700008958B016F5F7F4F0E94F61A009759F00E
:101B8000998388831B830A832C813D81232B59F7FA
:101B9000FC011082E8CF80E0E7CFEF92FF920F9335
:101BA0001F93CF93DF93EC017B018A01BA010E945E
:101BB000A50D28813981811114C02115310519F035
:101BC000C9010E947A17198218821D821C821B8209
:101BD0001A82CE01DF91CF911F910F91FF90EF906C
:101BE00008951D830C83B701C9010E94BC1BF1CF6E
:101BF0001F920F920FB60F9211242F933F938F9342
:101C00009F93AF93BF938091890190918A01A09196
:101C10008B01B0918C0130917F0123E0230F2D3790
:101C200058F50196A11DB11D20937F018093890174
:101C300090938A01A0938B01B0938C0180918001D5
:101C400090918101A0918201B09183010196A11D23
:101C5000B11D8093800190938101A0938201B09384
:101C60008301BF91AF919F918F913F912F910F90E1
:101C70000FBE0F901F90189526E8230F0296A11D06
:101C8000B11DD2CF1F920F920FB60F9211242F9336
:101C90006F937F938F939F9360918501662349F1A2
:101CA000809156018F5F809356019091860189172C
:101CB00000F12091880181E028272093880110926B
:101CC000560180918701882369F08091000193E497
:101CD000899F802D1124895B809300010E94BC1A8A
:101CE0009093840180918401211101C080E0809350
:101CF000B4009F918F917F916F912F910F900FBEA4
:101D00000F901F901895CF93DF93CDB7DEB7A897AC
:101D10000FB6F894DEBF0FBECDBF789484B5826055
:101D200084BD84B5816084BD85B5826085BD85B57F
:101D3000816085BD80916E00816080936E001092FD
:101D40008100809181008260809381008091810078
:101D50008160809381008091800081608093800009
:101D60008091B10084608093B1008091B000816067
:101D70008093B00080917A00846080937A00809193
:101D80007A00826080937A0080917A0081608093EB
:101D90007A0080917A00806880937A001092C10066
:101DA00082E380930C0481E090E0A0E0B0E08093B7
:101DB000080490930904A0930A04B0930B048FEFD6
:101DC0008093FD03E0E8F7E7259134912130304C12
:101DD00009F06BC2E6E9F7E7E491E093E603E7E98F
:101DE000F7E7E491E0939103E8E9F7E7E491E09302
:101DF0009203E9E9F7E78591949190939403809396
:101E00009303EBE9F7E78591949190939603809380
:101E1000950387E08093B803EEE9F7E7E491E09358
:101E2000B703EFE9F7E7E491E093FD03E0EAF7E7B2
:101E3000859194919093AA038093A903E2EAF7E72E
:101E4000859194919093AC038093AB03E4EAF7E718
:101E5000859194919093AE038093AD03E6EAF7E702
:101E6000859194919093B0038093AF0311E0109308
:101E70008D036FEF70E085E00E94A40488E08093FA
:101E8000970389E08093980387E08093990386E025
:101E900080939A0304E000939B0382E080939C0369
:101EA00081E180939D030E945D048CE39FE0909309
:101EB000A8038093A7030093A6031093B1038BE0BC
:101EC0008093E9038DE08093E80380E18093EA0347
:101ED0008EE08093EC038FE08093EB031093E30399
:101EE0001093FB031092FC031093E20364EE73E083
:101EF0008BED93E00E943C061FB7F8948091570148
:101F0000811127C0EFEFF5E08491E3E1F6E09491D1
:101F1000E82FF0E0EE0FFF1FEE55FC4FA591B491B6
:101F2000EC91E92321F461E08AE00E94990361E0E9
:101F30008AE00E9421048CB580618CBD8CB58064E0
:101F40008CBD61E08DE00E94210461E08BE00E9485
:101F50002104809157018F5F809357011FBF8CB57B
:101F60008F7D8CBD8CB58C7F81608CBD8DB5816083
:101F70008DBD8CB58C608CBD61E08091E9030E94C1
:101F8000210461E08091E8030E94210461E08091D6
:101F9000EA030E9421048091EC0318161CF461E00E
:101FA0000E9421048091EB0318161CF461E00E944A
:101FB00021048091EC03181674F460E00E949903E8
:101FC0006AE070E080E090E00E946F0561E080913F
:101FD000EC030E9499038091E803082E000C990BF2
:101FE000FC01EB50FA4FE491F0E0EE0FFF1FE455D7
:101FF000FC4F259134913093F0032093EF03FC01C3
:10200000E75FF94FE491E093F6038091E903082E2E
:10201000000C990BFC01EB50FA4FE491F0E0EE0F4D
:10202000FF1FE455FC4F259134913093EE0320932C
:10203000ED03FC01E75FF94FE491E093F503809134
:10204000EB03082E000C990BFC01EB50FA4FE491C6
:10205000F0E0EE0FFF1FE455FC4F259134913093D3
:10206000F2032093F103FC01E75FF94FE491E09361
:10207000F7038091EA03082E000C990BFC01EB504A
:10208000FA4FE491F0E0EE0FFF1FE455FC4F25916D
:1020900034913093F4032093F303FC01E75FF94F8D
:1020A000E491E093F80381E20E94C70384E10E9477
:1020B000C7038091E60387FF03C08FE78093E603A1
:1020C0008091E60380680E94C70380E20E94C703F4
:1020D0008CE00E94C7030E94E60381E08093B60370
:1020E00084E08093DA0386E790E09093C2038093C4
:1020F000C10380E00E94440361E070E083E00E943D
:10210000A4048091B100887F81608093B100F8942D
:10211000109280001092810010928500109284002D
:1021200088E191E0909389008093880080918100FC
:10213000886080938100809181008160809381001C
:1021400080916F00826080936F0078948091A903E2
:102150009091AA03892B11F00E9413058091A3038B
:10216000813009F4CFC08091A603882309F4CAC046
:1021700082EB93E00E94D5058AE790E09093C0033C
:102180008093BF031092C5031092C40381E0809333
:10219000B30389E08093C8031092CB031092CD0360
:1021A0001092CF0360E271E08BED93E00E943C0659
:1021B0008091FD03882309F4B1C181E08093E3039A
:1021C0001092E2031092E1031092A5038093FB03A7
:1021D0008093FC0335EA832E30E0932E11E00CE06F
:1021E0000E9441098823E1F3E4E1F1E08491E4EA0B
:1021F000F0E08491F401C490F090FB03082E000CF1
:10220000990B5C01F7E0AF0EB11CB7FE04C05C0196
:102210002EE0A20EB11C23E0B594A7942A95E1F715
:10222000181619060CF0C9C01C140CF0C6C04C2DB1
:1022300041330CF040E38535910514F084E590E0DE
:10224000E090E70350E02DE831E091E066EA70E0CD
:10225000C42E440FDD08BB245C151D040CF0ADC07A
:10226000FB014491F1E0FF1250C0FB01D9016894D9
:10227000772477F8672C642219F06C90692A6C92A5
:10228000769429F4319644916894772477F81196DE
:102290006A2E621A681670F3990F19F42C5A3F4F80
:1022A00091E05F5F6A0D7B1DD7CF9CE39093E603BF
:1022B000109291038093920380E293E090939403B1
:1022C0008093930384ED93E090939603809395031A
:1022D00087E08093B8038093B7038CEA9DE09093E6
:1022E000AA038093A9038EED9DE09093AC038093A5
:1022F000AB0384E79EE09093AE038093AD038CE341
:102300009FE0B0CD1092B7034DCFF1101AC0692EE7
:102310006094FB01D9016894772477F8572C5422F4
:1023200019F05C9056205C92769429F43196449191
:102330006894772477F811965A2E521A581670F32B
:10234000ABCFA3E0FA1221C0492E4094FB01D90182
:102350006894662467F8512C762C742239F07C90AE
:102360003E2C352430FE0FC0792A7C92669429F4E5
:10237000319644916894662467F8539411965816E0
:1023800058F3E12689CF7420F0CFFB01D90168947E
:10239000772477F8672C642219F06C9069266C9288
:1023A000769429F4319644916894772477F81196BD
:1023B0006A2E621A681670F36FCF1092E4030093CE
:1023C000E50384E191E00E9482088091DF03982F69
:1023D000990F990F891B8D5A8093E4038091E00334
:1023E000982F990F990F891B835D8093E503809146
:1023F000FE0384FF68C080EA90E00E94B0088091EC
:10240000DF03982F990F990F891B8D5A8093E4034E
:102410008091E5038F5F8093E5038091B703882364
:1024200009F454C088E990E00E94B0088091DF036D
:10243000982F990F990F891B8D5A8093E4038091EF
:10244000E5038F5F8093E50380E990E00E94B00888
:102450008091A3038130B1F48091B7038F5F6091C5
:10246000B80387FD09C0082E000C990B70E06F5F60
:102470007F4F0E94C81A682F6093B70382EB93E0E6
:102480000E9427068091A203813019F18091FD03FB
:10249000482F50E070E060E0C090FE03D090FF0352
:1024A000E0900004F0900104C416D506E606F70695
:1024B00010F08F3F71F48091A403813009F090CE29
:1024C0000E94C0088DCE8CE990E097CF84E990E01F
:1024D000ABCF8FEF8093FD0382EB93E00E94D50595
:1024E0001092B30382EB93E00E94D50588E890E058
:1024F0009093C0038093BF031092C5031092C4034E
:1025000081E08093B30399E09093C8031092CB03CA
:102510001092CD031092CF038093A503C090A70320
:10252000D090A803C094D094F12CE12C0E944A05CD
:102530004B015C010E944A05A5019401209530954C
:102540004095509560957095809590950E94AC1A35
:102550009B01AC01C701B6010E94AC1A4B015C01A2
:10256000C0908E03D0908F03F12CE12C0E944A057D
:102570006C0D7D1D8E1D9F1D680D791D8A1D9B1D77
:10258000611571058105910511F00E949E18109248
:10259000A503FE0131962F0180917E018F5F80930C
:1025A0007E0180917D018F5F90E06AE070E00E9483
:1025B000C81A0A966AE070E00E94C81A80937D01EA
:1025C0002FB7F8948091890190918A01A0918B0195
:1025D000B0918C012FBF4091790150917A016091A7
:1025E0007B0170917C01481759076A077B0708F047
:1025F0008CC190907801911088C135E0632E31E054
:10260000732E48E5242E41E0342ED101F30181914F
:1026100091918D939D938681978117969C938E932C
:102620001697868597851F969C938E931E9786890D
:10263000978957969C938E93569721E0ED30F20739
:1026400031F78091A103813009F0A2C090E080E0D1
:10265000AC01440F551F435E5E4F22E030E063E063
:1026600070E05A01F0E0E0E08B010E0F1F1FDF0168
:10267000AA0FBB1FAA0FBB1FAA0FBB1FA40FB51F1A
:102680000D90BC91A02DAB2B09F02BC3A62FAE0F44
:10269000A33009F414C33196E7CF01501109D801D2
:1026A000AA0FBB1FAA0FBB1FA80FB91FAA0FBB1FE2
:1026B000AB5FBE4FCD92DC922017310709F034C3D7
:1026C0002150310961507109485051096115710556
:1026D00049F601968430910509F0BACF81E09091D6
:1026E0009F03913009F077C0E5E0EE2EE1E0FE2E89
:1026F00030E020E041E050E08901000F111F0B5F46
:102700001E4FCA010197FC0163E0EE0FFF1F6A959F
:10271000E1F7EE0DFF1D60817181672BA1F481113E
:10272000F1CFFA01EE0FFF1FEE0FFF1FE20FF31FB5
:10273000EE0FFF1FEB5FFE4F60817181D8016D933B
:102740007C9311821082DC01AA0FBB1FAA0FBB1F52
:10275000A20FB31FAA0FBB1FAB5FBE4F6D917C9141
:102760001197FA01EE0FFF1FEE0FFF1FE20FF31F8D
:10277000EE0FFF1FEB5FFE4FC080D1806C157D0513
:1027800049F4660F771F6D937C931182108213C0FA
:1027900080E0A5CF0196DC01AA0FBB1FAA0FBB1FCB
:1027A000A20FB31FAA0FBB1FAB5FBE4FCD92DC922F
:1027B0004817590751F74F5F5F4F4430510509F0F3
:1027C000A0CF2F5F3F4FB2E0EB0EF11C243031055C
:1027D00009F090CF81E090919E039130E9F5EE24CD
:1027E000EA94FE2C50E040E03DE1A32E31E0B32E10
:1027F00063E070E0842E8820F1F0C701FC01EE0F49
:10280000FF1FEA0DFB1D20813181232B09F0A8C297
:10281000882309F48CC20197F1CF0196D901A80F42
:10282000B91FAA0FBB1FAB5FBE4FCD92DC924817FA
:10283000590709F0B5C261507109E8E0AE1AB10854
:102840006F3F7607C1F64F5F5F4F2FEFE21AF20A34
:102850004430510549F681E09091A003913009F48C
:102860003AC1882309F451C025E031E084E0F90140
:1028700090E040815181413050420CF0ADC138961A
:102880009F5F9430B1F781502E5F3F4F8111EFCFA2
:10289000909278012FB7F8948091890190918A01E4
:1028A000A0918B01B0918C012FBF8C599F4FAF4FDE
:1028B000BF4F8093790190937A01A0937B01B093ED
:1028C0007C0182EB93E00E94270625E031E090E056
:1028D00080E0F101E80FF91F40815181F901E80F13
:1028E000F91F608171814617570709F078C1089672
:1028F0008032910571F7B2E02B0E311C2E5F3F4FF5
:10290000E0E6F1E0E215F30511F70E9441098823A2
:1029100009F4D9C064EE73E08BED93E00E943C06AD
:1029200005E011E097E0D92E780184E0C82ED0921E
:10293000E403C092E503D7014D915C91141615068E
:102940004CF4052E000C660B770B2AE08BED93E020
:102950000E94F508B9E0CB0EE8E0EE0EF11CF8E2BB
:10296000CF12E5CF0E5F1F4F22E1D20E3FE4D3120C
:10297000DBCF12E001E028E4412F65E08BED93E02E
:102980000E947D07612F660F6F5F04E221E042E045
:102990008BED93E00E947D07175F1F3259F785E0AA
:1029A0008093E40348E24093E50360910101709154
:1029B000020180910301909104011CA21BA21EA29E
:1029C0001DA218A61FA22AE0A2010E94A718F201C8
:1029D00001900020E9F73197AF0144195509B20180
:1029E000CE0183960E94CD0D1A8219821C821B8211
:1029F0001E821D8247E050E065E471E0C2010E9442
:102A0000CD0DEBA0FCA0E114F10409F44BC10FA122
:102A100018A501151105B1F08D819E81080F191FB0
:102A2000B801C2010E94A50D882309F43BC1298188
:102A30003A818D819E81B701820F931F0E94BC1B3A
:102A40001E830D834D815E8169817A818BED93E0D8
:102A50000E94A80589819A81009711F00E947A1737
:102A60008BA19CA1009711F00E947A1780917801A8
:102A7000882349F161E06093FB031092FC030EE0B0
:102A800020E54DE062E08BED93E00E947D0710921F
:102A9000FB0381E08093FC0360E271E08BED93E047
:102AA0000E943C0693E19093E403A0E1A093E50328
:102AB0006DE471E08BED93E00E94A108B1E0B0936A
:102AC000FB031092FC03E0E0F0E0EF2B09F464CD8F
:102AD0000E94000061CD14E0A12EB12C83E090E0B3
:102AE000BC01660F771F615E7E4F43E050E083308C
:102AF00009F461C030E020E08501020F131FF901E5
:102B0000EE0FFF1FE60FF71F0190F081E02DEF2B76
:102B100011F52F5F3F4FE82FE20FE33069F7FA011D
:102B2000EE0FFF1FEE0FFF1FE80FF91FEE0FFF1F45
:102B3000EB5FFE4F20813181DA01AA0FBB1FAA0F84
:102B4000BB1FAA0FBB1FAB5FBE4F17963C932E93C4
:102B50001697118210829A01220F331F220F331F02
:102B6000D901A00FB11FAA0FBB1FAB5FBE4FED90E5
:102B7000FC901197F901E80FF91FEE0FFF1FEB5FB3
:102B8000FE4FC080D180EC14FD0439F4EE0CFF1C24
:102B9000ED92FC92118210820EC001501109D901F0
:102BA000A00FB11FAA0FBB1FAB5FBE4FCD92DC922F
:102BB0008017910779F741505109685071094F3FCB
:102BC000540709F094CF019741E0A41AB1088F3F50
:102BD000980709F085CF48CE9924939459CE90E078
:102BE00020E080E034E08302F0011124E90FF11DC0
:102BF00097FDFA95EE0FFF1FEB5FFE4F408151816D
:102C0000452B09F42F5F8F5F843061F79F5F94300D
:102C100041F7222309F479CE022E000C330B809168
:102C20007E0190E0B9010E94C81A820F931FB9017A
:102C30000E94C81A90917D0124E030E0992311F0A0
:102C400022E030E04901032E000CAA08BB08C09026
:102C50000101D0900201E0900301F090040194E0A2
:102C6000F30160E040815181452B49F4811106C098
:102C700031832083C80CD91CEA1CFB1C8150389678
:102C80006F5F643079F7915042E0640E711C9111CE
:102C9000E7CFC0920101D0920201E0920301F092CD
:102CA000040133CE89819A81009711F00E947A172E
:102CB0001A8219821E821D821C821B82C3CEF901D8
:102CC000EE0FFF1FEE0FFF1FE80FF91FEE0FFF1FA4
:102CD000EB5FFE4FE080F180D501ED92FC92118216
:102CE0001082D801AA0FBB1FAA0FBB1FA80FB91FC4
:102CF000AA0FBB1FAB5FBE4FED90FC901197F9017F
:102D0000EE0FFF1FEE0FFF1FE80FF91FEE0FFF1F63
:102D1000EB5FFE4FC080D180EC14FD0409F0BDCC08
:102D2000EE0CFF1CED92FC9211821082C9CCFB01CB
:102D3000EE0FFF1FEE0FFF1FE40FF51FEE0FFF1F3B
:102D4000EB5FFE4F20813181DB0113E0AA0FBB1F37
:102D50001A95E1F7AB5FBE4F2D933C931182108221
:102D60009B01220F331F220F331FD901A80FB91F58
:102D7000AA0FBB1FAB5FBE4F0D911C911197F901BC
:102D8000E40FF51FEE0FFF1FEB5FFE4FC080D180F9
:102D90000C151D0509F041CD000F111F0D931C935B
:102DA0001182108248CD1092DE031092DD0383E37E
:102DB00091E09093DC038093DB0308950F931F93BE
:102DC000CF93DF938230910510F482E090E0E091A0
:102DD0001604F091170430E020E0B0E0A0E0309756
:102DE00099F42115310509F44AC0281B390B243008
:102DF0003105D8F58A819B816115710589F1FB0147
:102E000093838283FE0111C040815181028113812D
:102E100048175907E0F04817590799F4109761F0DF
:102E200012960C93129713961C933296CF01DF9152
:102E3000CF911F910F9108950093160410931704DA
:102E4000F4CF2115310551F04217530738F0A9018D
:102E5000DB019A01BD01DF01F801C1CFEF01F9CF1C
:102E60009093170480931604CDCFFE01E20FF31F59
:102E7000819391932250310939832883D7CF2091B0
:102E8000140430911504232B41F420912701309133
:102E900028013093150420931404209125013091CA
:102EA00026012115310541F42DB73EB74091290186
:102EB00050912A01241B350BE0911404F091150464
:102EC000E217F307A0F42E1B3F0B2817390778F001
:102ED000AC014E5F5F4F2417350748F04E0F5F1F60
:102EE0005093150440931404819391939FCFF0E085
:102EF000E0E09CCFCF93DF930097E9F0FC0132979D
:102F000013821282A0911604B0911704ED0130E0F3
:102F100020E01097A1F420813181820F931F20912E
:102F20001404309115042817390709F061C0F09393
:102F30001504E0931404DF91CF910895EA01CE17B0
:102F4000DF07E8F54A815B819E0141155105B1F724
:102F5000E901FB83EA8349915991C40FD51FEC170E
:102F6000FD0761F4808191810296840F951FE9012C
:102F700099838883828193819B838A83F0E0E0E058
:102F800012968D919C9113970097B9F52D913C91D4
:102F90001197CD010296820F931F20911404309156
:102FA00015042817390739F6309751F51092170490
:102FB00010921604B0931504A0931404BCCFD383CD
:102FC000C28340815181840F951FC817D90761F4CE
:102FD0004E5F5F4F88819981480F591F518340830D
:102FE0008A819B81938382832115310509F0B0CFBB
:102FF000F0931704E09316049ECFFD01DC01C0CFCF
:1030000013821282D7CF8F929F92AF92BF92CF92AC
:10301000DF92EF92FF92CF93DF93EC016881798189
:103020008A819B81611571058105910521F464E216
:1030300079ED8BE597E02DE133EF41E050E00E9420
:10304000E31949015A019B01AC01A7EAB1E40E94CE
:10305000021A6B017C01ACEEB4EFA50194010E9451
:10306000101AC60ED71EE81EF91EF7FE06C081E034
:10307000C81AD108E10880E8F80AC882D982EA8231
:10308000FB82C701B6019F77DF91CF91FF90EF9050
:10309000DF90CF90BF90AF909F908F9008958F92C8
:1030A0009F92AF92BF92CF92DF92EF92FF92609188
:1030B0002B0170912C0180912D0190912E016115B1
:1030C00071058105910521F464E279ED8BE597E0C6
:1030D0002DE133EF41E050E00E94E31949015A012C
:1030E0009B01AC01A7EAB1E40E94021A6B017C01CA
:1030F000ACEEB4EFA50194010E94101AC60ED71EC3
:10310000E81EF91EF7FE06C081E0C81AD108E108E2
:1031100080E8F80AC0922B01D0922C01E0922D0198
:10312000F0922E01C701B6019F77FF90EF90DF90DC
:10313000CF90BF90AF909F908F90089560932B0198
:1031400070932C0180932D0190932E010895BB273D
:103150002A3051F4992342F4BDE290958095709500
:1031600061957F4F8F4F9F4F0C94B718BB27FA0183
:10317000A62F6217710581059105330B30FB66F0B0
:10318000AA27660F771F881F991FAA1FA21710F082
:10319000A21B63953850A9F7A05DAA3308F0A95D7A
:1031A000A19336F7B111B1931082CA010C94D818CB
:1031B000DC01FC01672F71917723E1F7329704C09E
:1031C0007C916D9370836291AE17BF07C8F3089529
:1031D000E89409C097FB3EF49095809570956195B1
:1031E0007F4F8F4F9F4F9923A9F0F92F96E9BB2767
:1031F0009395F695879577956795B795F111F8CFE3
:10320000FAF4BB0F11F460FF1BC06F5F7F4F8F4F4D
:103210009F4F16C0882311F096E911C0772321F043
:103220009EE8872F762F05C0662371F096E8862FDB
:1032300070E060E02AF09A95660F771F881FDAF732
:10324000880F9695879597F908950E9438190C94E0
:10325000A9190E949B1938F00E94A21920F0952309
:1032600011F00C9492190C94981911240C94DD19F6
:103270000E94BA1970F3959FC1F3950F50E0551F46
:10328000629FF001729FBB27F00DB11D639FAA27BB
:10329000F00DB11DAA1F649F6627B00DA11D661F0A
:1032A000829F2227B00DA11D621F739FB00DA11D2B
:1032B000621F839FA00D611D221F749F3327A00DE5
:1032C000611D231F849F600D211D822F762F6A2F81
:1032D00011249F5750409AF0F1F088234AF0EE0FE6
:1032E000FF1FBB1F661F771F881F91505040A9F713
:1032F0009E3F510580F00C9492190C94DD195F3FAC
:10330000E4F3983ED4F3869577956795B795F7954E
:10331000E7959F5FC1F7FE2B880F911D96958795C6
:1033200097F9089597F99F6780E870E060E0089545
:103330009FEF80EC089500240A94161617061806CD
:103340000906089500240A941216130614060506A9
:103350000895092E0394000C11F4882352F0BB0F3A
:1033600040F4BF2B11F460FF04C06F5F7F4F8F4F9D
:103370009F4F089557FD9058440F551F59F05F3FD8
:1033800071F04795880F97FB991F61F09F3F79F087
:1033900087950895121613061406551FF2CF469509
:1033A000F1DF08C0161617061806991FF1CF86958B
:1033B0007105610508940895E894BB27662777276F
:1033C000CB0197F90895052E97FB1EF400940E94F7
:1033D000FA1957FD07D00E944C1A07FC03D04EF48F
:1033E0000C94FA1950954095309521953F4F4F4FC9
:1033F0005F4F089590958095709561957F4F8F4FA1
:103400009F4F08950E946E1AA59F900DB49F900D36
:10341000A49F800D911D11240895B7FF0C94021AEA
:103420000E94021A821B930B08952F923F924F9293
:103430005F926F927F928F929F92AF92BF92CF9244
:10344000DF92EF92FF920F931F93CF93DF93CDB74D
:10345000DEB7CA1BDB0B0FB6F894DEBF0FBECDBFC5
:1034600009942A88398848885F846E847D848C8496
:103470009B84AA84B984C884DF80EE80FD800C819F
:103480001B81AA81B981CE0FD11D0FB6F894DEBF82
:103490000FBECDBFED010895A1E21A2EAA1BBB1BE2
:1034A000FD010DC0AA1FBB1FEE1FFF1FA217B30710
:1034B000E407F50720F0A21BB30BE40BF50B661F26
:1034C000771F881F991F1A9469F7609570958095EA
:1034D00090959B01AC01BD01CF010895A29FB00161
:1034E000B39FC001A39F700D811D1124911DB29F38
:1034F000700D811D1124911D08950E94C21988F03C
:103500009F5798F0B92F9927B751B0F0E1F0660FA7
:10351000771F881F991F1AF0BA95C9F714C0B130E8
:1035200091F00E94DC19B1E008950C94DC19672F2A
:10353000782F8827B85F39F0B93FCCF38695779517
:103540006795B395D9F73EF4909580957095619500
:103550007F4F8F4F9F4F0895DB018F939F930E9462
:10356000021ABF91AF91A29F800D911DA39F900D54
:10357000B29F900D11240895991B79E004C0991F02
:10358000961708F0961B881F7A95C9F780950895BD
:1035900097FB072E16F4009407D077FD09D00E9400
:1035A000DC1A07FC05D03EF4909581959F4F089555
:1035B000709561957F4F0895AA1BBB1B51E107C011
:1035C000AA1FBB1FA617B70710F0A61BB70B881FB3
:1035D000991F5A95A9F780959095BC01CD01089542
:1035E000EE0FFF1F0590F491E02D0994B0E0A0E0EC
:1035F000ECEFFAE10C94171A8C01009751F4CB010F
:103600000E94DE168C01C801CDB7DEB7E0E10C9454
:10361000331AFC01E60FF71F9C0122503109E21713
:10362000F30708F49DC0D901CD91DC911197C6171D
:10363000D70798F0C530D10530F3CE01049786172F
:10364000970708F3C61BD70B2297C193D1936D93AD
:103650007C93CF010E947A17D6CF5B01AC1ABD0ACA
:103660004C018C0E9D1EA0911604B0911704512C94
:10367000412CF12CE12C109731F58091140490919C
:1036800015048815990509F05CC04616570608F020
:1036900058C08091250190912601009741F48DB783
:1036A0009EB74091290150912A01841B950BE81780
:1036B000F90708F055C0F0931504E0931404F901DC
:1036C00071836083A0CF8D919C91119712966C901D
:1036D000129713967C901397A815B90559F56C01AC
:1036E00042E0C40ED11CCA14DB0420F1AC014A191B
:1036F0005B09DA011296159780F06282738251831A
:103700004083D9016D937C93E114F10471F0D701EA
:103710001396FC93EE93129776CF22968C0F9D1FF3
:10372000F90191838083F301EFCFF0931704E093C5
:10373000160469CF4816590608F42C017D01D301FF
:103740009ACFCB010E94DE167C01009749F0AE01B2
:10375000B8010E94B31BC8010E947A17870153CF9A
:1037600010E000E050CFFB01DC0102C001900D929F
:1037700041505040D8F70895FB01DC0101900D92B3
:103780000020E1F70895F894FFCF01040000000045
:103790000000000000000000000000000000000227
:1037A0000002000000000000000000000000000017
:1037B00000180480000100000000000000AD07A810
:1037C000059E089D080D0A004C4F41444552007368
:1037D000636F72653A2000566963746F72792100D5
:107E0000112484B714BE81FFF0D085E080938100F7
:107E100082E08093C00088E18093C10086E0809377
:107E2000C20080E18093C4008EE0C9D0259A86E02C
:107E300020E33CEF91E0309385002093840096BBD3
:107E4000B09BFECF1D9AA8958150A9F7CC24DD24C4
:107E500088248394B5E0AB2EA1E19A2EF3E0BF2EE7
:107E6000A2D0813461F49FD0082FAFD0023811F036
:107E7000013811F484E001C083E08DD089C08234E0
:107E800011F484E103C0853419F485E0A6D080C0E4
:107E9000853579F488D0E82EFF2485D0082F10E0AE
:107EA000102F00270E291F29000F111F8ED06801E7
:107EB0006FC0863521F484E090D080E0DECF843638
:107EC00009F040C070D06FD0082F6DD080E0C81688
:107ED00080E7D80618F4F601B7BEE895C0E0D1E017
:107EE00062D089930C17E1F7F0E0CF16F0E7DF06D8
:107EF00018F0F601B7BEE89568D007B600FCFDCFD4
:107F0000A601A0E0B1E02C9130E011968C91119780
:107F100090E0982F8827822B932B1296FA010C0160
:107F200087BEE89511244E5F5F4FF1E0A038BF0790
:107F300051F7F601A7BEE89507B600FCFDCF97BE46
:107F4000E89526C08437B1F42ED02DD0F82E2BD052
:107F50003CD0F601EF2C8F010F5F1F4F84911BD097
:107F6000EA94F801C1F70894C11CD11CFA94CF0C13
:107F7000D11C0EC0853739F428D08EE10CD085E9AC
:107F80000AD08FE07ACF813511F488E018D01DD067
:107F900080E101D065CF982F8091C00085FFFCCF94
:107FA0009093C60008958091C00087FFFCCF809118
:107FB000C00084FD01C0A8958091C6000895E0E648
:107FC000F0E098E1908380830895EDDF803219F02E
:107FD00088E0F5DFFFCF84E1DECF1F93182FE3DFCA
:107FE0001150E9F7F2DF1F91089580E0E8DFEE27F6
:047FF000FF270994CA
:027FFE00040479
:00000001FF
